:100000000C94510E0C94820E0C94820E0C94820E61
:100010000C94820E0C94820E0C94820E0C94820E20
:100020000C94820E0C94820E0C94820E0C94820E10
:100030000C94820E0C94FABA0C94820E0C94820EDC
:100040000C94820E0C94916A0C94820E0C94820E85
:100050000C94820E0C94820E0C94A77E0C946AB5BC
:100060000C94820E0C9495420C94820E0C94820E89
:100070000C94820E0C94820E0C94820E0C94820EC0
:100080000C94820E0C94820E0C94820E0C94820EB0
:100090000C94820E0C94820E0C94820E0C94820EA0
:1000A0000C94820E0C94820E0C94820E0C94820E90
:1000B0000C94820E0C94820E0C94820E0C94820E80
:1000C0000C94820E0C94820E0C94820E0C94820E70
:1000D0000C94820E0C94820E0C94820E0C94820E60
:1000E0000C94820E084AD73B3BCE016E84BCBFFD08
:1000F000C12F3D6C74319ABD56833DDA3D00C77FF8
:1001000011BED9E4BB4C3E916BAAAABE0000008090
:100110003F05A84CCDB2D44EB93836A9020C50B91F
:10012000918688083CA6AAAA2ABE000000803F65E6
:1001300063686F3A00534420696E69742066616990
:100140006C004572726F723A00766F6C756D652E39
:10015000696E6974206661696C6564006F70656EB4
:10016000526F6F74206661696C656400534420634C
:10017000617264206F6B00747279696E6720746FAE
:100180002063616C6C207375622D67636F646520FA
:1001900066696C6573207769746820746F6F206D71
:1001A000616E79206C6576656C732E204D41582008
:1001B0006C6576656C2069733A00535542524F5511
:1001C00054494E452043414C4C207461726765741C
:1001D0003A22002220706172656E743A2200222059
:1001E000706F73004E6F7720646F696E6720666969
:1001F0006C653A20004E6F772066726573682066E2
:10020000696C653A20006F70656E206661696C6587
:10021000642C2046696C653A20002E0046696C65A6
:10022000206F70656E65643A20002053697A653AE4
:10023000200046696C652073656C656374656400B5
:100240006F70656E206661696C65642C2046696C10
:10025000653A20002E006F70656E206661696C65DE
:10026000642C2046696C653A20002E005772697430
:10027000696E6720746F2066696C653A20006F7044
:10028000656E206661696C65642C2046696C653A10
:1002900020002E0046696C652064656C6574656499
:1002A0003A0044656C6574696F6E206661696C65BF
:1002B000642C2046696C653A20002E00534420705F
:1002C00072696E74696E67206279746520002F0010
:1002D0004E6F74205344207072696E74696E6700AB
:1002E0006572726F722077726974696E6720746FBD
:1002F0002066696C65006175746F25692E67004D15
:100300003233202573004D32340043616E6E6F74BA
:1003100020656E746572207375626469723A20009C
:100320004D383420582059205A2045006563686FA5
:100330003A0053746570732070657220756E69742D
:100340003A0020204D3932205800205900205A0010
:100350002045004D6178696D756D20666565647234
:100360006174657320286D6D2F73293A0020204D2C
:10037000323033205800205900205A002045004DCB
:100380006178696D756D20416363656C6572617438
:10039000696F6E20286D6D2F7332293A0020204D31
:1003A000323031205800205900205A0020450041A9
:1003B0006363656C65726174696F6E3A20533D6169
:1003C0006363656C65726174696F6E2C20543D7255
:1003D00065747261637420616363656C65726174D6
:1003E000696F6E0020204D323034205300205400BD
:1003F000416476616E636564207661726961626CE6
:1004000065733A20533D4D696E206665656472617F
:10041000746520286D6D2F73292C20543D4D696E15
:100420002074726176656C206665656472617465BE
:1004300020286D6D2F73292C20423D6D696E696DEA
:10044000756D207365676D656E742074696D6520C8
:10045000286D73292C20583D6D6178696D756D206C
:100460005859206A65726B20286D6D2F73292C20D6
:10047000205A3D6D6178696D756D205A206A6572EC
:100480006B20286D6D2F73292C2020453D6D6178E0
:10049000696D756D2045206A65726B20286D6D2F22
:1004A00073290020204D3230352053002054002085
:1004B0004200205800205A00204500486F6D6520FA
:1004C0006F666673657420286D6D293A0020204D93
:1004D000323036205800205900205A00504944201C
:1004E00073657474696E67733A002020204D333051
:1004F0003120500020490020440048617264636F3D
:100500006465642044656661756C74205365747419
:10051000696E6773204C6F61646564006563686F22
:100520003A00656E717565696E672022002200656C
:100530006E717565696E67202200220073746172A6
:100540007400506F7765725570002045787465723D
:100550006E616C205265736574002042726F776E15
:10056000206F757420526573657400205761746341
:1005700068646F672052657365740020536F6674FA
:1005800077617265205265736574004D61726C69A4
:100590006E00312E302E3000204C61737420557067
:1005A00064617465643A20004D6179202036203200
:1005B0003031342030303A31363A323300207C202A
:1005C000417574686F723A2000286E6F6E652C203A
:1005D00064656661756C7420636F6E666967290077
:1005E000436F6D70696C65643A20004D617920201D
:1005F000362032303134002046726565204D656DFD
:100600006F72793A20002020506C616E6E657242E4
:10061000756666657242797465733A20004D3239A9
:10062000006F6B00446F6E6520736176696E6720A2
:1006300066696C652E004D313130004572726F7203
:100640003A004C696E65204E756D62657220697363
:10065000206E6F74204C617374204C696E65204E5F
:10066000756D6265722B312C204C617374204C695E
:100670006E653A2000636865636B73756D206D6904
:10068000736D617463682C204C617374204C696EC7
:10069000653A20004E6F20436865636B73756D206B
:1006A00077697468206C696E65206E756D6265721D
:1006B0002C204C617374204C696E653A20004E6F9B
:1006C000204C696E65204E756D6265722077697485
:1006D0006820636865636B73756D2C204C6173745F
:1006E000204C696E653A20006F6B005072696E7421
:1006F00065722073746F7070656420647565207412
:100700006F206572726F72732E204669782074684C
:1007100065206572726F7220616E6420757365204A
:100720004D39393920746F20726573746172742E7B
:10073000202854656D7065726174757265206973E7
:100740002072657365742E2053657420697420616E
:10075000667465722072657374617274696E67295C
:100760000053544F505045442E2000446F6E652076
:100770007072696E74696E672066696C65002569C0
:1007800020686F757273202569206D696E757465B8
:100790007300536C6565702E2E2E005761697420AE
:1007A000666F7220757365722E2E2E0052657375FA
:1007B0006D696E67207072696E74004E6F206D6F88
:1007C00076652E00426567696E2066696C65206CEF
:1007D00069737400456E642066696C65206C69738A
:1007E00074002569206D696E2C202569207365636E
:1007F000006F6B20543A00202F0020423A00202F37
:10080000002054003A00202F0020403A00204240AF
:100810003A0048656174696E672E2E2E00543A00C6
:1008200020453A0020573A0048656174696E672098
:10083000646F6E652E004265642048656174696E60
:10084000672E00543A0020453A0020423A004265A3
:100850006420646F6E652E004D656E64656C207259
:10086000656164792E004D656E64656C204F666627
:100870002E004649524D574152455F4E414D453A33
:100880004D61726C696E2056313B20537072696EF7
:100890007465722F6772626C206D61736875702069
:1008A000666F722067656E36204649524D57415239
:1008B000455F55524C3A68747470733A2F2F6769CC
:1008C000746875622E636F6D2F4572696B5A616C27
:1008D0006D2F4D61726C696E2F2050524F544F43F3
:1008E0004F4C5F56455253494F4E3A312E30204DB2
:1008F000414348494E455F545950453A4D656E64F1
:10090000656C2045585452554445525F434F554EEF
:10091000543A3120555549443A3030303030303037
:10092000302D303030302D303030302D30303030D0
:100930002D3030303030303030303030300A0058E8
:100940003A0020593A00205A3A0020453A00204304
:100950006F756E7420583A200020593A00205A3A98
:1009600000785F6D696E3A2000785F6D61783A209B
:1009700000795F6D696E3A2000795F6D61783A2089
:10098000007A5F6D696E3A20007A5F6D61783A2077
:10099000005A204F6666736574206F6B005A204FB3
:1009A0006666736574007A5F6D696E3A20007A5FDF
:1009B0006D61783A20005A204F6666736574203A5C
:1009C00020004368616E67652066696C616D656EC5
:1009D0007400556E6B6E6F776E20636F6D6D616E18
:1009E000643A2022002200FFFFFF00000000000008
:1009F00000000000000000000000000000000000F7
:100A0000000000002A4300003E430000AA4200000C
:100A1000A0400000A0400000004000002A43000069
:100A20003E430000AA42526573656E643A20006F2F
:100A30006B005072696E7465722068616C746564D5
:100A40002E206B696C6C28292063616C6C656421B5
:100A5000004B494C4C45442E20005072696E746521
:100A6000722073746F707065642064756520746F94
:100A7000206572726F72732E2046697820746865E3
:100A8000206572726F7220616E6420757365204DEF
:100A900039393920746F20726573746172742E2035
:100AA0002854656D70657261747572652069732074
:100AB00072657365742E20536574206974206166B5
:100AC0007465722072657374617274696E6729004F
:100AD00053544F505045442E20006563686F3A00D0
:100AE00020636F6C6420657874727573696F6E2013
:100AF00070726576656E7465640020746F6F206C2B
:100B00006F6E6720657874727573696F6E2070728E
:100B10006576656E746564007C3C3E5E2B3D3F2FC0
:100B20005B5D3B2C2A225C006563686F3A00656E52
:100B30006473746F7073206869743A200020583AA7
:100B400000656E6473746F7073206869743A20581E
:100B50000020593A00656E6473746F707320686981
:100B6000743A205900205A3A00656E6473746F70AD
:100B700073206869743A205A0024F404D9201BC4F5
:100B80000C5C0E9804C4095F0265077101F405F955
:100B900000FB04B30048048700C1036900580355F3
:100BA0000003034500BE023A008402310053022ACA
:100BB000002902250004022000E4011C00C80119DC
:100BC00000AF011700980114008401130071011097
:100BD000006101100051010E0043010D0036010BB0
:100BE000002B010B0020010B00150109000C01096D
:100BF0000003010800FB000800F3000800EB0007F9
:100C000000E4000600DE000600D8000600D2000660
:100C100000CC000500C7000500C2000500BD0004AF
:100C200000B9000400B5000400B1000400AD0004E8
:100C300000A9000400A5000300A20003009F000417
:100C4000009B00030098000300950002009300033E
:100C500000900003008D0002008B0003008800025A
:100C6000008600020084000300810002007F000271
:100C7000007D0002007B0002007900020077000185
:100C80000076000200740002007200010071000290
:100C9000006F0002006D0001006C0002006A00019C
:100CA00000690002006700010066000100650001A4
:100CB00000640002006200010061000100600001A8
:100CC000005F0002005D0001005C0001005B0001AC
:100CD000005A0001005900010058000100570001AE
:100CE00000560001005500010054000100530000AF
:100CF00000530001005200010051000100500001AA
:100D0000004F0001004E0000004E0001004D0001A8
:100D1000004C0001004B0000004B0001004A0001A4
:100D200000490001004800000048000100470001A0
:100D3000004600000046000100450000004500019B
:100D40000044000100430000004300010042000095
:100D5000004200010041000000410001004000018C
:100D6000003F0000003F0001003E0000003E000187
:100D7000003D0000003D0001003C0000003C000080
:100D8000003C0001003B0000003B0001003A000075
:100D9000003A00010039000000390001003800006D
:100DA0000038000000380001003700000037000163
:100DB000003600000036000000360001003500005B
:100DC0000035000000350001003400000034000050
:100DD0000034000100330000003300000033000144
:100DE000003200000032000000320001003100003B
:100DF0000031000000310001003000000030000030
:100E000000300001002F0000002F0000002F000024
:100E1000002F0001002E0000002E0000002E000117
:100E2000002D0000002D0000002D0000002D00010D
:100E3000002C0000002C0000002C0000002C000101
:100E4000002B0000002B0000002B0000002B0001F5
:100E5000002A0000002A0000002A0000002A0001E9
:100E600000290000002900000029000000290000DE
:100E700000290001002800000028000000280000D0
:100E800000280000002800010027000000270000C3
:100E900000270000002700000027000100260000B6
:100EA00000260000002600000026000000260001A9
:100EB000002500000025000000250000002500009E
:100EC000002500000025000100240000002400008F
:100ED0000024000000240000002400010023000082
:100EE0000023000000230000002300000023000076
:100EF0000023000000230001002200000022000067
:100F00000022000000220000002200000022000158
:100F1000002100000021000000210000002100004D
:100F2000002100000021000000210001002000003D
:100F30000020000000200000002000000020000031
:100F4000002000000020000000200001001F000021
:100F5000001F0000001F0000001F0000001F000015
:100F6000001F0000001F0001001E0000001E000006
:100F7000001E0000001E00000024F4D43050C38E78
:100F800020C2A24017828B7011127A910D816CD908
:100F90000AA861E108C7586607615143061E4B5D08
:100FA00005C145A7041A411104093D98037139315F
:100FB000034036DB0265339102D4305402802E1D8B
:100FC00002632CEE01752AC501B028A0011027810B
:100FD000018F2564012B244B01E0223401AC211F39
:100FE000018D200D01801FFC00841EED00971DDF88
:100FF00000B81CD200E61BC600201BBC00641AB25D
:1010000000B219A8000A19A0006A189900D1179116
:101010000040178B00B516840031167E00B3157999
:10102000003A157300C7146F0058146A00EE136677
:10103000008813630025135E00C7125B006C125713
:101040000015125400C111510070114F0021114BB5
:1010500000D61049008D104700461044000210428F
:1010600000C00F4000800F3E00420F3C00060F3BC7
:1010700000CB0E3800930E37005C0E3500270E347F
:1010800000F30D3200C10D3100900D3000600D2EC7
:1010900000320D2D00050D2C00D90C2B00AE0C29B3
:1010A00000850C29005C0C2700350C27000E0C264F
:1010B00000E80B2400C40B2400A00B23007D0B23AD
:1010C000005A0B2100390B2100180B2000F80A1FD1
:1010D00000D90A1E00BB0A1E009D0A1D00800A1DC1
:1010E00000630A1C00470A1B002C0A1B00110A1A85
:1010F00000F7091A00DD091900C4091900AB091924
:1011000000920917007B091800630917004C0916A3
:101110000036091600200916000A091500F5081501
:1011200000E0081400CC081400B8081400A4081447
:1011300000900813007D0812006B08130058081275
:10114000004608120034081100230811001208118B
:101150000001081100F0071000E0071000D0071090
:1011600000C0071000B0070F00A107100091070E84
:101170000083070F0074070F0065070E0057070E66
:101180000049070E003B070D002E070E0020070D3B
:101190000013070D0006070D00F9060C00ED060D03
:1011A00000E0060C00D4060C00C8060C00BC060CBF
:1011B00000B0060C00A4060B0099060C008D060B6F
:1011C0000082060B0077060B006C060B0061060A16
:1011D0000057060B004C060A0042060A0038060AB1
:1011E000002E060A0024060A001A060A0010060944
:1011F0000007060A00FD050900F4050900EB0509D2
:1012000000E2050900D9050900D0050900C7050954
:1012100000BE050900B5050800AD050800A50509D3
:10122000009C050800940508008C0508008405084A
:10123000007C050800740508006C050700650508BA
:10124000005D050700560508004E05070047050725
:10125000004005080038050700310507002A05078A
:1012600000230507001C050600160507000F0507EB
:10127000000805060002050700FB040600F5040748
:1012800000EE040600E8040600E2040700DB0406A2
:1012900000D5040600CF040600C9040600C30406F6
:1012A00000BD040600B7040600B1040500AC040646
:1012B00000A6040600A00405009B04060095040592
:1012C00000900406008A04050085040500800406D9
:1012D000007A04050075040500700405006B040520
:1012E0000066040500610405005C04050057040560
:1012F00000520405004D04050048040500430405A0
:10130000003E0404003A04050035040500300404DE
:10131000002C04050027040400230405001E040417
:10132000001A04040016040500110404000D04044E
:1013300000090405000404040000040400FC030484
:1013400000F8030400F4030400F0030400EC0304B9
:1013500000E8030400E4030400E0030400DC0304E9
:1013600000D8030400D4030400D0030400CC030419
:1013700000C8030300C50303004D53312C4D533205
:101380002050696E730A00583A2000593A20005ADA
:101390003A200045303A200045313A200020626969
:1013A00061733A200020643A2000206D696E3A2073
:1013B00000206D61783A2000204B753A20002054BF
:1013C000753A200020436C6173736963205049446F
:1013D0002000204B703A2000204B693A2000204B1F
:1013E000643A2000504944204175746F74756E65ED
:1013F000206661696C6564212054656D7065726159
:101400007475726520746F6F2068696768006F6B10
:1014100020423A006F6B20543A0020403A00504975
:1014200044204175746F74756E65206661696C65E2
:1014300064212074696D656F7574005049442041C2
:1014400075746F74756E652066696E69736865641E
:10145000212050757420746865206C617374204B72
:10146000702C204B6920616E64204B6420636F6E8A
:101470007374616E74732066726F6D2061626F7633
:101480006520696E746F20436F6E6669677572615F
:1014900074696F6E2E68004572726F723A00202D6B
:1014A00020496E76616C6964206578747275646534
:1014B00072206E756D62657220210070012C0190A2
:1014C000012701B0012201C0011D01F00118011026
:1014D00002130130020E016002090190020401C0F2
:1014E00002FF000003FA004003F5008003F000D083
:1014F00003EB002004E6007004E100E004DC00409F
:1015000005D700C005D2004006CD00D006C8008037
:1015100007C3003008BE00F008B900C009B400B02D
:101520000AAF00B00BAA00D00CA500000EA000501E
:101530000F9B00C01096005012910000148C00C048
:10154000158700B0178200B0197D00D01B7800000D
:101550001E730040206E0090226900F02464004059
:10156000275F0090295A00E02B5500102E500020D4
:10157000304B0010324600E033410090353C001003
:1015800037370070383200A0392D00B03A2800A05B
:101590003B2300603C1E00103D1900903D140010DC
:1015A0003E0F00703E0A00C03E0500003F00003ABA
:1015B0002045787472756465722073776974636806
:1015C0006564206F66662E204D415854454D50206D
:1015D0007472696767657265642021004572723AAA
:1015E000204D415854454D50003A2045787472754D
:1015F000646572207377697463686564206F6666DA
:101600002E204D494E54454D5020747269676765D0
:101610007265642021004572723A204D494E54454E
:101620004D500054656D7065726174757265206807
:1016300065617465642062656420737769746368AA
:101640006564206F66662E204D415854454D5020EC
:101650007472696767657265642021210045727242
:101660003A204D415854454D502042454400496E62
:10167000666F2073637265656E0054756E65005009
:1016800072657061726500436F6E74726F6C0050AA
:1016900061757365207072696E7400526573756D43
:1016A00065207072696E740053746F702070726977
:1016B0006E74005072696E742066726F6D205344B0
:1016C000004E6F2053442063617264004D61696E67
:1016D00000052E2E004D3233202573004D3234008C
:1016E0004D383420582059205A2045004D61696EEC
:1016F0000054656D7065726174757265004D6F742C
:10170000696F6E00526573746F7265206661696CF3
:101710007361666500436F6E74726F6C0041636342
:10172000656C00416363656C005678792D6A65725B
:101730006B005678792D6A65726B00567A2D6A6552
:10174000726B00567A2D6A65726B0056652D6A655C
:10175000726B0056652D6A65726B00566D6178205C
:101760007800566D6178207800566D617820790098
:10177000566D6178207900566D6178207A00566D3B
:101780006178207A00566D6178206500566D617829
:10179000206500566D696E00566D696E0056547274
:1017A0006176206D696E005654726176206D696EA7
:1017B00000416D6178207800416D617820780041AA
:1017C0006D6178207900416D6178207900416D610B
:1017D00078207A00416D6178207A00416D6178202F
:1017E0006500416D6178206500412D7265747261FC
:1017F000637400412D726574726163740058737470
:101800006570732F6D6D005873746570732F6D6DF7
:10181000005973746570732F6D6D00597374657022
:10182000732F6D6D005A73746570732F6D6D005A50
:1018300073746570732F6D6D004573746570732FCD
:101840006D6D004573746570732F6D6D00436F6E21
:1018500074726F6C004E6F7A7A6C65004E6F7A7A94
:101860006C6500426564004265640046616E2073E9
:10187000706565640046616E207370656564004143
:1018800075746F74656D70004F6E20004F66660052
:101890004F6E20004F6666002002204D696E0020CA
:1018A00002204D696E002002204D61780020022048
:1018B0004D617800200220466163740020022046BA
:1018C000616374005049442D50005049442D50002C
:1018D0005049442D49005049442D49005049442D58
:1018E00044005049442D44005049442D4300504980
:1018F000442D43005072656865617420504C41204E
:10190000636F6E6600507265686561742041425372
:1019100020636F6E660054656D70657261747572D8
:10192000650046616E2073706565640046616E20D7
:101930007370656564004E6F7A7A6C65004E6F7ADD
:101940007A6C6500426564004265640054656D70A0
:10195000657261747572650046616E2073706565AD
:10196000640046616E207370656564004E6F7A7A1C
:101970006C65004E6F7A7A6C650042656400426562
:1019800064004D61696E0044697361626C65207327
:1019900074657070657273004D3834004175746FF2
:1019A00020686F6D65004732380050726568656168
:1019B0007420504C4100507265686561742041424A
:1019C0005300436F6F6C646F776E00537769746375
:1019D0006820706F776572206F6666004D38310041
:1019E00053776974636820706F776572206F6E003B
:1019F0004D3830004D6F7665206178697300507204
:101A00006570617265004D6F76652031306D6D00D7
:101A10004D6F766520316D6D004D6F766520302EEF
:101A2000316D6D004D6F76652061786973004D6F83
:101A300076652058004D6F76652059004D6F7665AC
:101A4000205A004578747275646572004578747226
:101A500075646572005A00590058005072657061D3
:101A6000726500507265686561742041425320318F
:101A7000005072656865617420414253204265647C
:101A800000507265706172650050726568656174BE
:101A900020504C41203100507265686561742050BF
:101AA0004C4120426564004D61696E00537065656C
:101AB00064005370656564004E6F7A7A6C65004E01
:101AC0006F7A7A6C65004265640042656400466125
:101AD0006E2073706565640046616E207370656585
:101AE0006400466C6F7700466C6F7700466C6F77CA
:101AF000203000466C6F772030004368616E676568
:101B00002066696C616D656E74004D363030000181
:101B100020000120002059005344002D2D2D002DC0
:101B20002D3A2D2D004361726420696E73657274C5
:101B3000656400436172642072656D6F7665640050
:101B40000000090A02080B0C0D070603040100003F
:101B50000000000000000000000000000000000085
:101B600000000000000000000000000011100F0045
:101B70000000000000000000000000000000000065
:101B80000000000000000102102020080810204082
:101B90001020408002010201080402010102040831
:101BA00010204080804020100804020180040201BF
:101BB0008040201008040201080402010102040808
:101BC0001020408001020408102040800505050512
:101BD000070508080808020202020A0A08080404A5
:101BE00004040101010101010101030303030303D3
:101BF0000303040707070C0C0C0C0C0C0C0C020262
:101C0000020206060606060606060B0B0B0B0B0B5E
:101C10000B0B000020002300260029002C002F00C1
:101C2000320000010000030106010901000022004A
:101C3000250028002B002E00310034000201000096
:101C4000050108010B0100002100240027002A00E3
:101C50002D003000330001010000040107010A01DA
:101C600002494E46494E4954594E414E00002041CA
:101C70000000C84200401C4620BCBE4CCA1B0E5A85
:101C8000AEC59D74CDCCCC3D0AD7233C17B7D13817
:101C900077CC2B329595E6241FB14F0A8D427BB449
:101CA000914211241FBECFEFD1E2DEBFCDBF00E0D5
:101CB0000CBF14E0A0E0B2E0E6E7F1E901E00BBF01
:101CC00002C007900D92AA39B107D9F712E1AAE92B
:101CD000B4E001C01D92A535B107E1F71CE1C0EAEF
:101CE000DCE100E006C022970109FE010BBF0E9463
:101CF000A5C8CC39D10780E00807A9F70E9486B7AC
:101D00000C940DC00C940000FC0114821782138205
:101D100012828DE394E09183808308952DE334E073
:101D2000FC01318320832781222319F004960C942F
:101D300088600895CF92DF92EF92FF920F931F93E6
:101D4000CF93DF93EC018F960E94840ECE01805BCF
:101D50009F4F0E94840E7E012FE6E20EF11C870148
:101D60006E013BE5C31A3EEFD30AC8010E94840E00
:101D7000015E1F4F0C151D05C1F7FE01E955FE4F11
:101D800089E181831482FE01E455FE4F178ACE015A
:101D900086539E4F0E94840EFE01E558FD4F10822F
:101DA000118212821382FE01ED57FD4F10821182C3
:101DB000128213821A821B82188219828E010158A4
:101DC0001D4FF8011082118212821382FE01EB5521
:101DD000FE4F11821082FE01E751FE4F108286E312
:101DE00091E0F7019C01119221503040E1F7FE0192
:101DF000E957FD4F81E080831EA61DA60E94B4B561
:101E000068577C4E8F4F9F4FF801608371838283A8
:101E10009383DF91CF911F910F91FF90EF90DF900F
:101E2000CF900895DB01FC0120E03EE24C9140326E
:101E300029F0283009F431934C9141932F5F11968A
:101E40002B30A1F7108208952F923F924F925F920C
:101E50006F927F928F929F92AF92BF92CF92DF92BA
:101E6000EF92FF920F931F93CF93DF93CDB7DEB71F
:101E7000C758D1090FB6F894DEBF0FBECDBF8C0195
:101E80006B017A01312C84E0E80EF11C2801E1E1BC
:101E90004E0E511C5801F8E7AF1AFDEFBF0A48017A
:101EA00086E7881A8DEF980A80E4682E712C6C0EF4
:101EB0007D1EE4E06E0E711CEFE2F1E0249017C18C
:101EC0002C85322F3871303109F02CC1F501808119
:101ED00091818130910509F425C1029709F012C161
:101EE00021C16CEF72E0CE01815A9F4F0E9487C0E2
:101EF000B601CE01815A9F4F0E9487C0BE0167582C
:101F00007F4FCE01815A9F4F0E9487C06CEF72E0D5
:101F1000CE01815A9F4F0E9487C0CE01805C9F4FA7
:101F20000E94840E21E0AE0147585F4FB701C30104
:101F30000E94AF6281113AC0F50180819181892BA5
:101F4000A9F5822DEFE2F1E008C09091C00095FF65
:101F5000FCCF8093C600319684918111F6CFEEEFCD
:101F6000F2E006C09091C00095FFFCCF8093C600C0
:101F700081918111F7CF8091C00085FFFCCF8AE06D
:101F80008093C600FE01E758FF4F06C09091C00045
:101F900095FFFCCF8093C60081918111F7CF80918E
:101FA000C00085FFFCCF8AE08093C6008BE1FE0174
:101FB000EC5BFF4FDE01959601900D928A95E1F75B
:101FC00024968EAD9FAD24979CA38BA38DE394E0C4
:101FD0009AA389A3AE014F5D5F4FBE01615A7F4F47
:101FE000C8010E94240FCE0181960E948E0ECE0160
:101FF000805C9F4F0E948E0E7AC0853E09F477C0A8
:102000008E3209F474C08F3509F471C0F8018189EA
:10201000882331F08E3209F46AC08F3509F467C025
:1020200023FD65C081E0303109F080E0F80184A72C
:10203000811108C08985873409F059C08A858E3797
:1020400009F455C098012C5F3F4FBE016F5F7F4F71
:10205000C901CA57DF4F2883C658D040C957DF4F40
:102060003883C758D0400E94120FF50180819181BA
:10207000CA57DF4F2881C658D040C957DF4F388133
:10208000C758D0400097F1F4F60106C09091C00007
:1020900095FFFCCF8093C60081918111F7CFF901A4
:1020A00006C09091C00095FFFCCF8093C60081913F
:1020B0008111F7CF8091C00085FFFCCF8AE080932B
:1020C000C60015C08130910539F4F40180819181F9
:1020D0000196918380830BC0029749F4232D30E051
:1020E000F4018081918128173907F9F03394A20116
:1020F000BE016F5F7F4FC7010E94DD5E18160CF4B2
:10210000DFCE13C0BE016F5F7F4FCE0187589F4F58
:102110000E94120FA0961FAEA097F6018081811138
:10212000E7CEDFCE8981811168CFC957DF4F0FB667
:10213000F894DEBF0FBECDBFDF91CF911F910F91FD
:10214000FF90EF90DF90CF90BF90AF909F908F90D7
:102150007F906F905F904F903F902F900895EF92F7
:10216000FF920F931F93CF93DF93CDB7DEB76F9797
:102170000FB6F894DEBF0FBECDBF8C01FC01E8574F
:10218000FD4F118210827C0183E3E80EF11C40E0D8
:1021900050E0BA01C7010E94A15F8BE1F701DE01A7
:1021A000159601900D928A95E1F7F80181A992A9FF
:1021B0009C838B838DE394E09A838983AE014F5F88
:1021C0005F4F64E574E0C8010E94240FCE010196C0
:1021D0000E948E0E6F960FB6F894DEBF0FBECDBF75
:1021E000DF91CF911F910F91FF90EF900895CF93C2
:1021F000DF93EC018BE1FB013496DE011496019034
:102200000D928A95E1F7FB01828193819B838A83FA
:10221000CE01DF91CF910895EF92FF920F931F931C
:10222000CF93DF93EC011B828EA9882321F0CE018E
:10223000C3960E9488607E0189E5E81A8EEFF80A4D
:1022400045E360E0C7010E94B45A81111FC0EFE26C
:10225000F1E007C09091C00095FFFCCF8093C600CD
:10226000319684918111F6CFE5E3F1E007C09091BA
:10227000C00095FFFCCF8093C600319684918111F8
:10228000F6CF8091C00085FFFCCF76C08E0104554B
:102290001E4F41E0B701C8010E94AF68811126C0FE
:1022A00040E0B701C8010E94AF6881111FC0E2E49D
:1022B000F1E007C09091C00095FFFCCF8093C6006D
:1022C000319684918111F6CFE9E4F1E007C0909155
:1022D000C00095FFFCCF8093C60031968491811198
:1022E000F6CF8091C00085FFFCCF46C0B801CE017B
:1022F000C3960E94405D81111FC0E2E4F1E007C077
:102300009091C00095FFFCCF8093C60031968491D8
:102310008111F6CFECE5F1E007C09091C00095FF88
:10232000FCCF8093C600319684918111F6CF8091C5
:10233000C00085FFFCCF20C081E08B83EFE2F1E09D
:1023400007C09091C00095FFFCCF8093C6003196E6
:1023500084918111F6CFECE6F1E007C09091C000C6
:1023600095FFFCCF8093C600319684918111F6CF02
:102370008091C00085FFFCCF8AE08093C6008E016B
:10238000015D1F4FB801CE01805B9F4F0E94F71087
:10239000C25BDF4F19830883DF91CF911F910F91AB
:1023A000FF90EF900895FC01128213820895FC01C2
:1023B0002381222311F021E022830895FC01228150
:1023C000211112820895AF92BF92CF92DF92EF92C5
:1023D000FF920F931F93CF93DF931F92CDB7DEB77A
:1023E0008C018FE2FB0181935F01D12C41E07801E8
:1023F000FBE5EF1AFEEFFF0A9FE1C92E1AC0C29E4D
:10240000C001C39E900D11248D589F4FB501800FC0
:10241000911F49830E94E05CC50149815C010196DE
:10242000F5012081211102C0D39403C04D38F8F08A
:10243000FBCF2D2D30E0F7018081918128173907DE
:10244000F0F247FD11C0B501C80182539E4F0F90B5
:10245000DF91CF911F910F91FF90EF90DF90CF9080
:10246000BF90AF900C94E05CF501108202C04F5F0A
:10247000D5CF0F90DF91CF911F910F91FF90EF90EB
:10248000DF90CF90BF90AF9008952F923F924F92E0
:102490005F926F927F928F929F92AF92BF92CF92F4
:1024A000DF92EF92FF920F931F93CF93DF93CDB7FD
:1024B000DEB7AC970FB6F894DEBF0FBECDBF8C0170
:1024C0007B01542EDC0113968C91882309F4EEC213
:1024D000F801EF52FE4F8081882309F4FDC02111DD
:1024E000C9C0F801E751FE4F8081882361F1E2E421
:1024F000F1E007C09091C00095FFFCCF8093C6002B
:10250000319684918111F6CFE7E7F1E007C0909111
:10251000C00095FFFCCF8093C60031968491811155
:10252000F6CF4AE050E061E070E085E399E00E9478
:10253000EF438091C00085FFFCCF8AE08093C60006
:102540000E94692AB3C2EFE2F1E007C09091C00097
:1025500095FFFCCF8093C600319684918111F6CF10
:10256000EAEBF1E007C09091C00095FFFCCF8093AB
:10257000C600319684918111F6CFF70106C0909183
:10258000C00095FFFCCF8093C60081918111F7CFE9
:10259000E3EDF1E007C09091C00095FFFCCF809380
:1025A000C600319684918111F6CF6801B7E1CB1A4C
:1025B000BEEFDB0AF60180816DE8B62EB801B89E49
:1025C000600D711D112462517E4FC8010E94E311FC
:1025D000D6018C91F801B89EE00DF11D1124E25155
:1025E000FE4F06C09091C00095FFFCCF8093C600BF
:1025F00081918111F7CFEEEDF1E007C09091C0001D
:1026000095FFFCCF8093C600319684918111F6CF5F
:10261000F801ED57FD4F40815181628173812AE0BD
:1026200030E085E399E00E94CB438091C00085FFB4
:10263000FCCF8AE08093C600B80167517E4FFB0152
:1026400040819801F4E04F9F200D311D1124265147
:102650003E4FD801AD57BD4F8D919D910D90BC91CE
:10266000A02DF90180839183A283B3834F5FDB01A7
:102670004C932CC0EFE2F1E007C09091C00095FFB1
:10268000FCCF8093C600319684918111F6CFE4EEA1
:10269000F1E007C09091C00095FFFCCF8093C60089
:1026A000319684918111F6CFF70106C09091C00058
:1026B00095FFFCCF8093C60081918111F7CF809167
:1026C000C00085FFFCCF8AE08093C600C80182531A
:1026D0009E4F0E94886030C0F801E751FE4F108283
:1026E000EFE2F1E007C09091C00095FFFCCF80932E
:1026F000C600319684918111F6CFE5EFF1E007C075
:102700009091C00095FFFCCF8093C60031968491D4
:102710008111F6CFF70106C09091C00095FFFCCF64
:102720008093C60081918111F7CF8091C00085FF11
:10273000FCCF8AE08093C600F8011282AA24A394F9
:10274000B12CAC0EBD1EC5010E94840E4801FEE4F2
:102750008F0E911CC8018F96D4018D939C93F70125
:1027600080818F3209F08CC06FE270E0C7010E9457
:1027700092C001966C014AE0242E3A2C4B2C7BC06F
:102780006FE270E0C6010E9492C05C01009709F4FC
:102790007FC0C816D90608F07BC03C016C187D08C4
:1027A000A301B601CE0180960E94B2C0E0E2F0E043
:1027B000EC0FFD1FE60DF71D108230E2C32ED12C69
:1027C000CC0EDD1EF60106C09091C00095FFFCCF37
:1027D0008093C60081918111F7CF8091C00085FF61
:1027E000FCCF2092C600D4016D917C9161157105DA
:1027F00019F06C5F7F4F02C060E070E021E0AE0135
:10280000405E5F4FCE0105960E94AF6281112BC0E2
:10281000E6E0F2E007C09091C00095FFFCCF809306
:10282000C600319684918111F6CF06C09091C00008
:1028300095FFFCCF8093C600F60181916F01811155
:10284000F5CFEAE1F2E007C09091C00095FFFCCF20
:102850008093C600319684918111F6CF8091C0009B
:1028600085FFFCCFF6C0D4013C9211964C926501D5
:10287000BFEFCB1ADB0AC114D10409F081CF06C027
:10288000C801805B9F4FF40191838083570101C091
:1028900056012EECC22EDD24D394C00ED11EF801B9
:1028A000E25BFF4F60817181552009F49AC0611588
:1028B000710519F06C5F7F4F02C060E070E021E0AD
:1028C000A501C6010E94AF62882309F460C0F80127
:1028D000E558FD4FD6015196CD90DD90ED90FC90DE
:1028E0005497C082D182E282F382ECE1F2E007C029
:1028F0009091C00095FFFCCF8093C60031968491E3
:102900008111F6CFF50106C09091C00095FFFCCF74
:102910008093C60081918111F7CFEAE2F2E007C00F
:102920009091C00095FFFCCF8093C60031968491B2
:102930008111F6CFF801E558FD4F40815181628148
:1029400073812AE030E085E399E00E94CB438091D7
:10295000C00085FFFCCF8AE08093C600F801ED57E8
:10296000FD4F1082118212821382E2E3F2E007C06F
:102970009091C00095FFFCCF8093C6003196849162
:102980008111F6CF8091C00085FFFCCF85C0E0E4C7
:10299000F2E007C09091C00095FFFCCF8093C60085
:1029A000319684918111F6CFF50106C09091C00057
:1029B00095FFFCCF8093C60081918111F7CFE4E5AC
:1029C000F2E007C09091C00095FFFCCF8093C60055
:1029D000319684918111F6CF8091C00085FFFCCFA4
:1029E00038C06115710519F06C5F7F4F02C060E05F
:1029F00070E026E5A501C6010E94AF6281112DC0DD
:102A0000E6E5F2E007C09091C00095FFFCCF80930F
:102A1000C600319684918111F6CFF50106C09091E0
:102A2000C00095FFFCCF8093C60081918111F7CF44
:102A3000EAE6F2E007C09091C00095FFFCCF8093DA
:102A4000C600319684918111F6CF8091C00085FF38
:102A5000FCCF8AE08093C60025C081E0F801808326
:102A6000ECE6F2E007C09091C00095FFFCCF8093A8
:102A7000C600319684918111F6CFF70106C090917E
:102A8000C00095FFFCCF8093C60081918111F7CFE4
:102A90008091C00085FFFCCF8AE08093C600C5010D
:102AA0000E941194CE0101960E948E0EAC960FB634
:102AB000F894DEBF0FBECDBFDF91CF911F910F9174
:102AC000FF90EF90DF90CF90BF90AF909F908F904E
:102AD0007F906F905F904F903F902F90089521E0EE
:102AE000FC01218340E00C9445123F924F925F928B
:102AF0006F927F928F929F92AF92BF92CF92DF920E
:102B0000EF92FF920F931F93CF93DF93CDB7DEB772
:102B1000AC970FB6F894DEBF0FBECDBF7C016B0142
:102B2000FC018381882309F40DC1C70182539E4FA4
:102B30000E948860F7011282AA24A394B12CAC0EE3
:102B4000BD1EC5010E94840E4701FEE48F0E911C3C
:102B5000C7018F96F40191838083F60180818F32C3
:102B600009F089C06FE270E0C6010E9492C08C013A
:102B70000F5F1F4F7AE0372E5A2C4B2C77C06FE235
:102B800070E0C8010E9492C05C01009709F47AC00D
:102B90000817190708F076C03C01601A710AA301F2
:102BA000B801CE0180960E94B2C0E0E2F0E0EC0FE6
:102BB000FD1FE60DF71D10828E01005E1F4FF8010C
:102BC00006C09091C00095FFFCCF8093C600819114
:102BD0008111F7CF8091C00085FFFCCF3092C600F5
:102BE000F401608171816115710519F06C5F7F4F8F
:102BF00002C060E070E021E0AE01405E5F4FCE01B8
:102C000005960E94AF6281112BC0EEE7F2E007C08B
:102C10009091C00095FFFCCF8093C60031968491BF
:102C20008111F6CF06C09091C00095FFFCCF809334
:102C3000C600F80181918F018111F5CFE2E9F2E040
:102C400007C09091C00095FFFCCF8093C6003196DD
:102C500084918111F6CF8091C00085FFFCCF6BC0BD
:102C6000F4015082418285010F5F1F4F011511054C
:102C700009F085CF06C0C701805B9F4FF4019183A7
:102C800080838601F701E25BFF4F8081918100978D
:102C900011F0049602C080E090E0B8010E946F63DA
:102CA000882301F1E4E9F2E007C09091C00095FFAC
:102CB000FCCF8093C600319684918111F6CFF80144
:102CC00006C09091C00095FFFCCF8093C600819113
:102CD0008111F7CFF701ED57FD4F1082118212825B
:102CE00013822CC0E2EAF2E007C09091C00095FF89
:102CF000FCCF8093C600319684918111F6CFF80104
:102D000006C09091C00095FFFCCF8093C6008191D2
:102D10008111F7CFEAEBF2E007C09091C00095FF78
:102D2000FCCF8093C600319684918111F6CF8091BB
:102D3000C00085FFFCCF8AE08093C600CE010196DB
:102D40000E948E0EAC960FB6F894DEBF0FBECDBFBC
:102D5000DF91CF911F910F91FF90EF90DF90CF9077
:102D6000BF90AF909F908F907F906F905F904F90AB
:102D70003F900895CF93DF93EC018B818823C1F1BD
:102D8000ECEBF2E007C09091C00095FFFCCF809380
:102D9000C600319684918111F6CFFE01ED57FD4FAB
:102DA00040815181628173812AE030E085E399E0BE
:102DB0000E94CB43EEECF2E007C09091C00095FF7B
:102DC000FCCF8093C600319684918111F6CFC5580F
:102DD000DD4F488159816A817B812AE030E085E3BB
:102DE00099E00E94CB438091C00085FFFCCF11C0C9
:102DF000E0EDF2E007C09091C00095FFFCCF80931A
:102E0000C600319684918111F6CF8091C00085FF74
:102E1000FCCF8AE08093C600DF91CF910895CF92D6
:102E2000DF92EF92FF920F931F93CF93DF937C017A
:102E3000EB01EC2FFD2FDF010D900020E9F78D0154
:102E4000015011090E1B1F0BF701E253FE4F1082B8
:102E50006EE470E0CE010E9492C06C01009729F4EC
:102E6000F8013197EC0FFD1F0DC060E270E00E9489
:102E700092C0EC0121966AE270E0C6010E9492C005
:102E8000FC0131978DE081838AE082831382BE0149
:102E9000C70186539E4F0E944665F701E253FE4FDD
:102EA0008081882309F1E2E4F1E007C09091C0003D
:102EB00095FFFCCF8093C600319684918111F6CFA7
:102EC000E0EEF2E007C09091C00095FFFCCF809348
:102ED000C600319684918111F6CF8091C00085FFA4
:102EE000FCCF8AE08093C600DF91CF911F910F91B4
:102EF000FF90EF90DF90CF9008953F924F925F92B6
:102F00006F927F928F929F92AF92BF92CF92DF92F9
:102F1000EF92FF920F931F93CF93DF93CDB7DEB75E
:102F2000CC55D1090FB6F894DEBF0FBECDBF8C01D2
:102F3000662349F0F801E957FD4F1082F8018381BB
:102F4000811118C031C0FC01E957FD4F80818823F1
:102F500009F4AFC0F801E158FD4FC080D180E28094
:102F6000F3800E94B4B5C616D706E806F90608F441
:102F7000A0C0E0CFF80186A58F9385A58F9386EF3B
:102F800092E09F938F937E01FFE3EF0EF11CFF927F
:102F9000EF920E94C1C00F900F900F900F900F9072
:102FA0000F906701570112C0C8010E940C11F8016F
:102FB00083818111DFCF7DC0F6018081992787FD54
:102FC00090950E9418C0F60181936F01F501019060
:102FD0000020E9F73197EA19FB098C2D8E198E171D
:102FE0005CF34801F3E38F0E911C40E050E0BA011E
:102FF000C4010E94A15F312CEE24E394F12CEC0E6D
:10300000FD1E6E018FE3C80ED11CAFEF6A2EA2E049
:103010007A2E5E01E1E2AE0EB11C35C0F201808174
:1030200090E00E9418C0F20181932F01F7010190F6
:103030000020E9F73197EE19FF09842D8E198E17BC
:103040006CF38A858E37F9F045E050E0B601C70190
:103050000E94A4C00097B9F4DF92CF927F926F9242
:10306000BF92AF920E94C1C0C5010E94C02086E0FD
:1030700093E00E9433210F900F900F900F900F90CC
:103080000F903324339440E050E0B701C4010E9414
:10309000DD5E181614F42701C9CF311004C08FEF7C
:1030A0009FEFF80104C0F80185A596A5019696A7A3
:1030B00085A7C45ADF4F0FB6F894DEBF0FBECDBF51
:1030C000DF91CF911F910F91FF90EF90DF90CF9004
:1030D000BF90AF909F908F907F906F905F904F9038
:1030E0003F9008950F931F93CF93DF93EC018C01D2
:1030F00002531E4FC8010E943C60C8010E948860B4
:1031000018821982DF91CF911F910F910895EF924C
:10311000FF920F931F93CF93DF93CDB7DEB76F97D7
:103120000FB6F894DEBF0FBECDBF8C017C018EE4DC
:10313000E80EF11CC801805B9F4FF70191838083EB
:10314000F801E857FD4F22E030E031832083F80199
:10315000E657FD4F6083118240E050E0BA010496CB
:103160000E94A15FF701808191812BE1FC013496DF
:10317000DE01159601900D922A95E1F7FC018281FE
:1031800093819C838B838DE394E09A838983AE0142
:103190004F5F5F4F64E574E0C8010E94240FCE01C9
:1031A00001960E948E0E6F960FB6F894DEBF0FBE8A
:1031B000CDBFDF91CF911F910F91FF90EF900895B8
:1031C000CF92DF92EF92FF920F931F93CF93DF93F3
:1031D000CDB7DEB76F970FB6F894DEBF0FBECDBF89
:1031E0008C016C012EE4C20ED11C805B9F4FF60156
:1031F00091838083F801E857FD4F21E030E031836F
:1032000020837801F6E7EF1AFDEFFF0AF70111823C
:10321000108240E050E0BA0104960E94A15FF601DE
:10322000808191812BE1FC013496DE01159601909D
:103230000D922A95E1F7FC01828193819C838B8317
:103240008DE394E09A838983AE014F5F5F4F64E51D
:1032500074E0C8010E94240FCE0101960E948E0ED8
:10326000F701808191816F960FB6F894DEBF0FBE93
:10327000CDBFDF91CF911F910F91FF90EF90DF9025
:10328000CF900895BF92CF92DF92EF92FF920F936B
:103290001F93CF93DF93CDB7DEB76F970FB6F89438
:1032A000DEBF0FBECDBF8C017B01CE0101960E9417
:1032B000840EF801E95AFF4F80816801811104C032
:1032C0008FE2C80ED11C03C080E5C80ED11CB60128
:1032D0006C5F7F4F21E0A701CE0105960E94AF628F
:1032E00081112DC0EFE2F1E007C09091C00095FF81
:1032F000FCCF8093C600319684918111F6CFEAE02D
:10330000F3E007C09091C00095FFFCCF8093C6000A
:10331000319684918111F6CFF70106C09091C000DB
:1033200095FFFCCF8093C60081918111F7CF8091EA
:10333000C00085FFFCCF8AE08093C6003CC0F80146
:10334000EB55FE4FE080F1808AE0E816F10458F575
:10335000C701019691838083BFE1BB2E17C0BE9C3D
:10336000B001BF9C700D112461597F4F600F711F18
:10337000B29EC001B39E900D112481599F4F800FC2
:10338000911F0E94F71081E0E81AF10897012F5F62
:103390003F4F8FEFE816F80611F7B601C8018159C3
:1033A0009F4F0E94F710BE016F5F7F4FC801805B87
:1033B0009F4F0E94F710CE0101960E948E0E6F96CD
:1033C0000FB6F894DEBF0FBECDBFDF91CF911F9136
:1033D0000F91FF90EF90DF90CF90BF900895DF9214
:1033E000EF92FF920F931F93CF93DF93EC018C0129
:1033F0000B551E4FF80180819181009779F101975B
:1034000091838083BE0161597F4FCE01805B9F4FC6
:103410000E94F71020E030E08FE1D82E19C079012A
:10342000FFEFEF1AFF0ADE9CB001DF9C700D112444
:1034300061597F4F6C0F7D1FD29EC001D39E900DAE
:10344000112481599F4F8C0F9D1F0E94F7109701E7
:10345000F801808191812817390708F3DF91CF9116
:103460001F910F91FF90EF90DF900895EF92FF92E0
:103470000F931F93CF93DF93EC010E94A6718E01EF
:1034800007511E4FF80180812EECE22EFF24F394A9
:10349000EC0EFD1E8823A9F1C7010E948860F80187
:1034A000808181508083BE01FDE88F9F600D711D7A
:1034B000112462517E4F21E041E0CE010E9445126D
:1034C000F8018081FE0194E0899FE00DF11D112437
:1034D000E651FE4F4081518162817381FE01ED57BB
:1034E000FD4F4083518362837383C7010E94A15FB4
:1034F000CE01DF91CF911F910F91FF90EF900C942F
:10350000D7110E942272C7010E9488601A8280E24D
:1035100093E00E94332180918C0E8823F9F0109261
:103520008C0EC091A604D0E0CC0FDD1FC358DE4E38
:1035300068817981882777FD8095982F0E946EC2D7
:103540002091390230913A0240913B0250913C0265
:103550000E94CFC3181614F419821882DF91CF91FC
:103560001F910F91FF90EF900895CF93DF93CCE2DE
:10357000D3E0FE0107C09091C00095FFFCCF80937F
:10358000C600319684918111F6CFE2E3F3E007C0E3
:103590009091C00095FFFCCF8093C6003196849136
:1035A0008111F6CF8091C00085FFFCCF8AE0809327
:1035B000C600FE018491ECE2F3E008C09091C000E7
:1035C00095FFFCCF8093C600319684918111F6CF90
:1035D0004091D90E5091DA0E6091DB0E7091DC0EA5
:1035E00082E493E00E947F204091DD0E5091DE0E38
:1035F0006091DF0E7091E00E8AE493E00E947F20DC
:103600004091E10E5091E20E6091E30E7091E40E54
:103610008DE493E00E947F204091E50E5091E60EEC
:103620006091E70E7091E80E80E593E00E947F20A4
:103630008091C00085FFFCCF8AE08093C600FE0128
:103640008491ECE2F3E008C09091C00095FFFCCFBC
:103650008093C600319684918111F6CFE3E5F3E0C3
:1036600007C09091C00095FFFCCF8093C6003196B3
:1036700084918111F6CF8091C00085FFFCCF8AE054
:103680008093C600FE018491ECE2F3E008C09091C3
:10369000C00095FFFCCF8093C600319684918111C4
:1036A000F6CF4091E90E5091EA0E6091EB0E7091C9
:1036B000EC0E8DE693E00E947F204091ED0E50913C
:1036C000EE0E6091EF0E7091F00E86E793E00E948F
:1036D0007F204091F10E5091F20E6091F30E7091A7
:1036E000F40E89E793E00E947F204091F50E5091FF
:1036F000F60E6091F70E7091F80E8CE793E00E9441
:103700007F208091C00085FFFCCF8AE08093C600B7
:10371000FE018491ECE2F3E008C09091C00095FFB7
:10372000FCCF8093C600319684918111F6CFEFE7EC
:10373000F3E007C09091C00095FFFCCF8093C600D6
:10374000319684918111F6CF8091C00085FFFCCF26
:103750008AE08093C600FE018491ECE2F3E008C0A9
:103760009091C00095FFFCCF8093C6003196849164
:103770008111F6CF4091C90E5091CA0E6091CB0EC7
:103780007091CC0E8DE993E00E9491204091CD0E76
:103790005091CE0E6091CF0E7091D00E86EA93E0DC
:1037A0000E9491204091D10E5091D20E6091D30E83
:1037B0007091D40E89EA93E00E9491204091D50E39
:1037C0005091D60E6091D70E7091D80E8CEA93E08E
:1037D0000E9491208091C00085FFFCCF8AE08093F9
:1037E000C600FE018491ECE2F3E008C09091C000B5
:1037F00095FFFCCF8093C600319684918111F6CF5E
:10380000EFEAF3E007C09091C00095FFFCCF8093F2
:10381000C600319684918111F6CF8091C00085FF5A
:10382000FCCF8AE08093C600FE018491ECE2F3E0D5
:1038300008C09091C00095FFFCCF8093C6003196E0
:1038400084918111F6CF4091C10E5091C20E6091CA
:10385000C30E7091C40E84EE93E00E947F204091CD
:10386000BD0E5091BE0E6091BF0E7091C00E8DEED8
:1038700093E00E947F208091C00085FFFCCF8AE00A
:103880008093C600FE018491ECE2F3E008C09091C1
:10389000C00095FFFCCF8093C600319684918111C2
:1038A000F6CFE0EFF3E007C09091C00095FFFCCFAA
:1038B0008093C600319684918111F6CF8091C0002B
:1038C00085FFFCCF8AE08093C600FE018491ECE284
:1038D000F3E008C09091C00095FFFCCF8093C60034
:1038E000319684918111F6CF4091C50E5091C60E4C
:1038F0006091C70E7091C80E83EA94E00E947F2009
:103900004091AD0E5091AE0E6091AF0E7091B00E21
:103910008CEA94E00E947F204091F90E5091FA0EBB
:103920006091FB0E7091FC0E8FEA94E00E94912052
:103930004091B90E5091BA0E6091BB0E7091BC0EC1
:1039400082EB94E00E947F204091B50E5091B60E1C
:103950006091B70E7091B80E85EB94E00E947F20C5
:103960004091B10E5091B20E6091B30E7091B40EB1
:1039700088EB94E00E947F208091C00085FFFCCFFF
:103980008AE08093C600FE018491ECE2F3E008C077
:103990009091C00095FFFCCF8093C6003196849132
:1039A0008111F6CFEBEBF4E007C09091C00095FFDA
:1039B000FCCF8093C600319684918111F6CF80911F
:1039C000C00085FFFCCF8AE08093C600FE01849191
:1039D000ECE2F3E008C09091C00095FFFCCF80932B
:1039E000C600319684918111F6CF4091BA0450916E
:1039F000BB046091BC047091BD048DEC94E00E9406
:103A00007F204091BE045091BF046091C00470912A
:103A1000C10486ED94E00E947F204091C204509141
:103A2000C3046091C4047091C50489ED94E00E94C0
:103A30007F208091C00085FFFCCF8AE08093C60084
:103A4000FE018491ECE2F3E008C09091C00095FF84
:103A5000FCCF8093C600319684918111F6CFECEDB6
:103A6000F4E007C09091C00095FFFCCF8093C600A2
:103A7000319684918111F6CF8091C00085FFFCCFF3
:103A80008AE08093C600FE01C491ECE2F3E008C036
:103A90008091C00085FFFCCFC093C6003196C491D1
:103AA000C111F6CF409152025091530260915402DD
:103AB000709155028AEE94E00E947F2060914E0240
:103AC00070914F0280915002909151020E941A8091
:103AD000AB01BC0184EF94E00E947F2060914A0218
:103AE00070914B0280914C0290914D020E9428806F
:103AF000AB01BC0187EF94E00E947F208091C00061
:103B000085FFFCCF8AE08093C600DF91CF910895B6
:103B1000AF92BF92CF92DF92EF92FF920F931F93DB
:103B2000CF93DF93CDB7DEB7E0970FB6F894DEBF43
:103B30000FBECDBF80E1E5E7F2E0DE019196019096
:103B40000D928A95E1F780E1E5E8F2E0DE01519619
:103B500001900D928A95E1F780E1E5E9F2E0DE015E
:103B6000119601900D928A95E1F76E0181E2C80EDF
:103B7000D11C89EDE82E8EE0F82E8E010F5E1F4FCE
:103B800069EE7EE0AE014F5F5F4F99ECA92E9EE09B
:103B9000B92E20E030E0F60181919191A191B1918F
:103BA0006F01F70181939193A193B1937F01F80184
:103BB00081919191A191B1918F01FB018193919399
:103BC000A193B193BF01FA0181919191A191B1911A
:103BD000AF01F50181939193A193B1935F012F5FA1
:103BE0003F4F24303105B9F60E94435980E090E8F8
:103BF000ABE3B5E48093C10E9093C20EA093C30EC5
:103C0000B093C40E8093BD0E9093BE0EA093BF0ED2
:103C1000B093C00E1092C50E1092C60E1092C70E31
:103C20001092C80E80E29EE4A0E0B0E08093F90E0E
:103C30009093FA0EA093FB0EB093FC0E1092AD0E73
:103C40001092AE0E1092AF0E1092B00E80E090E087
:103C5000A0EAB1E48093B90E9093BA0EA093BB0E84
:103C6000B093BC0E8DEC9CECACECBEE38093B50E37
:103C70009093B60EA093B70EB093B80E80E090E08C
:103C8000A0EAB0E48093B10E9093B20EA093B30E6D
:103C9000B093B40E1092C2041092C3041092C404E4
:103CA0001092C5041092BE041092BF041092C0047A
:103CB0001092C1041092BA041092BB041092BC047A
:103CC0001092BD0484EB90E090931612809315122D
:103CD00086E490E090931412809313128FEF90E09B
:103CE000909312128093111220EF30E03093101253
:103CF00020930F1224E630E030930E1220930D1221
:103D000090930C1280930B128AE999E9A1EBB1E42C
:103D10008093520290935302A0935402B0935502A1
:103D200061E77DE38AE89FE30E94138060934E027F
:103D300070934F02809350029093510260E070E0C4
:103D400084EE92E40E94218060934A0270934B02B9
:103D500080934C0290934D020E94257680E090E083
:103D6000A0E8BFE38093460290934702A0934802E5
:103D7000B0934902ECE2F3E007C09091C00095FFD8
:103D8000FCCF8093C600319684918111F6CFEAEF83
:103D9000F4E007C09091C00095FFFCCF8093C6006F
:103DA000319684918111F6CF8091C00085FFFCCFC0
:103DB0008AE08093C600E0960FB6F894DEBF0FBE8F
:103DC000CDBFDF91CF911F910F91FF90EF90DF90CA
:103DD000CF90BF90AF900895FC01459155916591AA
:103DE0007491E52F362F272F642F7E2F832F922F4C
:103DF00008952F923F924F925F926F927F928F928F
:103E00009F92AF92BF92CF92DF92EF92FF920F9369
:103E10001F93CF93DF93CDB7DEB728970FB6F894F3
:103E2000DEBF0FBECDBF9C838B83FC01E951F64FF3
:103E30001491880F991F880F991F98878F8336ECEC
:103E4000232E34E0332E280E391ED1011D921D92EF
:103E50001D921C92139722ED34E04EEC54E06AEC74
:103E600074E086EC94E00E947D588F819885865E90
:103E7000954F0E94EC1E6B017C01612F772767FD37
:103E80007095872F972F0E946EC22B013C01EF8106
:103E9000F885E55FF64FFA83E98320E030E040ECF7
:103EA0005FE3C701B6010E94A1C4A30192010E9471
:103EB000A1C4A981BA816D937D938D939C9313972F
:103EC000EF81F885E85EFD4FFE83ED8360817181AF
:103ED00082819381609328027093290280932A0241
:103EE00090932B0220E030E040E752E40E94D3C1DF
:103EF00046EAC42E44E0D42E7B018C0127E139E050
:103F000043E159E06FE079E08BE099E00E94014ED7
:103F10000E94A671D1011D921D921D921C921397B1
:103F200022ED34E04EEC54E06AEC74E086EC94E070
:103F30000E947D588F819885825F954F0E94EC1E6C
:103F40004B015C019058A30192010E94A1C4E98138
:103F5000FA81608371838283938320E030E040E7BD
:103F600052E4609128027091290280912A02909176
:103F70002B020E94D3C17B018C0127E139E043E190
:103F800059E06FE079E08BE099E00E94014E0E94D9
:103F9000A671A5019401C501B4010E94F3C0A3015B
:103FA00092010E94A1C4A981BA816D937D938D93E2
:103FB0009C93139720E030E040E05FE3ED81FE81C9
:103FC00060817181828193810E94A1C4FB01462F8F
:103FD0005F2F682F792F4093280250932902609316
:103FE0002A0270932B0220E030E040E752E4BF0148
:103FF0000E94D3C17B018C0127E139E043E159E004
:104000006FE079E08BE099E00E94014E0E94A6717A
:104010008F8198858651964F0E94EC1EEF81F8851E
:10402000E654FB4F4080518062807380A30192016F
:104030000E94F3C06B017C01862F9D2DAE2DBF2DFC
:10404000F10180839183A283B3838F8198858A5005
:10405000964F0E94EC1E0F81188502551B4FA3013D
:1040600092010E94F3C0D8016D937D938D939C9330
:1040700013978F8198858E5F954F0E94EC1E0F815C
:1040800018850E5F1D4FA30192010E94F3C0F80135
:1040900060837183828393838C2D9D2DAE2DBF2DE4
:1040A000E981FA8180839183A283B38310922802ED
:1040B0001092290210922A0210922B020E94816A09
:1040C000EB81FC81E555FB4F81E0808328960FB69C
:1040D000F894DEBF0FBECDBFDF91CF911F910F913E
:1040E000FF90EF90DF90CF90BF90AF909F908F9018
:1040F0007F906F905F904F903F902F90089507C0F2
:104100003091C00035FFFCCF2093C6000196FC0122
:1041100024912111F5CF22E030E085E399E00C9461
:10412000E74407C03091C00035FFFCCF2093C600A4
:104130000196FC0124912111F5CF2AE030E085E3BE
:1041400099E00C94CB43CF93DF931F921F92CDB78E
:10415000DEB780914F12909150129E012F5F3F4F1A
:10416000009719F42555324102C0281B390B3A83B8
:10417000298389819A810F900F90DF91CF910895C3
:1041800020916A0730916B07243031050CF06AC02A
:1041900040916C0750916D0760E6649F9001659FA8
:1041A000300D1124BC01C9018259984F0E949DC055
:1041B000ECE1F5E007C09091C00095FFFCCF809343
:1041C000C600319684918111F6CFE2E2F5E007C096
:1041D0009091C00095FFFCCF8093C60031968491EA
:1041E0008111F6CF80916C0790916D0720E6289F92
:1041F000F001299FF00D1124E259F84F06C090916B
:10420000C00095FFFCCF8093C60081918111F7CF4C
:10421000EDE2F5E007C09091C00095FFFCCF8093E0
:10422000C600319684918111F6CF8091C00085FF40
:10423000FCCF8AE08093C60080916C0790916D0757
:10424000019664E070E00E9447C890936D078093E8
:104250006C0780916A0790916B07019690936B07AA
:1042600080936A07089520916A0730916B07243084
:1042700031050CF06AC040916C0750916D0760E603
:10428000649F9001659F300D1124BC01C9018259C2
:10429000984F0E9420C0ECE1F5E007C09091C0006B
:1042A00095FFFCCF8093C600319684918111F6CFA3
:1042B000EFE2F5E007C09091C00095FFFCCF80933E
:1042C000C600319684918111F6CF80916C07909150
:1042D0006D0720E6289FF001299FF00D1124E25977
:1042E000F84F06C09091C00095FFFCCF8093C600A8
:1042F00081918111F7CFEAE3F5E007C09091C0000A
:1043000095FFFCCF8093C600319684918111F6CF42
:104310008091C00085FFFCCF8AE08093C600809129
:104320006C0790916D07019664E070E00E9447C8A9
:1043300090936D0780936C0780916A0790916B074B
:10434000019690936B0780936A07089560E080E57B
:104350000E94EEB6779A08959D9AA59808950E94B6
:10436000A6210E94AC2140E052EC61E070E085E3C0
:1043700099E00E94CE42ECE3F5E007C09091C000C6
:1043800095FFFCCF8093C600319684918111F6CFC2
:104390008091C00085FFFCCF8AE08093C6008CE14D
:1043A00095E0FC0107C03091C00035FFFCCF2093A1
:1043B000C600319624912111F6CF24B720FF14C0F6
:1043C000E2E4F5E007C04091C00045FFFCCF309328
:1043D000C600319634913111F6CF3091C00035FFCF
:1043E000FCCF3AE03093C60021FF14C0EAE4F5E0C8
:1043F00007C04091C00045FFFCCF3093C600319606
:1044000034913111F6CF3091C00035FFFCCF3AE046
:104410003093C60022FF14C0EAE5F5E007C04091E2
:10442000C00045FFFCCF3093C60031963491311166
:10443000F6CF3091C00035FFFCCF3AE03093C60094
:1044400023FF14C0EBE6F5E007C04091C00045FF34
:10445000FCCF3093C600319634913111F6CF3091B4
:10446000C00035FFFCCF3AE03093C60025FF14C0F2
:10447000EBE7F5E007C03091C00035FFFCCF20939B
:10448000C600319624912111F6CF2091C00025FF5E
:10449000FCCF2AE02093C60014BEEBE8F5E007C08D
:1044A0003091C00035FFFCCF2093C6003196249197
:1044B0002111F6CFE2E9F5E007C03091C00035FFE9
:1044C000FCCF2093C600319624912111F6CF209184
:1044D000C00025FFFCCF2AE02093C600FC012491F8
:1044E000ECE1F5E008C03091C00035FFFCCF20932F
:1044F000C600319624912111F6CFE8E9F5E007C016
:104500003091C00035FFFCCF2093C6003196249136
:104510002111F6CFE8EAF5E007C03091C00035FF81
:10452000FCCF2093C600319624912111F6CFEDEBFC
:10453000F5E007C03091C00035FFFCCF2093C600E6
:10454000319624912111F6CFE9ECF5E007C03091C6
:10455000C00035FFFCCF2093C60031962491211175
:10456000F6CF2091C00025FFFCCF2AE02093C600A3
:10457000E0EEF5E007C03091C00035FFFCCF20939E
:10458000C600319624912111F6CFEBEEF5E007C07D
:104590003091C00035FFFCCF2093C60031962491A6
:1045A0002111F6CF2091C00025FFFCCF2AE02093F7
:1045B000C600FC018491ECE1F5E008C09091C000D8
:1045C00095FFFCCF8093C600319684918111F6CF80
:1045D000E7EFF5E007C09091C00095FFFCCF809316
:1045E000C600319684918111F6CF0E94A3204AE043
:1045F00050E0BC0185E399E00E94EF43E6E0F6E07D
:1046000007C09091C00095FFFCCF8093C600319603
:1046100084918111F6CF4AE050E060ED74E085E3CB
:1046200099E00E94EF438091C00085FFFCCF8AE0B3
:104630008093C6001092EE081092EF081092F008D6
:104640001092F1080E94881D0E94B51A0E94657898
:104650000E94784C0E946F730E945C95FFEF23EDDF
:1046600080E3F15020408040E1F700C00000089551
:104670008091F8089091F90860E070E001960C9440
:104680007BBD8091F8089091F9084AE050E060E025
:1046900070E001960C94E0BE682F772767FD709557
:1046A0002091F2083091F30840E6429FC001439FF9
:1046B000900D11248259984F0E9492C09093F9084E
:1046C0008093F80821E0892B09F420E0822F0895D7
:1046D0000E94B4B56093030970930409809305099F
:1046E0009093060908950E94B4B5609303097093EE
:1046F00004098093050990930609E091F208F0916E
:10470000F308E251F74F8081811114C0EFE2FAE023
:1047100007C09091C00095FFFCCF8093C6003196F2
:1047200084918111F6CF8091C00085FFFCCF8AE093
:104730008093C600089585E399E00E942243E6E253
:10474000FAE007C09091C00095FFFCCF8093C600AF
:10475000319684918111F6CF4091FE085091FF0867
:1047600060910009709101094F5F5F4F6F4F7F4F5C
:104770002AE030E085E399E00E94DE438091C000AA
:1047800085FFFCCF8AE08093C6000C9473232F92A0
:104790003F924F925F926F927F928F929F92AF92D1
:1047A000BF92CF92DF92EF92FF920F931F93CF931E
:1047B000DF93CDB7DEB76F970FB6F894DEBF0FBEAD
:1047C000CDBFB0E6BB2E14E0C12ED12CEBEEF6E04F
:1047D00094900AE0A02EE8EEF6E08490332433941F
:1047E0008091B6099091B7092091B8093091B90923
:1047F000821B930B8F779927892B09F0F9C175C319
:104800008D3051F08A3321F49091F508992321F0ED
:104810002F3531050CF4CFC12115310509F4E8C25B
:1048200080916C0790916D07B89E8001B99E100D24
:104830001124F801E20FF31FE259F84F1082209182
:10484000F5082111B3C11092F508FC01E251F74FB0
:104850001082AEE6EA2EA7E0FA2EE00EF11E6EE41C
:1048600070E0C7010E9492C0009709F4F0C09093D5
:10487000F9088093F8088E199F09800F911F4AE06C
:1048800050E060E070E08159984F0E94E0BE609374
:10489000FA087093FB088093FC089093FD08409001
:1048A000FE085090FF086090000970900109930184
:1048B00082010F5F1F4F2F4F3F4F60177107820715
:1048C000930709F4ECC220916C0730916D07B29EFA
:1048D000C001B39E900D112466E376E08259984F93
:1048E0000E9457C0892B09F0DAC2EEC29091C00035
:1048F00095FFFCCF8093C600319684918111F6CF4D
:10490000E2E4F6E007C09091C00095FFFCCF8093F1
:10491000C600319684918111F6CF2AE030E0B301D0
:10492000A20185E399E00E94DE438091C00085FFEB
:10493000FCCF76C063262F5F02C020E0612CF70118
:10494000E20FF11DE259F84F30813A3299F7909316
:10495000F9088093F808801B910B8E0D9F1D60E075
:1049600070E08159984F0E947BBD0E943BC2262D6A
:1049700030E02617370709F459C0EBE3F6E007C02B
:104980009091C00095FFFCCF8093C6003196849132
:104990008111F6CFE5E7F6E007C09091C00095FFE2
:1049A000FCCF8093C600319684918111F6CF40915F
:1049B000FE085091FF0860910009709101092AE0FA
:1049C00030E085E399E00E94DE438091C00085FFDE
:1049D000FCCF26C0EBE3F6E007C09091C00095FF46
:1049E000FCCF8093C600319684918111F6CFE4E923
:1049F000F6E007C09091C00095FFFCCF8093C60001
:104A0000319684918111F6CF2AE030E0B301A20102
:104A100085E399E00E94DE438091C00085FFFCCFD2
:104A20008AE08093C6000E949B2347C08091FA08C9
:104A30009091FB08A091FC08B091FD088093FE08BE
:104A40009093FF08A0930009B09301093BC06AE26C
:104A500070E0C7010E9492C0892BA1F1EBE3F6E060
:104A600007C09091C00095FFFCCF8093C60031969F
:104A700084918111F6CFEEEBF6E007C09091C00073
:104A800095FFFCCF8093C600319684918111F6CFBB
:104A90004091FE085091FF08609100097091010952
:104AA0002AE030E085E399E00E94DE438091C00077
:104AB00085FFFCCF8AE08093C6001092F708109221
:104AC000F60833C280916C0790916D07B89E800103
:104AD000B99E100D1124FEE6EF2EF7E0FF2EE00E3A
:104AE000F11E67E470E0C7010E9492C0009709F4CC
:104AF00048C09093F9088093F8088E199F09800F99
:104B0000911F60E070E08159984F0E947BBD0E9428
:104B10003BC264307105A8F580919B04811119C0D6
:104B20008091DC0481112DC0882DE8EEF6E008C0EC
:104B30009091C00095FFFCCF8093C6003196849180
:104B40008111F6CF8091C00085FFFCCFA092C600F6
:104B500018C0892DEBEEF6E008C09091C00095FFDB
:104B6000FCCF8093C600319684918111F6CF80915D
:104B7000C00085FFFCCFA092C60081E697E00E94AE
:104B8000209480916C0790916D070196B6010E9468
:104B900047C890936D0780936C0780916A07909146
:104BA0006B07019690936B0780936A071092F70842
:104BB0001092F60815CE8B3311F43092F5089091CF
:104BC000F50891110DCE40916C0750916D07B49E80
:104BD000F001B59EF00D1124E20FF31FE259F84FDA
:104BE00080832F5F3F4F3093F7082093F608F8CD6E
:104BF00080916A0790916B0704970CF468C175C1A6
:104C00008091F6089091F708892B09F08EC1809168
:104C10006A0790916B07892B11F41092020950E6F4
:104C2000652E7724739464E0262E312CEBE6F7E0B2
:104C300024912F8F7AE0572EECE3CE2ED12CE12C4D
:104C4000F12C8E010F5F1F4FECE1F5E04490409195
:104C50005F075091600760916107709162078091D2
:104C6000570790915807A0915907B0915A074817D4
:104C700059076A077B0708F406C157C14D3099F000
:104C8000433229F42091F508222369F002C04A3307
:104C9000C9F32091F6083091F7082F3531051CF43F
:104CA000019609F0D3C040915F0750916007609171
:104CB0006107709162078091570790915807A09102
:104CC0005907B0915A07481759076A077B0708F434
:104CD00082C08F8DEBE6F7E008C09091C00095FF91
:104CE000FCCF8093C600319684918111F6CF8091DC
:104CF000C00085FFFCCF5092C6000E94B4B56093FF
:104D00009C0470939D0480939E0490939F048090D4
:104D1000A0049090A104A090A204B090A3046819EC
:104D200079098A099B0928EE33E040E050E00E94AF
:104D30005BC849015A01CA01B901A70196010E9445
:104D40005BC8CA01B901A70196010E945BC87F93A5
:104D50006F93C501B40120E13EE040E050E00E94C5
:104D60005BC83F932F938EE797E09F938F931F939A
:104D70000F930E94C1C0842D0FB6F894DEBF0FBE02
:104D8000CDBFECE1F5E008C09091C00095FFFCCFED
:104D90008093C600319684918111F6CFF80106C048
:104DA0009091C00095FFFCCF8093C6008191811146
:104DB000F7CF8091C00085FFFCCF5092C600C8019C
:104DC0000E9411948CED94E00E94361A61E08CED03
:104DD00094E00E947D178091F408833211F4709260
:104DE00002092091F6083091F7082115310519F4D0
:104DF0001092F5089AC080916C0790916D07689E9B
:104E0000F001699EF00D1124E20FF31FE259F84FF3
:104E10001082FC01E251F74F708220916A073091B5
:104E20006B072F5F3F4F30936B0720936A07019604
:104E3000B1010E9447C890936D0780936C07109250
:104E4000F5081092F7081092F60801CF4B3311F4D1
:104E50007092F5088091F5088111F9CE80916C0768
:104E600090916D07689EF001699EF00D1124E20F8C
:104E7000F31FE259F84F40832F5F3F4F3093F708FD
:104E80002093F608E4CE80916A0790916B0704970F
:104E90000CF04BC080910209811147C02BC080915A
:104EA0006C0790916D07B89E7001B99EF00C1124AB
:104EB00087010259184F6AE270E0C8010E9492C04F
:104EC000009709F03ACD86CDEBE3F6E016CD85E309
:104ED00099E00E9406438093F4082091F6083091EF
:104EE000F7088A3009F08CCC97CC8091DE048111D0
:104EF00087CE1BC08091B2069091B306A091B406F4
:104F0000B091B50680935F0790936007A093610707
:104F1000B09362078AEA96E00E94C55E482F8093AC
:104F2000F4088A3009F0AACEBECE6F960FB6F89478
:104F3000DEBF0FBECDBFDF91CF911F910F91FF90CC
:104F4000EF90DF90CF90BF90AF909F908F907F9029
:104F50006F905F904F903F902F9008958F929F9207
:104F6000AF92BF92CF92DF92EF92FF920F931F9377
:104F7000CF93DF938DEFE82E83E0F82E06EC14E05C
:104F8000CBE0D9E098EDC92E94E0D92EF7018191BC
:104F90007F010E944C23882319F10E9438234B0182
:104FA0005C01F6018081811103C060911B0901C081
:104FB00061E070E080E090E00E946EC2F801208124
:104FC0003181428153810E94A1C49B01AC01C50182
:104FD000B4010E94F3C0688379838A839B8309C0EC
:104FE000F80180819181A281B38188839983AA830A
:104FF000BB830C5F1F4F2496FFEFCF1ADF0A81E0BF
:10500000E81684E0F80611F686E40E944C23882313
:10501000D9F00E9438236B017C01609325097093BD
:105020002609809327099093280920E030E0A90100
:105030000E94CFC3181644F4C0922802D0922902CD
:10504000E0922A02F0922B02DF91CF911F910F91F3
:10505000FF90EF90DF90CF90BF90AF909F908F9098
:1050600008950E94AE2789E40E944C23882359F0BA
:105070000E9438236093290970932A0980932B0991
:1050800090932C0908C01092290910922A091092B5
:105090002B0910922C098AE40E944C23882359F092
:1050A0000E94382360932D0970932E0980932F0955
:1050B00090933009089510922D0910922E091092A4
:1050C0002F09109230090895CF92DF92EF92FF924C
:1050D000CF93DF93EC01C090AE04D090AF04E0908A
:1050E000B004F090B104A7019601688179818A81AA
:1050F0009B810E94CCC187FF04C0C882D982EA820A
:10510000FB82C090B204D090B304E090B404F0905D
:10511000B504A70196016C817D818E819F810E94DB
:10512000CCC187FF04C0CC82DD82EE82FF82C090BA
:10513000B604D090B704E090B804F090B904A70189
:105140009601688579858A859B850E94CCC187FFF9
:1051500004C0C886D986EA86FB86C0900202D09039
:105160000302E0900402F0900502A7019601688115
:1051700079818A819B810E94CFC3181624F4C8824A
:10518000D982EA82FB82C0900602D0900702E090AA
:105190000802F0900902A70196016C817D818E8141
:1051A0009F810E94CFC3181624F4CC82DD82EE8248
:1051B000FF82C0900A02D0900B02E0900C02F090A7
:1051C0000D02A7019601688579858A859B850E94D5
:1051D000CFC3181624F4C886D986EA86FB86DF91E9
:1051E000CF91FF90EF90DF90CF900895CF92DF9214
:1051F000EF92FF920F931F938BE099E00E94642837
:105200000E94B4B560930309709304098093050963
:105210009093060920910B0930910C0940910D09DA
:1052200050910E096091C6047091C7048091C80422
:105230009091C9040E94CCC1811173C020910F09C3
:105240003091100940911109509112096091CA04DE
:105250007091CB048091CC049091CD040E94CCC17C
:1052600081115FC020E030E040E752E46091280205
:105270007091290280912A0290912B020E94D3C141
:1052800026EAC22E24E0D22E7B018C0127E139E0F0
:1052900043E159E06FE079E08BE099E00E94014E34
:1052A00080910B0990910C09A0910D09B0910E0904
:1052B0008093C6049093C704A093C804B093C90414
:1052C00080910F0990911009A0911109B0911209D4
:1052D0008093CA049093CB04A093CC04B093CD04E4
:1052E0008091130990911409A0911509B0911609A4
:1052F0008093CE049093CF04A093D004B093D104B4
:105300008091170990911809A0911909B0911A0973
:105310008093D2049093D304A093D404B093D50483
:105320001FC06091160270911702882777FD809543
:10533000982F0E946EC2209128023091290240913C
:105340002A0250912B020E94A1C420E030E040E7E5
:1053500052E40E94D3C120E030E048EC52E48ECF0A
:105360001F910F91FF90EF90DF90CF900895AF9233
:10537000BF92CF92DF92EF92FF920F931F93CF9342
:10538000DF93D82F20912D0930912E0940912F09BC
:10539000509130096091290970912A0980912B0957
:1053A00090912C090E94DCC3C62F172F082FF92ECD
:1053B0006091160270911702882777FD8095982FCB
:1053C0000E946EC2209128023091290240912A0247
:1053D00050912B020E94A1C420E030E040E752E44B
:1053E0000E94D3C120E030E048EC52E40E94D3C1D7
:1053F0002091A6042F93DF93FF920F931F93CF93D7
:105400005B016C0132E0E32E01E020E049E259E06B
:105410006BE079E086EC94E00E94E94480910B090E
:1054200090910C09A0910D09B0910E098093C604CA
:105430009093C704A093C804B093C90480910F0946
:1054400090911009A0911109B09112098093CA049A
:105450009093CB04A093CC04B093CD048091130916
:1054600090911409A0911509B09116098093CE046A
:105470009093CF04A093D004B093D10480911709E6
:1054800090911809A0911909B0911A098093D2043A
:105490009093D304A093D404B093D5040E94B4B5E0
:1054A000609303097093040980930509909306099A
:1054B0000F900F900F900F900F900F90DF91CF9162
:1054C0001F910F91FF90EF90DF90CF90BF90AF9022
:1054D0000895F8940E941379179A1092AB04169AC3
:1054E0001092AC04159A1092AD04149A60E084E016
:1054F0000E94EEB6EBE3F6E007C09091C00095FF86
:10550000FCCF8093C600319684918111F6CFE2E3FF
:10551000FAE007C09091C00095FFFCCF8093C600D1
:10552000319684918111F6CF8091C00085FFFCCF28
:105530008AE08093C60081E59AE00E942F94FFCF15
:10554000CF92DF92EF92FF920F931F930E94B4B518
:1055500000911D0910911E0920911F093091200909
:10556000C0900309D0900409E0900509F090060965
:105570006C197D098E099F09061717072807390737
:1055800030F4012B022B032B11F00E94692A809129
:105590002D0290912E02A0912F02B0913002892B02
:1055A0008A2B8B2B09F10E94B4B50091030910914D
:1055B00004092091050930910609601B710B820BCB
:1055C000930B00912D0210912E0220912F02309109
:1055D0003002061717072807390730F49091BB09E6
:1055E0008091BA09981751F0679BCFCF1F910F9107
:1055F000FF90EF90DF90CF900C94E34D179A1092AC
:10560000AB04169A1092AC04159A1092AD04149A39
:10561000EBCF0E94137980919B04811138C081E007
:1056200080939B048091FE089091FF08A09100094F
:10563000B09101098093210990932209A093230935
:10564000B0932409EBE3F6E007C09091C00095FF0A
:10565000FCCF8093C600319684918111F6CFEAE5A4
:10566000FAE007C09091C00095FFFCCF8093C60080
:10567000319684918111F6CF8091C00085FFFCCFD7
:105680008AE08093C60080ED9AE00C9420940895FF
:1056900080919B040895CF93DF93EC018091A60441
:1056A00080931C0984E50E944C23811102C080E094
:1056B00078C00E9438230E9440C260931C09662370
:1056C000B1F3ECE1F5E007C09091C00095FFFCCF8D
:1056D0008093C600319684918111F6CFCD36D105E5
:1056E000B1F044F4C836D105C1F0C936D10509F08E
:1056F00048C010C0CA3DD10539F0CD3DD10509F0F3
:1057000040C0E1E1F3E03AC0E8E2F3E02DC0EFE3AE
:10571000F3E020C0E6E5F3E013C0EDE6F3E006C0F9
:105720009091C00095FFFCCF8093C60081918111BC
:10573000F7CF27C09091C00095FFFCCF8093C600A3
:1057400081918111F7CF1DC09091C00095FFFCCFD2
:105750008093C60081918111F7CF13C09091C00052
:1057600095FFFCCF8093C60081918111F7CF09C0CE
:105770009091C00095FFFCCF8093C600819181116C
:10578000F7CF40E050E060911C0985E399E00E946A
:10579000D7438091C00085FFFCCF8AE08093C6008C
:1057A00081E0DF91CF9108952F923F924F925F92C7
:1057B0006F927F928F929F92AF92BF92CF92DF9221
:1057C000EF92FF920F931F93CF93DF93CDB7DEB786
:1057D000E1970FB6F894DEBF0FBECDBF87E40E94FD
:1057E0004C23882309F413C20E9438230E943BC231
:1057F00064307105D9F144F46230710521F15CF532
:1058000077FF17C00C944A416A35710509F4ABC1A2
:1058100034F46C31710511F00C944A416FC06B3552
:10582000710509F4A4C16C35710511F00C944A415D
:10583000A3C180919B04811106C00E94AE270E94E3
:10584000F6280C94C34180919B04811104C00E94EE
:10585000312881E007C080919B04811107C00E941C
:10586000312880E00E94B7290C94C34182E997E077
:105870000E94209480E50E944C23882339F00E94E6
:1058800038230E9440C26B017C0103C0C12CD12C83
:10589000760183E50E944C23882361F00E9438231F
:1058A00020E030E04AE754E40E94A1C40E9440C2D4
:1058B0006B017C010E94A6710E94B4B54B015C0192
:1058C0008C0C9D1CAE1CBF1C0E94B4B560930309D8
:1058D00070930409809305099093060906C00E94FD
:1058E00047760E94A02A0E9499940E94B4B5681538
:1058F00079058A059B0598F30C944A41809128020A
:1059000090912902A0912A02B0912B02809307095D
:1059100090930809A0930909B0930A09809116028F
:10592000909117029093D7048093D60484E690E078
:1059300090931702809316020E94B4B560930309F6
:1059400070930409809305099093060981E00E94F1
:10595000886A8091C6049091C704A091C804B09150
:10596000C90480930B0990930C09A0930D09B0937F
:105970000E098091CA049091CB04A091CC04B091FF
:10598000CD0480930F0990931009A0931109B0934F
:1059900012098091CE049091CF04A091D004B091CF
:1059A000D1048093130990931409A0931509B0931F
:1059B00016098091D2049091D304A091D404B0919F
:1059C000D5048093170990931809A0931909B093EF
:1059D0001A09109228021092290210922A0210929B
:1059E0002B0288E50E944C23882311F090E00AC026
:1059F00089E50E944C238111F9CF8AE50E944C234E
:105A000091E0982790932C0291110C944D4188E5D8
:105A10000E944C2381110C944D4180912C028111E4
:105A20000C94534189E50E944C2381110C945341FD
:105A300088E50E944C238823D1F00E944123672BE4
:105A4000682B692BA1F00E9438232091BA04309171
:105A5000BB044091BC045091BD040E94F3C060930C
:105A6000C6047093C7048093C8049093C90489E561
:105A70000E944C238823D1F00E944123672B682B7E
:105A8000692BA1F00E9438232091BE043091BF04FD
:105A90004091C0045091C1040E94F3C06093CA04B5
:105AA0007093CB048093CC049093CD0480912C020E
:105AB00081110C9459418AE50E944C2381110C9468
:105AC00059418AE50E944C238823D1F00E9441234A
:105AD000672B682B692BA1F00E9438232091C20408
