:100000000C94710C0C94A20C0C94A20C0C94A20CE9
:100010000C94A20C0C94A20C0C94A20C0C94A20CA8
:100020000C94A20C0C94A20C0C94A20C0C94A20C98
:100030000C94A20C0C94A20C0C94A20C0C94A20C88
:100040000C94A20C0C94B9600C94A20C0C94A20C0D
:100050000C94A20C0C94A20C0C94B1750C942AA9CB
:100060000C94A20C0C94E10D0C94A20C0C94A20C18
:100070000C94A20C0C94A20C0C94A20C0C94A20C48
:100080000C94A20C0C94A20C0C94A20C0C94A20C38
:100090000C94A20C0C94A20C0C94A20C0C94A20C28
:1000A0000C94A20C0C94A20C0C94A20C0C94A20C18
:1000B0000C94A20C0C94A20C0C94A20C0C94A20C08
:1000C0000C94A20C0C94A20C0C94A20C0C94A20CF8
:1000D0000C94A20C0C94A20C0C94A20C0C94A20CE8
:1000E0000C94A20C084AD73B3BCE016E84BCBFFDEA
:1000F000C12F3D6C74319ABD56833DDA3D00C77FF8
:1001000011BED9E4BB4C3E916BAAAABE0000008090
:100110003F05A84CCDB2D44EB93836A9020C50B91F
:10012000918688083CA6AAAA2ABE000000803F65E6
:1001300063686F3A004572726F723A0053544F50C1
:100140005045442E20005072696E7465722073749D
:100150006F707065642064756520746F20657272BD
:100160006F72732E204669782074686520657272FC
:100170006F7220616E6420757365204D39393920A6
:10018000746F20726573746172742E202854656DCB
:10019000706572617475726520697320726573652C
:1001A000742E205365742069742061667465722012
:1001B00072657374617274696E6729004B494C4CA7
:1001C00045442E20005072696E7465722068616C1F
:1001D0007465642E206B696C6C28292063616C6CDB
:1001E000656421006F6B00526573656E643A200090
:1001F0002200556E6B6E6F776E20636F6D6D616E52
:10020000643A2022007A5F6D61783A20007A5F6D4F
:10021000696E3A2000795F6D61783A2000795F6DF0
:10022000696E3A2000785F6D61783A2000785F6DE2
:10023000696E3A20005A3A00593A0020436F756EB1
:100240007420583A2000453A005A3A00593A00586A
:100250003A004649524D574152455F4E414D453A4D
:100260004D61726C696E2056313B20537072696E1D
:100270007465722F6772626C206D6173687570208F
:10028000666F722067656E36204649524D5741525F
:10029000455F55524C3A687474703A2F2F777777D0
:1002A0002E6D656E64656C2D70617274732E636F54
:1002B0006D2050524F544F434F4C5F564552534957
:1002C0004F4E3A312E30204D414348494E455F5400
:1002D0005950453A4D656E64656C204558545255E9
:1002E0004445525F434F554E543A310A00426564CB
:1002F00020646F6E652E0020423A0020453A00547B
:100300003A004265642048656174696E672E004852
:10031000656174696E6720646F6E652E0020573AC0
:100320000020453A00543A0048656174696E672EB2
:100330002E2E002042403A0020403A00202F00207C
:10034000423A00202F006F6B20543A002569206D3F
:10035000696E2C2025692073656300456E642066F4
:10036000696C65206C69737400426567696E20660C
:10037000696C65206C697374004E6F206D6F7665D3
:100380002E00526573756D696E67207072696E74A8
:10039000005761697420666F7220757365722E2E26
:1003A0002E00536C6565702E2E2E0000002A43002F
:1003B000003E430000AA420000A0400000A0400010
:1003C00000803FFFFFFF0000000000000000000071
:1003D000000000000000000000000000000000001D
:1003E0002A4300003E430000AA42256920686F7539
:1003F0007273202569206D696E7574657300446F92
:100400006E65207072696E74696E672066696C65CE
:100410000053544F505045442E20005072696E7462
:1004200065722073746F70706564206475652074E4
:100430006F206572726F72732E204669782074681F
:1004400065206572726F7220616E6420757365201D
:100450004D39393920746F20726573746172742E4E
:10046000202854656D7065726174757265206973BA
:100470002072657365742E20536574206974206141
:10048000667465722072657374617274696E67292F
:10049000006F6B004E6F204C696E65204E756D626B
:1004A0006572207769746820636865636B73756D26
:1004B0002C204C617374204C696E653A20004E6F9D
:1004C00020436865636B73756D2077697468206C71
:1004D000696E65206E756D6265722C204C61737457
:1004E000204C696E653A2000636865636B73756DB7
:1004F000206D69736D617463682C204C6173742086
:100500004C696E653A20004C696E65204E756D62CF
:100510006572206973206E6F74204C617374204C77
:10052000696E65204E756D6265722B312C204C61B1
:100530007374204C696E653A20004D3131300044AF
:100540006F6E6520736176696E672066696C652ED3
:10055000006F6B004D3239002020506C616E6E656B
:100560007242756666657242797465733A2000203E
:1005700046726565204D656D6F72793A20004D6158
:1005800072203237203230313400436F6D70696C25
:1005900065643A2000286E6F6E652C206465666184
:1005A000756C7420636F6E6669672900207C20413A
:1005B0007574686F723A20004D61722032372032B4
:1005C0003031342030393A35353A323000204C6100
:1005D000737420557064617465643A2000312E3064
:1005E0002E30004D61726C696E200020536F66746E
:1005F000776172652052657365740020576174637A
:1006000068646F67205265736574002042726F776B
:100610006E206F7574205265736574002045787480
:1006200065726E616C20526573657400506F7765FA
:10063000725570007374617274002200656E71757A
:1006400065696E672022002200656E717565696EAE
:10065000672022007C3C3E5E2B3D3F2F5B5D3B2CA8
:100660002A225C004D383420582059205A20450059
:100670006563686F3A0043616E6E6F7420656E74D7
:100680006572207375626469723A20004D323400DD
:100690004D3233202573006175746F25692E670014
:1006A0004572726F723A006572726F72207772696A
:1006B00074696E6720746F2066696C65004E6F7494
:1006C000205344207072696E74696E67002F005366
:1006D00044207072696E74696E6720627974652057
:1006E000002E0044656C6574696F6E206661696CEC
:1006F00065642C2046696C653A200046696C65206B
:1007000064656C657465643A002E006F70656E20D8
:100710006661696C65642C2046696C653A200057F7
:10072000726974696E6720746F2066696C653A201F
:10073000002E006F70656E206661696C65642C2008
:1007400046696C653A20002E006F70656E20666108
:10075000696C65642C2046696C653A200046696CBA
:10076000652073656C6563746564002053697A6500
:100770003A200046696C65206F70656E65643A20AA
:10078000002E006F70656E206661696C65642C20B8
:1007900046696C653A200053442063617264206F9F
:1007A0006B006F70656E526F6F74206661696C6567
:1007B0006400766F6C756D652E696E697420666174
:1007C000696C656400534420696E697420666169D0
:1007D0006C006563686F3A0020746F6F206C6F6EF9
:1007E0006720657874727573696F6E2070726576B4
:1007F000656E7465640020636F6C64206578747244
:100800007573696F6E2070726576656E74656400CD
:1008100045313A200045303A20005A3A2000593AF2
:100820002000583A20004D53312C4D53322050694E
:100830006E730A0024F404D9201BC40C5C0E9804C7
:10084000C4095F0265077101F405F900FB04B300F8
:1008500048048700C103690058035500030345009D
:10086000BE023A008402310053022A002902250008
:1008700004022000E4011C00C8011900AF011700A8
:10088000980114008401130071011000610110002F
:1008900051010E0043010D0036010B002B010B002E
:1008A00020010B00150109000C01090003010800DB
:1008B000FB000800F3000800EB000700E40006005E
:1008C000DE000600D8000600D2000600CC000500BD
:1008D000C7000500C2000500BD000400B900040007
:1008E000B5000400B1000400AD000400A90004003C
:1008F000A5000300A20003009F0004009B0003006A
:10090000980003009500020093000300900003008C
:100910008D0002008B0003008800020086000200A8
:1009200084000300810002007F0002007D000200BD
:100930007B000200790002007700010076000200CF
:100940007400020072000100710002006F000200DA
:100950006D0001006C0002006A00010069000200E5
:1009600067000100660001006500010064000200EC
:100970006200010061000100600001005F000200F0
:100980005D0001005C0001005B0001005A000100F5
:1009900059000100580001005700010056000100F5
:1009A00055000100540001005300000053000100F5
:1009B0005200010051000100500001004F000100F1
:1009C0004E0000004E0001004D0001004C000100EF
:1009D0004B0000004B0001004A00010049000100EB
:1009E00048000000480001004700010046000000E8
:1009F00046000100450000004500010044000100E0
:100A000043000000430001004200000042000100DA
:100A10004100000041000100400001003F000000D3
:100A20003F0001003E0000003E0001003D000000CC
:100A30003D0001003C0000003C0000003C000100C3
:100A40003B0000003B0001003A0000003A000100BA
:100A500039000000390001003800000038000000B3
:100A600038000100370000003700010036000000A8
:100A7000360000003600010035000000350000009F
:100A80003500010034000000340000003400010093
:100A9000330000003300000033000100320000008A
:100AA000320000003200010031000000310000007F
:100AB0003100010030000000300000003000010073
:100AC0002F0000002F0000002F0000002F00010069
:100AD0002E0000002E0000002E0001002D0000005E
:100AE0002D0000002D0000002D0001002C00000052
:100AF0002C0000002C0000002C0001002B00000046
:100B00002B0000002B0000002B0001002A00000039
:100B10002A0000002A0000002A000100290000002D
:100B20002900000029000000290000002900010020
:100B30002800000028000000280000002800000015
:100B40002800010027000000270000002700000007
:100B500027000000270001002600000026000000FA
:100B600026000000260000002600010025000000ED
:100B700025000000250000002500000025000000E1
:100B800025000100240000002400000024000000D3
:100B900024000000240001002300000023000000C6
:100BA00023000000230000002300000023000000B9
:100BB00023000100220000002200000022000000AB
:100BC000220000002200000022000100210000009D
:100BD0002100000021000000210000002100000091
:100BE0002100000021000100200000002000000082
:100BF0002000000020000000200000002000000075
:100C000020000000200001001F0000001F00000065
:100C10001F0000001F0000001F0000001F00000058
:100C20001F0001001E0000001E0000001E0000004A
:100C30001E00000024F4D43050C38E20C2A24017FE
:100C4000828B7011127A910D816CD90AA861E1082A
:100C5000C7586607615143061E4B5D05C145A70491
:100C60001A411104093D9803713931034036DB0202
:100C700065339102D4305402802E1D02632CEE01A4
:100C8000752AC501B028A001102781018F256401B4
:100C90002B244B01E0223401AC211F018D200D01DA
:100CA000801FFC00841EED00971DDF00B81CD200E1
:100CB000E61BC600201BBC00641AB200B219A800D3
:100CC0000A19A0006A189900D117910040178B00EB
:100CD000B516840031167E00B31579003A157300FD
:100CE000C7146F0058146A00EE136600881363007F
:100CF00025135E00C7125B006C12570015125400DA
:100D0000C111510070114F0021114B00D610490044
:100D10008D1047004610440002104200C00F4000F2
:100D2000800F3E00420F3C00060F3B00CB0E380008
:100D3000930E37005C0E3500270E3400F30D3200A1
:100D4000C10D3100900D3000600D2E00320D2D00D0
:100D5000050D2C00D90C2B00AE0C2900850C2900A8
:100D60005C0C2700350C27000E0C2600E80B240035
:100D7000C40B2400A00B23007D0B23005A0B210081
:100D8000390B2100180B2000F80A1F00D90A1E0099
:100D9000BB0A1E009D0A1D00800A1D00630A1C007C
:100DA000470A1B002C0A1B00110A1A00F7091A0037
:100DB000DD091900C4091900AB09190092091700CF
:100DC0007B091800630917004C0916003609160044
:100DD000200916000A091500F5081500E00814009E
:100DE000CC081400B8081400A408140090081300DC
:100DF0007D0812006B081300580812004608120004
:100E00003408110023081100120811000108110014
:100E1000F0071000E0071000D0071000C007100016
:100E2000B0070F00A107100091070E0083070F0005
:100E300074070F0065070E0057070E0049070E00E4
:100E40003B070D002E070E0020070D0013070D00B5
:100E500006070D00F9060C00ED060D00E0060C007B
:100E6000D4060C00C8060C00BC060C00B0060C0032
:100E7000A4060B0099060C008D060B0082060B00E1
:100E800077060B006C060B0061060A0057060B0084
:100E90004C060A0042060A0038060A002E060A001E
:100EA00024060A001A060A001006090007060A00AE
:100EB000FD050900F4050900EB050900E20509003C
:100EC000D9050900D0050900C7050900BE050900BC
:100ED000B5050800AD050800A50509009C0508003A
:100EE000940508008C050800840508007C050800AE
:100EF000740508006C050700650508005D0507001E
:100F0000560508004E050700470507004005080084
:100F100038050700310507002A05070023050700EB
:100F20001C050600160507000F050700080506004A
:100F300002050700FB040600F5040700EE040600A6
:100F4000E8040600E2040700DB040600D5040600FE
:100F5000CF040600C9040600C3040600BD04060051
:100F6000B7040600B1040500AC040600A6040600A0
:100F7000A00405009B0406009504050090040600EB
:100F80008A04050085040500800406007A04050033
:100F900075040500700405006B0405006604050077
:100FA000610405005C0405005704050052040500B7
:100FB0004D04050048040500430405003E040400F8
:100FC0003A04050035040500300404002C04050033
:100FD00027040400230405001E0404001A0404006E
:100FE00016040500110404000D04040009040500A2
:100FF0000404040000040400FC030400F8030400DB
:10100000F4030400F0030400EC030400E80304000C
:10101000E4030400E0030400DC030400D80304003C
:10102000D4030400D0030400CC030400C80303006D
:10103000C50303006563686F3A00656E6473746F7F
:101040007073206869743A205A00205A3A00656E1D
:101050006473746F7073206869743A205900205962
:101060003A00656E6473746F7073206869743A2017
:10107000580020583A00656E6473746F707320686E
:1010800069743A20004572726F723A004572723A82
:10109000204D415854454D50204245440054656D03
:1010A000706572617475726520686561746564202D
:1010B000626564207377697463686564206F66662F
:1010C0002E204D415854454D502074726967676514
:1010D000726564202121004572723A204D494E54B8
:1010E000454D50003A2045787472756465722073DE
:1010F00077697463686564206F66662E204D494E7B
:1011000054454D502074726967676572656420218B
:10111000004572723A204D415854454D50003A20D6
:101120004578747275646572207377697463686555
:1011300064206F66662E204D415854454D502074F2
:101140007269676765726564202100202D20496EF1
:1011500076616C6964206578747275646572206E5E
:10116000756D62657220210070012C0190012701CC
:10117000B0012201C0011D01F0011801100213018C
:1011800030020E016002090190020401C002FF005A
:101190000003FA004003F5008003F000D003EB00E9
:1011A0002004E6007004E100E004DC004005D70004
:1011B000C005D2004006CD00D006C8008007C3009D
:1011C0003008BE00F008B900C009B400B00AAF0092
:1011D000B00BAA00D00CA500000EA000500F9B0081
:1011E000C01096005012910000148C00C0158700AA
:1011F000B0178200B0197D00D01B7800001E73006C
:1012000040206E0090226900F024640040275F00B7
:1012100090295A00E02B5500102E500020304B0032
:1012200010324600E033410090353C001037370063
:1012300070383200A0392D00B03A2800A03B2300BE
:10124000603C1E00103D1900903D1400103E0F0040
:10125000703E0A00C03E0500003F00005049442097
:101260004175746F74756E652066696E6973686523
:1012700064202120506C61636520746865204B7088
:101280002C204B6920616E64204B6420636F6E7369
:1012900074616E747320696E2074686520636F6E6C
:1012A00066696775726174696F6E2E680050494493
:1012B000204175746F74756E65206661696C656434
:1012C000212074696D656F75740020403A006F6B62
:1012D00020543A006F6B20423A0050494420417537
:1012E000746F74756E65206661696C656421205445
:1012F000656D706572617475726520746F206869C0
:10130000676800204B643A2000204B693A20002097
:101310004B703A200020436C61736963205049444C
:1013200020002054753A2000204B753A2000206D93
:1013300061783A2000206D696E3A200020643A20DE
:101340000020626961733A20002D2D3A2D2D002D69
:101350002D2D005344002059000120000120004E93
:101360006F20436172640043617264204D656E7545
:101370000053746F70205072696E740052657375FB
:101380006D65205072696E740050617573652050F0
:1013900072696E7400436F6E74726F6C0050726588
:1013A000706172650054756E650057617463680002
:1013B000052E2E004D61696E004D3234004D3233E2
:1013C000202573004D383420582059205A204500DC
:1013D000526573746F7265204661696C73616665EE
:1013E000004D6F74696F6E0054656D706572617445
:1013F000757265004D61696E004573746570732F79
:101400006D6D004573746570732F6D6D005A737444
:101410006570732F6D6D005A73746570732F6D6DE9
:10142000005973746570732F6D6D00597374657016
:10143000732F6D6D005873746570732F6D6D005848
:1014400073746570732F6D6D00412D7265747261D8
:10145000637400412D7265747261637400416D6143
:1014600078206500416D6178206500416D617820CC
:101470007A00416D6178207A00416D6178207900B1
:10148000416D6178207900416D6178207800416D6F
:1014900061782078005654726176206D696E00562E
:1014A00054726176206D696E00566D696E00566DDE
:1014B000696E00566D6178206500566D6178206513
:1014C00000566D6178207A00566D6178207A00565A
:1014D0006D6178207900566D6178207900566D61D4
:1014E00078207800566D61782078005678792D6ADA
:1014F00065726B005678792D6A65726B0041636383
:10150000656C00416363656C00436F6E74726F6C51
:1015100000507265686561742041425320436F6ECC
:1015200066005072656865617420504C4120436FBD
:101530006E66005049442D43005049442D430050ED
:1015400049442D44005049442D44005049442D49FC
:10155000005049442D49005049442D500050494401
:101560002D50002002204661637400200220466155
:101570006374002002204D6178002002204D6178C4
:10158000002002204D696E002002204D696E004F40
:101590006666004F6E20004F6666004F6E20004169
:1015A00075746F74656D700046616E20737065654B
:1015B000640046616E207370656564004265640076
:1015C000426564004E6F7A7A6C65004E6F7A7A6C71
:1015D0006500436F6E74726F6C0042656400426513
:1015E00064004E6F7A7A6C65004E6F7A7A6C650093
:1015F00046616E2073706565640046616E2073708D
:101600006565640054656D7065726174757265001E
:1016100042656400426564004E6F7A7A6C65004EE4
:101620006F7A7A6C650046616E2073706565640040
:1016300046616E2073706565640054656D706572F7
:101640006174757265004D6F76652041786973002D
:101650004D3130342053300A4D3134302053300076
:10166000436F6F6C646F776E00507265686561746C
:1016700020414253005072656865617420504C41AE
:1016800000473238004175746F20486F6D65004D1A
:1016900038340044697361626C65205374657070FE
:1016A000657273004D61696E004D6F766520302E56
:1016B000316D6D004D6F766520316D6D004D6F762B
:1016C000652031306D6D0050726570617265004546
:1016D00078747275646572004D6F7665205A004D9E
:1016E0006F76652059004D6F76652058004D6F76F6
:1016F000652041786973004578747275646572007D
:101700005A0059005800466C6F7700466C6F77009E
:1017100046616E2073706565640046616E2073706B
:101720006565640042656400426564004E6F7A7AC4
:101730006C65004E6F7A7A6C650053706565640065
:101740005370656564004D61696E00436172642089
:1017500072656D6F766564004361726420696E73B3
:1017600065727465640000002100240027002A00CF
:101770002D003000330001010000040107010A01BF
:1017800000002200250028002B002E00310034002C
:1017900002010000050108010B01000020002300E8
:1017A000260029002C002F00320000010000030158
:1017B00006010901050505050705080808080202D4
:1017C00002020A0A080804040404010101010101DB
:1017D00001010303030303030303040707070C0CBE
:1017E0000C0C0C0C0C0C0202020206060606060685
:1017F00006060B0B0B0B0B0B0B0B07070A0A0A0A4F
:101800000A0A0505050401021020200808102040DE
:1018100010204080020102010804020101020408B4
:101820001020408080402010080402018004020142
:10183000804020100804020108040201010204088B
:101840001020408001020408102040801008040885
:1018500080102040044080100000090A02080B0C90
:101860000D07060304010000000000000000000056
:101870000000000000000000000000000000000068
:101880000000000011100F00000000000000000028
:101890000000000000000000000000000000494EB1
:1018A00046494E4954594E414ECDCCCC3D0AD723E2
:1018B0003C17B7D13877CC2B329595E6241FB14F22
:1018C0000A000020410000C84200401C4620BCBE67
:1018D0004CCA1B0E5AAEC59D74002A10A62E3CA8F9
:1018E000AB2E11241FBECFEFD1E2DEBFCDBF00E093
:1018F0000CBF14E0A0E0B2E0ECE4F2E701E00BBFC3
:1019000002C007900D92AC34B107D9F710E1ACE4F6
:10191000B4E001C01D92AD33B107E1F718E1C0EEAC
:10192000D8E100E006C022970109FE010BBF0E942A
:1019300010B9CA3DD10780E00807A9F70E9433AB70
:101940000C9481B00C940000AF92BF92CF92DF92C2
:10195000EF92FF920F931F93DF93CF93CDB7DEB734
:10196000E0970FB6F894DEBF0FBECDBFDE01119633
:10197000E6E9F3E080E101900D928150E1F7DE01AC
:101980005196E6E8F3E080E101900D928150E1F795
:10199000DE019196E6E7F3E080E101900D9281503F
:1019A000E1F7BE016F5F7F4F47EF59E021E1A22EC3
:1019B000B12CAC0EBD1E07EE19E091E2E92EF12C20
:1019C000EC0EFD1E87E0C82E8AE0D82E24E030E021
:1019D000FB0181919191A191B191BF01FA01819394
:1019E0009193A193B193AF01F50181919191A1914F
:1019F000B1915F01F80181939193A193B1938F010C
:101A0000F70181919191A191B1917F01F6018193AB
:101A10009193A193B1936F0121503040C9F680E0BA
:101A200090E8ABE3B5E480931B0A90931C0AA09363
:101A30001D0AB0931E0A80931F0A9093200AA09358
:101A4000210AB093220A80E090E0DC018093170A1B
:101A50009093180AA093190AB0931A0A20E23EE460
:101A600040E050E02093E3093093E4094093E50916
:101A70005093E60980932F0A9093300AA093310A7D
:101A8000B093320A20E030E040EA51E42093230A88
:101A90003093240A4093250A5093260A2DEC3CECFF
:101AA0004CEC5EE32093270A3093280A4093290ADE
:101AB00050932A0A20E030E040EA50E420932B0AB9
:101AC00030932C0A40932D0A50932E0A8093F005F0
:101AD0009093F105A093F205B093F3058093EC0584
:101AE0009093ED05A093EE05B093EF058093E80584
:101AF0009093E905A093EA05B093EB058CEA90E09A
:101B00009093DB0F8093DA0F86E490E09093DD0FE3
:101B10008093DC0F8FEF90E09093DF0F8093DE0FC8
:101B200022ED30E03093E10F2093E00F2EE630E01D
:101B30003093E30F2093E20F9093E50F8093E40F2F
:101B40008AE999E9A1EBB1E48093490390934A03B0
:101B5000A0934B03B0934C0385E894EFA0E1BEE360
:101B600080934D0390934E03A0934F03B093500383
:101B700080E190E7A9E5B4E4809351039093520388
:101B8000A0935303B093540380E090E0A0E8BFE338
:101B90008093550390935603A0935703B093580333
:101BA000E0960FB6F894DEBF0FBECDBFCF91DF91A8
:101BB0001F910F91FF90EF90DF90CF90BF90AF906B
:101BC00008951F920F920FB60F920BB60F92112429
:101BD0002F933F934F935F936F938F939F93EF93C5
:101BE000FF936091C6002091CC043091CD04C901CF
:101BF00001968F7790704091CE045091CF04841756
:101C0000950741F0245B3B4FF90160839093CD042D
:101C10008093CC04FF91EF919F918F916F915F9191
:101C20004F913F912F910F900BBE0F900FBE0F90D1
:101C30001F9018959A01AB01203081EE380780E0A3
:101C4000480780E0580749F182E08093C00060E0D7
:101C500079E08DE390E00E94F5B82150304040409B
:101C60005040CA01B90122E030E040E050E00E945B
:101C7000F5B83093C5002093C4008091C100806105
:101C80008093C1008091C10088608093C1008091E1
:101C9000C10080688093C10008951092C00020E1C7
:101CA00030E0E7CF8091CE049091CF042091CC0416
:101CB0003091CD042817390769F0FC01E45BFB4F34
:101CC000208101968F7790709093CF048093CE04FB
:101CD00030E002C02FEF3FEFC90108958091CE049C
:101CE0009091CF049093CD048093CC0408956F928B
:101CF0007F928F929F92AF92BF92CF92DF92EF929C
:101D0000FF920F931F93DF93CF93CDB7DEB7A097CA
:101D10000FB6F894DEBF0FBECDBF5C01CB01BA0198
:101D2000611571058105910551F4C50140E350E04D
:101D300060E070E020E030E00E94110F48C06E01CA
:101D40000894C11CD11CEE24FF248701622E772445
:101D500088249924A40193010E94D3B8F6016193C9
:101D60006F010894E11CF11C011D111DB901CA018C
:101D7000611571058105910569F7D801C7010197C2
:101D8000A109B1096E010894C11CD11CC80ED91E4D
:101D900019C0F60140814A3010F4405D01C0495C31
:101DA000552747FD5095652F752FC50120E030E080
:101DB0000E94110F0894E108F10801091109089423
:101DC000C108D108E114F1040105110511F7A0962D
:101DD0000FB6F894DEBF0FBECDBFCF91DF911F913C
:101DE0000F91FF90EF90DF90CF90BF90AF909F90BA
:101DF0008F907F906F9008952115310539F480916F
:101E0000C00085FFFCCF4093C60008950E94770E66
:101E100008959A01462F50E060E070E00E94FC0EA9
:101E20000895EF92FF920F931F93CF93DF93EC01EE
:101E30007A018B012115310539F48091C00085FFAD
:101E4000FCCFE092C6001BC02A303105B1F477FF09
:101E500010C04DE250E060E070E020E030E00E9411
:101E6000110F10950095F094E094E11CF11C011DF8
:101E7000111DCE01B801A7012AE00E94770EDF9163
:101E8000CF911F910F91FF90EF9008959A01FB0160
:101E9000AF01662757FD6095762F0E94110F0895B8
:101EA000CF93DF93EC014DE050E060E070E020E084
:101EB00030E00E94110FCE014AE050E060E070E097
:101EC00020E030E00E94110FDF91CF910895CF9371
:101ED000DF93EC019A01AB0160E070E00E94FC0E20
:101EE000CE010E94500FDF91CF9108959F92AF9243
:101EF000BF92CF92DF92EF92FF920F931F93CF93F7
:101F0000DF93EC017A018B01D22ECB01BA0120E0E4
:101F100030E0A9010E943FB287FF0DC0CE014DE223
:101F200050E060E070E020E030E00E94110F17FB0D
:101F3000109517F91095CC2450E040E030E02FE3E5
:101F400011C0DA01F9016B2F742F8F2F922F20E02F
:101F500030E040E251E40E9446B2562F472F382F1E
:101F6000292FC394CD1468F3C801B701DA01F90130
:101F70002B2F342F4F2F5E2F0E9466B15B01E82E6E
:101F8000192F7B2D0E94B3B2062FF72EC82E992E43
:101F90000E94DFB29B01AC016A2D7B2D8E2D912F0B
:101FA0000E9465B15B01E82E192FCE01402F5F2DF5
:101FB0006C2D792D2AE030E00E94FC0EDD20C9F165
:101FC000E0E0F2E006C09091C00095FFFCCF809366
:101FD000C60081918823B9F72CC06A2D7B2D8E2DE8
:101FE000912F20E030E040E251E40E9414B5C62E6B
:101FF000B72EA82E992E0E94AEB27B010027F7FCC7
:102000000095102FCE01B801A7012AE030E00E9410
:10201000110FC801B7010E94E1B29B01AC016C2D08
:102020007B2D8A2D992D0E9465B15B01E82E192F19
:10203000DA94DD2091F6DF91CF911F910F91FF90FF
:10204000EF90DF90CF90BF90AF909F9008950E9447
:10205000760F08950895FC0125913591459154918D
:10206000622F732F842F952F08952F923F924F92B6
:102070005F926F927F928F929F92AF92BF92CF9218
:10208000DF92EF92FF920F931F93DF93CF9300D0D5
:1020900000D0CDB7DEB78C018330910508F05CC16C
:1020A0009C01220F331F220F331F3E832D832852A2
:1020B0003A4F3C832B8380E090E0DC01F901808380
:1020C0009183A283B38388ED95E06CED75E040EEDB
:1020D00055E024EE35E00E94395F8D819E81855563
:1020E0009C4F0E942B100D531C4FF801D4902D8152
:1020F0003E81275D394F3A83298320E030E040EC70
:102100005FE30E9414B57B018C016D2D772767FD7D
:102110007095872F972F0E94E1B22B013C01C801D7
:10212000B701A30192010E9414B5A981BA816D93F0
:102130007D938D939C931397FFE02F2EF3E03F2E1A
:10214000ED81FE812E0E3F1ED1016D917D918D910D
:102150009C91609333037093340380933503909381
:10216000360320E030E040E752E40E9446B27B01B3
:102170008C0189E296E06DE276E041E356E025E3EA
:1021800036E0E0E0CE2EE6E0DE2E0E94E9530E942B
:10219000E36780E090E0DC01EB81FC818083918348
:1021A000A283B38388ED95E06CED75E040EE55E0D9
:1021B00024EE35E00E94395F8D819E8189549C4FC9
:1021C0000E942B104B015C019058A30192010E94C8
:1021D00014B5A981BA816D937D938D939C931397C8
:1021E00060913303709134038091350390913603ED
:1021F00020E030E040E752E40E9446B27B018C01CF
:1022000089E296E06DE276E041E356E025E336E0D0
:102210000E94E9530E94E367C501B401A50194013E
:102220000E9466B1A30192010E9414B5E981FA816E
:102230006083718382839383D1016D917D918D91B0
:102240009C9120E030E040E05FE30E9414B5262F2F
:10225000372F482F592F2093330330933403409363
:1022600035035093360320E030E040E752E40E940B
:1022700046B27B018C0189E296E06DE276E041E3B3
:1022800056E025E336E00E94E9530E94E3678D8122
:102290009E818A539C4F0E942B10ED81FE81E85154
:1022A000FA4FE080F18002811381A80197010E941A
:1022B00066B1862ED72EC82E492E862F9D2DAC2D89
:1022C000B42DEB81FC8180839183A283B3838D81C4
:1022D0009E818E529C4F0E942B1024EF222E25E0CF
:1022E000322E2D813E81220E331EA80197010E94BD
:1022F00066B1D1016D937D938D939C9313978D81DE
:102300009E8182529C4F0E942B102D803E80E3E2E2
:10231000F3E02E0E3F1EA80197010E9466B1D10185
:102320006D937D938D939C931397882D9D2DAC2D4C
:10233000B42DE981FA8180839183A283B38380E005
:1023400090E0DC018093330390933403A093350332
:10235000B09336030E94A96026960FB6F894DEBFAC
:102360000FBECDBFCF91DF911F910F91FF90EF90E6
:10237000DF90CF90BF90AF909F908F907F906F90A5
:102380005F904F903F902F900895FC01238122236E
:1023900011F00E94FA350895FC0107C09091C00029
:1023A00095FFFCCF8093C600319684918823B1F7C6
:1023B00080ED94E022E030E00E9427100895DF9342
:1023C000CF930F920F92CDB7DEB7809137109091D7
:1023D00038109E012F5F3F4F009719F42D53304165
:1023E00002C0281B390B3A83298389819A810F9077
:1023F0000F90CF91DF910895EF92FF920F931F936B
:10240000CF93DF93BC01E090D407F090D50784E030
:10241000E816F1040CF05BC00091CE071091CF07D5
:1024200080E690E0089FE001099FD00D189FD00D35
:102430001124C65BD94FCE010E9411B1EFE2F1E049
:1024400007C09091C00095FFFCCF8093C6003196E5
:1024500084918823B1F7E9E4F6E007C09091C000C9
:1024600095FFFCCF8093C600319684918823B1F705
:1024700006C09091C00095FFFCCF8093C600899163
:102480008823B9F7E7E4F6E007C09091C00095FF14
:10249000FCCF8093C600319684918823B1F7809158
:1024A000C00085FFFCCF8AE08093C600C80101967A
:1024B00064E070E00E94C0B89093CF078093CE078D
:1024C0000894E11CF11CF092D507E092D407DF914B
:1024D000CF911F910F91FF90EF900895BC018091D3
:1024E000D4079091D507843091050CF06AC04091D3
:1024F000CE075091CF0720E630E0429FC001439FB6
:10250000900D529F900D1124865B994F0E9494B0BC
:10251000EFE2F1E007C09091C00095FFFCCF8093FF
:10252000C600319684918823B1F7ECE3F6E007C04A
:102530009091C00095FFFCCF8093C60031968491A6
:102540008823B1F78091CE079091CF0720E630E045
:10255000829FF001839FF00D929FF00D1124E65BA6
:10256000F94F06C03091C00035FFFCCF2093C60064
:1025700021912223B9F7EAE3F6E007C03091C000C9
:1025800035FFFCCF2093C600319624912223B1F76A
:102590002091C00025FFFCCF2AE02093C6000196C1
:1025A00064E070E00E94C0B89093CF078093CE079C
:1025B0008091D4079091D50701969093D507809389
:1025C000D407089580E560E00E94ADAA779A089547
:1025D0009D9AA5980895AF92BF92CF92DF92EF9205
:1025E000FF920F931F93CF93DF930E94E2120E94FA
:1025F000E81280ED94E040E052EC61E070E00E946F
:102600001A0EE4E3F6E007C09091C00095FFFCCFFE
:102610008093C600319684918823B1F78091C000E1
:1026200085FFFCCF8AE08093C6008FE291E0FC0139
:1026300007C03091C00035FFFCCF2093C600319613
:1026400024912223B1F724B720FF14C0ECE2F6E076
:1026500007C04091C00045FFFCCF3093C6003196C3
:1026600034913323B1F73091C00035FFFCCF3AE00D
:102670003093C60021FF14C0ECE1F6E007C04091A2
:10268000C00045FFFCCF3093C60031963491332310
:10269000B1F73091C00035FFFCCF3AE03093C6006F
:1026A00022FF14C0EBE0F6E007C04091C00045FFF8
:1026B000FCCF3093C600319634913323B1F730917B
:1026C000C00035FFFCCF3AE03093C60023FF14C0B2
:1026D000EBEFF5E007C04091C00045FFFCCF309321
:1026E000C600319634913323B1F73091C00035FFE5
:1026F000FCCF3AE03093C60025FF14C0EBEEF5E0C6
:1027000007C03091C00035FFFCCF2093C600319642
:1027100024912223B1F72091C00025FFFCCF2AE0AD
:102720002093C60014BEE3EEF5E007C03091C00070
:1027300035FFFCCF2093C600319624912223B1F7B8
:10274000EDEDF5E007C03091C00035FFFCCF2093E0
:10275000C600319624912223B1F72091C00025FFB5
:10276000FCCF2AE02093C600FC012491EFE2F1E0C7
:1027700008C03091C00035FFFCCF2093C6003196D1
:1027800024912223B1F7EDECF5E007C03091C000B1
:1027900035FFFCCF2093C600319624912223B1F758
:1027A000E8EBF5E007C03091C00035FFFCCF209387
:1027B000C600319624912223B1F7ECEAF5E007C078
:1027C0003091C00035FFFCCF2093C6003196249194
:1027D0002223B1F7E5E9F5E007C03091C00035FFED
:1027E000FCCF2093C600319624912223B1F720918B
:1027F000C00025FFFCCF2AE02093C600EAE8F5E000
:1028000007C03091C00035FFFCCF2093C600319641
:1028100024912223B1F7EEE7F5E007C03091C00024
:1028200035FFFCCF2093C600319624912223B1F7C7
:102830002091C00025FFFCCF2AE02093C600FC01B8
:102840008491EFE2F1E008C09091C00095FFFCCFC9
:102850008093C600319684918823B1F7EFE6F5E0C6
:1028600007C09091C00095FFFCCF8093C6003196C1
:1028700084918823B1F70E94DF11BC0180ED94E0C0
:102880004AE050E00E94460FE8E5F5E007C090916D
:10289000C00095FFFCCF8093C600319684918823B9
:1028A000B1F780ED94E060ED74E04AE050E00E9402
:1028B000460F8091C00085FFFCCF8AE08093C60060
:1028C0001092400610924106109242061092430662
:1028D0000E94A40CC7E0DAE007EF19E0B3E3EB2EA7
:1028E000BAE0FB2E6991799189919991F801A190B3
:1028F000B190C190D1908F010E94DFB2A6019501E5
:102900000E9414B50E94B3B2F70161937193819351
:1029100091937F01FAE0C731DF0721F70E94F66E3D
:102920000E9444520E9495690E94EC89DF91CF91E8
:102930001F910F91FF90EF90DF90CF90BF90AF90DD
:1029400008958091480690914906019660E070E0F4
:102950000E94C6AD0895809148069091490601965F
:1029600060E070E04AE050E00E9454AF089560914A
:102970003E0670913F0640E650E0649F9001659FDF
:10298000300D749F300D1124682F772767FD7095E7
:10299000C901865B994F0E9406B19C01909349063C
:1029A0008093480681E02115310509F480E00895FF
:1029B0000E9472A9609315067093160680931706FD
:1029C00090931806E0913E06F0913F06E05CF94FC7
:1029D00080818823A1F4E4EEF1E007C09091C0006B
:1029E00095FFFCCF8093C600319684918823B1F780
:1029F0008091C00085FFFCCF8AE08093C6000895D7
:102A000080ED94E00E946E0EE7EEF1E007C0909139
:102A1000C00095FFFCCF8093C60031968491882337
:102A2000B1F740910D0650910E0660910F0670911E
:102A300010064F5F5F4F6F4F7F4F80ED94E02AE0AD
:102A400030E00E94110F8091C00085FFFCCF8AE02A
:102A50008093C6000E94D81408952F923F924F92FF
:102A60005F926F927F928F929F92AF92BF92CF921E
:102A7000DF92EF92FF920F931F93DF93CF93CDB727
:102A8000DEB7A0970FB6F894DEBF0FBECDBF70E6DD
:102A9000A72EB12C64E0462E512C51E0852E912CAE
:102AA000EBE1F4E064904AE0742EE1E9F4E0349064
:102AB0002224239412C28D3071F08A3321F4909134
:102AC000CB07992341F02091CC073091CD072F35CA
:102AD00031050CF4E4C1E091CC07F091CD073097BB
:102AE00009F4F4C28091CE079091CF078A9D8001AE
:102AF0008B9D100D9A9D100D1124E00FF11FE65BC8
:102B0000F94F10822091CB07222309F0C3C1109204
:102B1000CB07805C994FFC0110823AE4E32E36E04B
:102B2000F32EE00EF11EC7016EE470E00E9406B1C4
:102B3000009709F4FDC090934906809348069401DC
:102B40002E193F09280F391F200F311FC901865B3D
:102B5000994F60E070E04AE050E00E9454AF9B0162
:102B6000AC016093D0077093D1078093D207909304
:102B7000D307E0900D06F0900E0600910F0610911D
:102B80001006D801C7010196A11DB11D28173907EC
:102B90004A075B0709F439C32091CE073091CF076C
:102BA0002A9DC0012B9D900D3A9D900D1124865BAE
:102BB000994F6AE375E00E94CBB0009709F025C3F6
:102BC000E5E3F1E007C09091C00095FFFCCF809352
:102BD000C600319684918823B1F7E7E0F5E007C09D
:102BE0009091C00095FFFCCF8093C60031968491F0
:102BF0008823B1F780ED94E0B801A7012AE030E026
:102C00000E94110F8091C00085FFFCCF7AC003277E
:102C10002F5FFA01E20FF11DE65BF94F30813A3286
:102C2000B1F790934906809348069A01265B394F85
:102C30006401C21AD30A9601280F391F240F351FC9
:102C4000C901865B994F60E070E00E94C6AD0E94AA
:102C5000AEB210E00617170709F459C0E5E3F1E03A
:102C600007C09091C00095FFFCCF8093C6003196BD
:102C700084918823B1F7E8EEF4E007C09091C0009A
:102C800095FFFCCF8093C600319684918823B1F7DD
:102C900040910D0650910E0660910F06709110063E
:102CA00080ED94E02AE030E00E94110F8091C00096
:102CB00085FFFCCF26C0E5E3F1E007C09091C0009E
:102CC00095FFFCCF8093C600319684918823B1F79D
:102CD000EEEBF4E007C09091C00095FFFCCF80932D
:102CE000C600319684918823B1F780ED94E0B80155
:102CF000A7012AE030E00E94110F8091C00085FFFB
:102D0000FCCF8AE08093C6000E94001547C08091E6
:102D1000D0079091D107A091D207B091D3078093AB
:102D20000D0690930E06A0930F06B09310063BC0BD
:102D3000C7016AE270E00E9406B10097A1F1E5E3E5
:102D4000F1E007C09091C00095FFFCCF8093C600D2
:102D5000319684918823B1F7E4E9F4E007C09091BB
:102D6000C00095FFFCCF8093C600319684918823E4
:102D7000B1F740910D0650910E0660910F067091CB
:102D8000100680ED94E02AE030E00E94110F80915F
:102D9000C00085FFFCCF8AE08093C6001092CD076B
:102DA0001092CC0750C28091CE079091CF078A9D98
:102DB00070018B9DF00C9A9DF00C11248701065B2D
:102DC000194FC80167E470E00E9406B1009709F44A
:102DD0004CC090934906809348069401201B310B08
:102DE000280F391F2E0D3F1DC901865B994F60E0EA
:102DF00070E00E94C6AD0E94AEB264307105A8F5C5
:102E000080910B068823C9F48091D104882369F549
:102E1000832DE1E9F4E008C09091C00095FFFCCF5C
:102E20008093C600319684918823B1F78091C000C9
:102E300085FFFCCF7092C60018C0862DEBE1F4E050
:102E400008C09091C00095FFFCCF8093C6003196DA
:102E500084918823B1F78091C00085FFFCCF7092E8
:102E6000C60081E194E00E94AD888091CE079091E8
:102E7000CF070196B2010E94C0B89093CF0780930C
:102E8000CE078091D4079091D50701969093D507EE
:102E90008093D4071092CD071092CC071EC08B33BD
:102EA00011F42092CB079091CB079923B1F4409174
:102EB000CE075091CF074A9DF0014B9DF00D5A9DD2
:102EC000F00D1124E20FF31FE65BF94F80832F5FB3
:102ED0003F4F3093CD072093CC078091CC04909145
:102EE000CD042091CE043091CF04821B930B8F77B9
:102EF0009070009709F4A2C18091D4079091D507F2
:102F0000843091050CF09AC180ED94E00E94520E3D
:102F10008093CA078A3009F0CECDDDCD8091CC07F1
:102F20009091CD07009709F421C18DC14D3091F0EA
:102F30004A3321F42091CB07222361F02091CC0762
:102F40003091CD072F3531052CF45FEF8F3F95077A
:102F500009F0EDC02091C7053091C8054091C90521
:102F60005091CA058091BF059091C005A091C105FF
:102F7000B091C205281739074A075B0708F49FC0BC
:102F80008F8DEEEFF3E008C09091C00095FFFCCF6D
:102F90008093C600319684918823B1F78091C00058
:102FA00085FFFCCF2092C6000E9472A99B01AC0154
:102FB00060930706709308068093090690930A06AB
:102FC0008091030690910406A0910506B091060633
:102FD00069017A01C81AD90AEA0AFB0AC701B601CF
:102FE00028EE33E040E050E00E94D3B869017A0156
:102FF0002DB73EB7285030400FB6F8943EBF0FBEF5
:103000002DBFADB6BEB60894A11CB11CEDB7FEB77E
:10301000128301832AEE33E0F50133832283C70153
:10302000B60120E13EE040E050E00E94D3B8F50157
:1030300035832483C701B601A40193010E94D3B84C
:10304000CA01B901A40193010E94D3B8F5017783A5
:1030500066830E9435B188A12DB73EB7285F3F4FE8
:103060000FB6F8943EBF0FBE2DBFEFE2F1E008C0EF
:103070009091C00095FFFCCF8093C600319684915B
:103080008823B1F7F80106C09091C00095FFFCCFEE
:103090008093C60081918823B9F78091C00085FF95
:1030A000FCCF2092C600C8010E949E8881ED94E06A
:1030B0000E94284A81ED94E061E00E9460472091DF
:1030C000CC073091CD072115310519F41092CB07AB
:1030D000BAC08091CE079091CF07849DF001859D65
:1030E000F00D949DF00D1124E20FF31FE65BF94FF4
:1030F0001082FC01E05CF94F30822091D4073091BE
:10310000D5072F5F3F4F3093D5072093D407019603
:1031100064E070E00E94C0B89093CF078093CE0720
:103120001092CB071092CD071092CC0736C04B33CC
:1031300011F43092CB078091CB07882371F58091F1
:10314000CE079091CF07849DF001859DF00D949D51
:10315000F00D1124E20FF31FE65BF94F40832F5F60
:103160003F4F3093CD072093CC0717C020E6422E67
:10317000512C33243394EEEFF3E034913F8F9AE0F7
:10318000292E8E010F5F1F4F8CE3682E712C812C2E
:10319000912CEFE2F1E0549158A32091C7053091B2
:1031A000C8054091C9055091CA058091BF0590910D
:1031B000C005A091C105B091C205281739074A077B
:1031C0005B0708F040C08091D4079091D507843008
:1031D0009105CCF58091AC059091AD05A091AE051F
:1031E000B091AF058093C7059093C805A093C9051A
:1031F000B093CA0584EA95E00E941934482F809361
:10320000CA078A3009F092CEA5CE8091CE07909160
:10321000CF078A9D60018B9DD00C9A9DD00C112404
:10322000C601865B994F6AE270E00E9406B1009782
:1032300009F441CD20E000E0A601EBCC8091D2045E
:10324000882309F06BCEA0960FB6F894DEBF0FBEB0
:10325000CDBFCF91DF911F910F91FF90EF90DF9045
:10326000CF90BF90AF909F908F907F906F905F9026
:103270004F903F902F9008958F929F92AF92BF9260
:10328000CF92DF92EF92FF920F931F93CF93DF9332
:10329000F6EAEF2EF3E0FF2EC8EDD5E009E216E0E6
:1032A000E2EDCE2EE5E0DE2EF70181917F010E9456
:1032B000B714882329F10E94A1144B015C01F60187
:1032C0008081882319F46091390601C061E070E0C3
:1032D000882777FD8095982F0E94E1B22881398157
:1032E0004A815B810E9414B59B01AC01C501B40108
:1032F0000E9466B1F801608371838283938309C061
:1033000088819981AA81BB81F80180839183A283FE
:10331000B38324960C5F1F4F0894C11CD11CFAEA9A
:10332000EF16F3E0FF0609F0BFCF86E40E94B71462
:103330008823D9F00E94A1147B018C0160933A0686
:1033400070933B0680933C0690933D0620E030E06E
:10335000A9010E9442B4181644F4E0923303F0929B
:1033600034030093350310933603DF91CF911F91FF
:103370000F91FF90EF90DF90CF90BF90AF909F9014
:103380008F9008950E943C1989E40E94B714882305
:1033900059F00E94A11460931D0670931E0680933D
:1033A0001F06909320060BC080E090E0DC01809324
:1033B0001D0690931E06A0931F06B09320068AE474
:1033C0000E94B714882359F00E94A114609321062B
:1033D000709322068093230690932406089580E03C
:1033E00090E0DC018093210690932206A0932306AF
:1033F000B09324060895EF92FF920F931F93CF93FB
:10340000DF93EC01E090F405F090F5050091F605EE
:103410001091F705688179818A819B81A8019701C4
:103420000E943FB287FF04C0E882F9820A831B83AF
:10343000E090F805F090F9050091FA051091FB0570
:103440006C817D818E819F81A80197010E943FB28E
:1034500087FF04C0EC82FD820E831F83E090FC0591
:10346000F090FD050091FE051091FF0568857985B6
:103470008A859B85A80197010E943FB287FF04C0FF
:10348000E886F9860A871B87E0902303F0902403DF
:103490000091250310912603688179818A819B819F
:1034A000A80197010E9442B4181624F4E882F98218
:1034B0000A831B83E0902703F090280300912903DF
:1034C00010912A036C817D818E819F81A8019701D3
:1034D0000E9442B4181624F4EC82FD820E831F83EE
:1034E000E0902B03F0902C0300912D0310912E03FC
:1034F000688579858A859B85A80197010E9442B4D9
:10350000181624F4E886F9860A871B87DF91CF9185
:103510001F910F91FF90EF900895CF92DF92EF925D
:10352000FF920F931F9389E296E00E94FB190E947D
:1035300072A96093150670931606809317069093F0
:1035400018066091D8057091D9058091DA0590919F
:10355000DB052091290630912A0640912B065091D7
:103560002C060E943FB2882309F07AC06091DC05E6
:103570007091DD058091DE059091DF0520912D068B
:1035800030912E0640912F06509130060E943FB296
:10359000882309F065C060913303709134038091F2
:1035A00035039091360320E030E040E752E40E947A
:1035B00046B27B018C0189E296E06DE276E041E360
:1035C00056E025E336E0A0E0CA2EA6E0DA2E0E94FF
:1035D000E9538091290690912A06A0912B06B0917B
:1035E0002C068093D8059093D905A093DA05B09363
:1035F000DB0580912D0690912E06A0912F06B091AB
:1036000030068093DC059093DD05A093DE05B09332
:10361000DF058091310690913206A0913306B0917A
:1036200034068093E0059093E105A093E205B09302
:10363000E3058091350690913606A0913706B0914A
:1036400038068093E4059093E505A093E605B093D2
:10365000E7051F910F91FF90EF90DF90CF900895B5
:1036600060911F0370912003882777FD8095982F24
:103670000E94E1B22091330330913403409135032D
:10368000509136030E9414B520E030E040E752E448
:103690000E9446B220E030E048EC52E488CF9F928E
:1036A000AF92BF92CF92DF92EF92FF920F931F9350
:1036B000CF93DF93982E60911D0670911E06809126
:1036C0001F069091200620912106309122064091FC
:1036D0002306509124060E944FB47B018C0100D038
:1036E00000D0CDB7DEB7219660911F037091200303
:1036F000882777FD8095982F0E94E1B220913303AF
:103700003091340340913503509136030E9414B533
:1037100020E030E040E752E40E9446B220E030E092
:1037200048EC52E40E9446B25B016C01E882F982E7
:103730000A831B839C82809100068D8388ED95E02F
:1037400069E276E04DE156E020E001E0B2E0EB2EE8
:103750000E94604A8091290690912A06A0912B062A
:10376000B0912C068093D8059093D905A093DA05E3
:10377000B093DB0580912D0690912E06A0912F0627
:10378000B09130068093DC059093DD05A093DE05B3
:10379000B093DF058091310690913206A0913306F7
:1037A000B09134068093E0059093E105A093E20583
:1037B000B093E3058091350690913606A0913706C7
:1037C000B09138068093E4059093E505A093E60553
:1037D000B093E7058DB79EB706960FB6F8949EBFD7
:1037E0000FBE8DBF0E9472A96093150670931606D6
:1037F0008093170690931806DF91CF911F910F9138
:10380000FF90EF90DF90CF90BF90AF909F90089582
:10381000F8940E94AC6F179A169A159A149A84E03D
:1038200060E00E94ADAAE5E3F1E007C09091C0001E
:1038300095FFFCCF8093C600319684918823B1F721
:10384000E5ECF1E007C09091C00095FFFCCF8093BC
:10385000C600319684918823B1F78091C00085FF1E
:10386000FCCF8AE08093C6008CEB91E00E94BC887C
:10387000FFCFEF92FF920F931F930E9472A92091A6
:10388000190630911A0640911B0650911C06E090D3
:103890001506F090160600911706109118066E197D
:1038A0007F09800B910B261737074807590738F413
:1038B000211531054105510511F00E94081C809128
:1038C0002F0390913003A0913103B0913203009700
:1038D000A105B10529F10E9472A920911506309128
:1038E00016064091170650911806621B730B840B45
:1038F000950B20912F03309130034091310350916B
:103900003203261737074807590750F49091240FC0
:103910008091250F981721F4179A169A159A149AE0
:10392000679902C00E94081C0E94C3531F910F9107
:10393000FF90EF9008950E94AC6F80910B06882352
:10394000C1F581E080930B0680910D0690910E06E3
:10395000A0910F06B0911006809311069093120665
:10396000A0931306B0931406E5E3F1E007C090912D
:10397000C00095FFFCCF8093C600319684918823C8
:10398000B1F7E6E4F1E007C09091C00095FFFCCFED
:103990008093C600319684918823B1F78091C0004E
:1039A00085FFFCCF8AE08093C6008CE391E00E9403
:1039B000AD88089580910B060895CF93DF93EC01B5
:1039C0008091000680930C0684E50E94B71488233A
:1039D00009F455C00E94A1140E94B3B260930C0672
:1039E000662309F44CC0EFE2F1E007C09091C000FB
:1039F00095FFFCCF8093C600319684918823B1F760
:103A0000C936D10551F0CD36D10521F0C836D105E2
:103A100039F506C0E2E0F2E020C0E9E1F2E013C0CF
:103A2000E0E3F2E006C09091C00095FFFCCF8093E8
:103A3000C60081918823B9F713C09091C00095FF0B
:103A4000FCCF8093C60081918823B9F709C090917B
:103A5000C00095FFFCCF8093C60081918823B9F701
:103A600080ED94E040E050E00E94090F8091C0009A
:103A700085FFFCCF8AE08093C60081E001C080E032
:103A8000DF91CF9108952F923F924F925F926F9264
:103A90007F928F929F92AF92BF92CF92DF92EF92DE
:103AA000FF920F931F93DF93CF93CDB7DEB7A2970B
:103AB0000FB6F894DEBF0FBECDBF87E40E94B714E7
:103AC000882309F42CC20E94A1140E94AEB2643073
:103AD000710509F441C06530710554F46230710517
:103AE00041F1633071056CF577FF19C00C94AE2D70
:103AF0006A35710509F4BEC16B35710534F46C315A
:103B0000710511F00C94AE2D73C06B35710509F47D
:103B1000B5C16C35710511F00C94AE2DB4C1809116
:103B20000B06882331F40E943C190E948D1A0C94D4
:103B3000D32D80910B06882321F40E94C21981E0C5
:103B400007C080910B06882339F40E94C21980E0D7
:103B50000E944F1B0C94D32D82EA93E00E94AD8803
:103B600080E50E94B714882349F00E94A1140E94A6
:103B7000B3B2E62EF72E082F192F03C0EE24FF2430
:103B8000870183E50E94B714882371F00E94A11475
:103B900020E030E04AE754E40E9414B50E94B3B23A
:103BA000E62EF72E082F192F0E94E3670E9472A9B4
:103BB0005B016C01AE0CBF1CC01ED11E0E9472A91D
:103BC0006093150670931606809317069093180657
:103BD00006C00E94CA6C0E94391C0E9428890E945B
:103BE00072A96A157B058C059D0598F30C94AE2D82
:103BF0008091330390913403A0913503B091360343
:103C00008093440690934506A0934606B0934706DA
:103C100080911F03909120039093D7058093D60540
:103C200084E690E09093200380931F030E9472A982
:103C300060931506709316068093170690931806E6
:103C400081E00E94B0608091D8059091D905A09143
:103C5000DA05B091DB058093290690932A06A0939C
:103C60002B06B0932C068091DC059091DD05A09188
:103C7000DE05B091DF0580932D0690932E06A0936C
:103C80002F06B09330068091E0059091E105A09158
:103C9000E205B091E3058093310690933206A0933C
:103CA0003306B09334068091E4059091E505A09128
:103CB000E605B091E7058093350690933606A0930C
:103CC0003706B093380680E090E0DC018093330340
:103CD00090933403A0933503B093360388E50E9494
:103CE000B714882361F489E50E94B714882339F456
:103CF0008AE50E94B714882311F481E001C080E0B6
:103D000080933703882329F488E50E94B714882319
:103D100021F080E090E00E943510809137038823E5
:103D200029F489E50E94B714882321F081E090E00E
:103D30000E94351080913703882329F48AE50E9478
:103D4000B714882321F082E090E00E94351088E5C6
:103D50000E94B7148823D9F00E94AB146115710535
:103D600081059105A1F00E94A1142091E8053091F0
:103D7000E9054091EA055091EB050E9466B1609318
:103D8000D8057093D9058093DA059093DB0589E512
:103D90000E94B7148823D9F00E94AB1461157105F5
:103DA00081059105A1F00E94A1142091EC053091AC
:103DB000ED054091EE055091EF050E9466B16093CC
:103DC000DC057093DD058093DE059093DF058AE5C1
:103DD0000E94B7148823D9F00E94AB1461157105B5
:103DE00081059105A1F00E94A1142091F005309168
:103DF000F1054091F2055091F3050E9466B1609380
:103E0000E0057093E1058093E2059093E30588ED6A
:103E100095E06CED75E040EE55E024EE35E00E9453
:103E2000395F80E00E94B060809144069091450621
:103E3000A0914606B09147068093330390933403D4
:103E4000A0933503B09336038091D6059091D705A2
:103E50009093200380931F030E9472A9609315061C
:103E60007093160680931706909318060E94A96017
:103E70000C94AE2D109239060C94AE2D81E08093F7
:103E800039060C94AE2D85E40E94B714882311F4F2
:103E90000E94E367F6EACF2EF3E0DF2EE8EEAE2EC7
:103EA000E5E0BE2E08ED15E0EE24F60181916F01EC
:103EB0000E94B714882339F1FE2DF33061F40E947B
:103EC000A114F801608371838283938384EE95E06B
:103ED0000E94E75F18C00E94A114F5012081318182
:103EE000428153810E9466B1F801608371838283AD
:103EF000938388ED95E06CED75E040EE55E024EE9F
:103F000035E00E94395FE39424E030E0A20EB31E56
:103F10000C5F1F4F3E2D343041F60C94AE2D8DE4D6
:103F20000E94B714882311F40C94022D0E94A1144E
:103F30000E94AEB26B36710509F42FC76C3671055D
:103F40000CF084C06C31710509F42FC26D3171051C
:103F5000C4F56531710509F4C9C166317105BCF458
:103F60006131710509F48DC16231710534F462303B
:103F7000710510F00C94AE2D21C16231710509F468
:103F80001EC76431710511F00C94AE2D84C16831E7
:103F9000710509F4CCC16931710554F466317105BC
:103FA00009F4AAC16731710511F00C94AE2DAAC1B4
:103FB0006A31710509F4D1C16B3171050CF0EFC1A3
:103FC000C6C16335710509F4F6C664357105FCF4A4
:103FD0006A32710509F4FDC26B32710554F46E3119
:103FE000710509F41AC26F31710511F00C94AE2DF0
:103FF00055C26135710509F4D8C6623571050CF0FA
:10400000D7C66035710511F00C94AE2DCBC66C355A
:10401000710509F433C76D35710554F464357105C4
:1040200009F4CDC66535710511F00C94AE2D10C79D
:104030006936710509F43CC36A3671050CF07FC618
:104040006836710511F00C94AE2D02C36E3C7105FB
:1040500011F40C948E2A6F3C71050CF04BC069373B
:10406000710511F40C94C9286A37710504F563379A
:10407000710509F48EC76437710554F46D36710506
:1040800009F4D6C36237710511F00C94AE2DA3C7A5
:104090006737710509F48EC06837710514F00C9408
:1040A000C7286537710511F00C94AE2D80C7693CA7
:1040B000710511F40C94B9296A3C710554F46C38FB
:1040C000710509F4E4C26E3B710511F00C94AE2D3C
:1040D00086C56C3C710511F40C94102A6D3C710579
:1040E00014F00C94302A6B3C710511F00C94AE2D39
:1040F0000C94F32981E06F35780711F40C94872C28
:1041000091E06036790754F5E1E06D327E0711F4F5
:104110000C94C92AF1E06E327F0764F46C3D71059E
:1041200011F40C94AB2A6D3D710511F00C94AE2D79
:104130000C94BA2A21E06F32720711F40C94A82B68
:1041400031E06F32730714F40C94A42B81E06E35C8
:10415000780711F00C94AE2D0C944B2C91E0663F37
:10416000790711F40C94EC2BE1E0673F7E0774F4BF
:10417000F1E060397F0711F40C94E92B21E0653FF1
:10418000720711F00C94AE2D0C94EC2B33E06C38CC
:10419000730711F40C94302C83E0673E780711F418
:1041A0000C94EB2C93E06B38790711F00C94AE2D46
:1041B0000C94EF2BE6E5F2E00C94D32881E993E030
:1041C0000E94AD8880E50E94B714882349F00E94C0
:1041D000A1140E94B3B2E62EF72E082F192F03C0A8
:1041E000EE24FF24870183E50E94B714882371F031
:1041F0000E94A11420E030E04AE754E40E9414B584
:104200000E94B3B2E62EF72E082F192F0E94E36703
:104210000E9472A960931506709316068093170684
:1042200090931806E114F1040105110501F10E94B3
:1042300072A95B016C01AE0CBF1CC01ED11E0E9496
:1042400072A96A157B058C059D05A8F48091FC0F69
:1042500082FD11C00E94CA6C0E94391C0E942889EC
:10426000EECF0E94CA6C0E94391C0E94288980915E
:10427000FC0F82FFF6CF82E893E00E94AD880C9499
:10428000AE2D89E793E00E94AD881798169815988F
:1042900014980C94AE2DE9E6F3E007C09091C000AD
:1042A00095FFFCCF8093C600319684918823B1F7A7
:1042B0008091C00085FFFCCF8AE08093C60081ED2D
:1042C00094E00E942642EBE5F3E007C09091C00025
:1042D00095FFFCCF8093C600319684918823B1F777
:1042E0008091C00085FFFCCF0C94AB2D81ED94E054
:1042F0000E946C420C94AE2D81ED94E00E943F43ED
:104300000C94AE2D00914806109149060C5F1F4F8A
:10431000C8016AE270E00E9406B1009719F00197A7
:10432000FC01108281ED94E0B80141E072C081EDA2
:1043300094E00E9443430E9472A960930306709325
:10434000040680930506909306060C94AE2D81ED2D
:1043500094E00E944A430C94AE2D8091D3048823AC
:1043600011F40C94AE2D83E50E94B714882311F448
:104370000C94AE2D0E94AB14AB01382F292F609303
:10438000C7055093C8058093C9059093CA0584EA70
:1043900095E0632F722F0E94FD340C94AE2D81EDB9
:1043A00094E00E94A1460C94AE2D80914806909115
:1043B000490604966AE270E00E9406B18C010097FB
:1043C000F9F040913E0650913F0620E630E0429FD2
:1043D000C001439F900D529F900D1124865B994F11
:1043E0006EE470E00E9406B160E270E00E9406B1E7
:1043F00001969093490680934806F8013197108200
:1044000060914806709149066C5F7F4F81ED94E0A2
:1044100040E00E944F430C94AE2D8091D30488233A
:1044200011F40C94AE2D81ED94E00E9476488091B9
:1044300048069091490604966AE270E00E9406B12F
:104440008C010097F9F040913E0650913F0620E61E
:1044500030E0429FC001439F900D529F900D112468
:10446000865B994F6EE470E00E9406B160E270E0F6
:104470000E9406B101969093490680934806F80180
:104480003197108260914806709149066C5F7F4FAA
:1044900081ED94E00E9451450C94AE2D0E9472A9CA
:1044A00060930706709308068093090690930A06A6
:1044B00020910306309104064091050650910606AE
:1044C000621B730B840B950B28EE33E040E050E049
:1044D0000E94D3B88DB79EB708970FB6F8949EBFC9
:1044E0000FBE8DBF0DB71EB70F5F1F4FCE010196D8
:1044F000EDB7FEB7928381838CE493E0F801938358
:104500008283CA01B9012CE330E040E050E00E9410
:10451000D3B8F80135832483778366830E9435B14D
:10452000EFE2F1E084912DB73EB7285F3F4F0FB621
:10453000F8943EBF0FBE2DBF08C09091C00095FFFC
:10454000FCCF8093C600319684918823B1F7FE0199
:10455000319606C09091C00095FFFCCF8093C600B5
:1045600081918823B9F78091C00085FFFCCF8AE054
:104570008093C600CE0101960E949E888091530AC6
:10458000882311F40C94AE2D1092530A009100066A
:1045900010E0000F111F0857104FF8016081718162
:1045A000882777FD8095982F0E94E1B220913C03E7
:1045B00030913D0340913E0350913F030E9442B42D
:1045C000181614F00C94AE2DF801118210820C9480
:1045D000AE2D83E50E94B714882311F40C94AE2D00
:1045E0000E94A1140E94AEB28B0180E50E94B71414
:1045F000882361F017FD0AC00F3F110509F034F45C
:104600000E94A1140E94AEB27B0103C06DE0E62EB1
:10461000F12CEAEAF3E0819191918E159F0511F456
:104620000C94AE2D24E0EA31F207A9F7F7FE02C0A0
:104630000C94AE2D8E2D61E00E94ADAA8E2D602FC0
:104640000E94D1AA8E2DB8010E944FA80C94AE2DC5
:1046500088E690E00E94DD1C882311F00C94AE2DBA
:1046600083E50E94B714882371F00E94A114009181
:104670000C0610E0000F111F0857104F0E94AEB239
:10468000F801718360830E94AB6F0C94AE2D83E5BB
:104690000E94B714882311F40C94AE2D0E94A1142B
:1046A0000E94AEB270938B0F60938A0F0C94AE2D64
:1046B00089E690E00E94DD1C882311F00C94AE2D59
:1046C000E6E4F3E007C09091C00095FFFCCF809333
:1046D000C600319684918823B1F7E0910C06F0E092
:1046E000EE0FFF1FEE0FFF1FE257F04F4081518189
:1046F0006281738180ED94E021E030E00E94271018
:10470000E3E4F3E007C09091C00095FFFCCF8093F5
:10471000C600319684918823B1F7E0910C06F0E051
:10472000EE0FFF1FE857F04F60817181882777FDFA
:104730008095982F0E94E1B2AB01BC0180ED94E01E
:1047400021E030E00E942710EFE3F3E007C09091F2
:10475000C00095FFFCCF8093C600319684918823DA
:10476000B1F74091940F5091950F6091960F709111
:10477000970F80ED94E021E030E00E942710ECE3F9
:10478000F3E007C09091C00095FFFCCF8093C60076
:10479000319684918823B1F760918A0F70918B0FC5
:1047A000882777FD8095982F0E94E1B2AB01BC016C
:1047B00080ED94E021E030E00E942710E8E3F3E090
:1047C00007C09091C00095FFFCCF8093C600319642
:1047D00084918823B1F780910C0690E00E94BF6C11
:1047E000BC0180ED94E04AE050E00E94460FE3E314
:1047F000F3E007C09091C00095FFFCCF8093C60006
:10480000319684918823B1F78FEF9FEF0E94BF6CA0
:10481000BC0180ED94E04AE050E00E94460F809198
:10482000C00085FFFCCF8AE08093C6000C94D32D96
:104830008DE690E00E94DD1C882311F00C94AE2DD3
:1048400088E293E00E94AD881092530A83E50E94AB
:10485000B714882371F00E94A11400910C0610E097
:10486000000F111F0857104F0E94AEB2F80171835C
:10487000608383E50E94B714882351F00E94A1143D
:1048800060933C0370933D0380933E0390933F03FA
:1048900082E40E94B714882351F00E94A11460930F
:1048A00038037093390380933A0390933B0386E473
:1048B0000E94B714882369F00E94A11460934003FA
:1048C00070934103809342039093430381E080936C
:1048D000530A0E94AB6F0E9472A91B012C01009128
:1048E0000C0610E0F801EE0FFF1FE857F04F608153
:1048F0007181882777FD8095982F0E94E1B2F80199
:10490000EE0FFF1FEE0FFF1FE257F04FDD24D39491
:1049100020813181428153810E9442B418160CF0EB
:10492000DD24EE24EA94FE2C8701E5E2F3E02491F5
:104930002F8FE1E2F3E0349139A3EDE1F3E08491CC
:104940008AA3E8EE6E2EE3E07E2E812C912C7AE095
:10495000C72E35C18F8DE5E2F3E008C09091C0000D
:1049600095FFFCCF8093C600319684918823B1F7E0
:10497000E0910C06F0E0EE0FFF1FEE0FFF1FE25775
:10498000F04F408151816281738180ED94E021E09C
:1049900030E00E94271089A1E1E2F3E008C0909185
:1049A000C00095FFFCCF8093C60031968491882388
:1049B000B1F760910C0680ED94E070E04AE050E0C1
:1049C0000E94460F8AA1EDE1F3E008C09091C0007B
:1049D00095FFFCCF8093C600319684918823B1F770
:1049E00017FF03C0EFE6F2E025C00E9472A99B0109
:1049F000AC01C801B701605F784D8F4F9F4F621BBC
:104A0000730B840B950BA40193010E94D3B880ED26
:104A100094E0BA01A9012AE030E00E94FC0E8091E6
:104A2000C00085FFFCCF0DC09091C00095FFFCCF6A
:104A30008093C60081918823B9F78091C00085FFDB
:104A4000FCCFC092C6000E9472A91B012C010E94DB
:104A5000CA6C0E94391C0E9428899FEFE9169FEFBB
:104A6000F9069FEF09079FEF190709F054C0E0917D
:104A70000C06DD2041F1F0E05F01AA0CBB1CAA0C82
:104A8000BB1C2EE83FE0A20EB31EEE0FFF1FE8573F
:104A9000F04F60817181882777FD8095982F0E9463
:104AA000E1B220E030E040E85FE30E9465B19B01A5
:104AB000AC01F50160817181828193810E9442B4D1
:104AC00087FF60C07CC0F0E05F01AA0CBB1CAA0C91
:104AD000BB1C2EE83FE0A20EB31EEE0FFF1FE857EF
:104AE000F04F60817181882777FD8095982F0E9413
:104AF000E1B220E030E040E85FE30E9466B19B0154
:104B0000AC01F50160817181828193810E943FB285
:104B10001816C4F554C017FD44C0E0910C06F0E02F
:104B20005F01AA0CBB1CAA0CBB1C2EE83FE0A20E26
:104B3000B31EEE0FFF1FE857F04F60817181882789
:104B400077FD8095982F0E94E1B29B01AC01F501A1
:104B500060817181828193810E9465B10E94AEB2B1
:104B6000262F372F482F592F57FF07C050954095B4
:104B7000309521953F4F4F4F5F4F24303105410510
:104B800051057CF00E9472A9E62EF72E082F192FEE
:104B9000FFEFEF16FFEFFF06FFEF0F07FFEF1F0717
:104BA00071F017FF02C00C94B12D0E9472A96E190A
:104BB0007F0927E26031720710F00C94B12D0E943A
:104BC00072A96219730984099509693E33E0730774
:104BD00030E0830730E0930708F0BCCE38CF82E0A6
:104BE00093E00E94AD8883E50E94B714882341F0CA
:104BF0000E94A1140E94AEB270938B0F60938A0F33
:104C00000E9472A97B018C01EFEFF2E0D490EBEFF0
:104C1000F2E0C490E7EFF2E0A490BAE09B2E73C0FC
:104C20000E9472A96E197F09800B910B693EE3E027
:104C30007E07E0E08E07E0E09E0708F45EC0E091AA
:104C40000006F0E0EE0FFF1FEE0FFF1FE257F04FE0
:104C500040815181628173818D2DEFEFF2E008C0B8
:104C60009091C00095FFFCCF8093C600319684914F
:104C70008823B1F780ED94E022E030E00E94271015
:104C80008C2DEBEFF2E008C09091C00095FFFCCFB7
:104C90008093C600319684918823B1F76091000615
:104CA00080ED94E070E04AE050E00E94460F8A2DCB
:104CB000E7EFF2E008C09091C00095FFFCCF809331
:104CC000C600319684918823B1F74091940F50919A
:104CD000950F6091960F7091970F80ED94E021E011
:104CE00030E00E9427108091C00085FFFCCF909299
:104CF000C6000E9472A97B018C010E94CA6C0E94AE
:104D0000391C0E94288960918A0F70918B0F882727
:104D100077FD8095982F0E94E1B22091940F3091F9
:104D2000950F4091960F5091970F0E9442B418161C
:104D30000CF476CF8DEE92E00E94AD8820C783E51B
:104D40000E94B714882311F10E94A11420E030E0E2
:104D5000A9010E943FB287FD0FC00E94A11420E06C
:104D600030E04FE753E40E9442B4181644F00E942A
:104D7000A1140E94AEB205C060E070E002C06FEF07
:104D800070E07093020660930106E8C68FEF90E032
:104D90009093020680930106E1C6109202061092DB
:104DA0000106DCC69D9AA598D9C69D9AA59AD6C635
:104DB0001092D505D3C681E08093D505CFC683E593
:104DC0000E94B714882399F00E94A11420E030E0DB
:104DD0004AE754E40E9414B50E94B3B260932F03D3
:104DE000709330038093310390933203B7C688E504
:104DF0000E94B714882309F0CDC689E50E94B71434
:104E0000882309F0C7C68AE50E94B714882309F0F1
:104E1000C1C685E40E94B714882309F0BBC60E946E
:104E2000E367149A0E94506899C6179A89E50E9410
:104E3000B7148111169A8AE50E94B7148111159A48
:104E400085E40E94B714882309F488C6149A86C69C
:104E500083E50E94B7140E94A11420E030E04AE7E5
:104E600054E40E9414B50E94B3B260931906709383
:104E70001A0680931B0690931C0670C626EA33E040
:104E800038A32F8F07EF19E0E7EEEE2EE9E0FE2EB4
:104E900073E3A72E7AE0B72ECC24EF8DF8A1819191
:104EA000F8A3EF8F0E94B714882309F464C0FC2D87
:104EB000F33009F059C00E94A1141B012C0120E01D
:104EC00030E040EA51E40E943FB287FF47C0F8015A
:104ED0006081718182819381A20191010E9446B219
:104EE000D62E972E882E792E60912B0A70912C0A3F
:104EF00080912D0A90912E0A2D2D392D482D572D58
:104F00000E9414B560932B0A70932C0A80932D0A8B
:104F100090932E0AF70160817181828193812D2DFA
:104F2000392D482D572D0E9414B5F70160837183E8
:104F300082839383F50160817181828193810E94D4
:104F4000DFB22D2D392D482D572D0E9414B50E940A
:104F5000B3B2F5016083718382839383F801208269
:104F600031824282538207C00E94A114F8016083FB
:104F7000718382839383C3940C5F1F4F24E030E0DE
:104F8000E20EF31EA20EB31E3C2D343009F085CF85
:104F9000E5C5E2E5F2E007C09091C00095FFFCCFC7
:104FA0008093C600319684918823B1F7D7C50091CC
:104FB0004806109149060B5F1F4FC8016AE270E076
:104FC0000E9406B1009719F00197FC011082C801F8
:104FD0000E949E88C3C5EFE4F2E007C09091C00034
:104FE00095FFFCCF8093C600319684918823B1F75A
:104FF0004091D8055091D9056091DA057091DB0593
:1050000080ED94E022E030E00E942710ECE4F2E032
:1050100007C09091C00095FFFCCF8093C6003196E9
:1050200084918823B1F74091DC055091DD056091B2
:10503000DE057091DF0580ED94E022E030E00E9413
:105040002710E9E4F2E007C09091C00095FFFCCF83
:105050008093C600319684918823B1F74091E00592
:105060005091E1056091E2057091E30580ED94E0D7
:1050700022E030E00E942710E6E4F2E007C09091C1
:10508000C00095FFFCCF8093C600319684918823A1
:10509000B1F74091E4055091E5056091E605709106
:1050A000E70580ED94E022E030E00E942710EBE37A
:1050B000F2E007C09091C00095FFFCCF8093C6003E
:1050C000319684918823B1F70E943E680E94E1B234
:1050D0002091F7093091F8094091F9095091FA09A6
:1050E0000E9446B2AB01BC0180ED94E022E030E0CA
:1050F0000E942710E8E3F2E007C09091C00095FFFE
:10510000FCCF8093C600319684918823B1F781E06B
:105110000E943E680E94E1B22091FB093091FC0997
:105120004091FD095091FE090E9446B2AB01BC01BD
:1051300080ED94E022E030E00E942710E5E3F2E009
:1051400007C09091C00095FFFCCF8093C6003196B8
:1051500084918823B1F782E00E943E680E94E1B208
:105160002091FF093091000A4091010A5091020AF2
:105170000E9446B2AB01BC0180ED94E022E030E039
:105180000E9427108091C00085FFFCCFE4C480E01E
:1051900001C081E00E94B060E1C49091C00095FF21
:1051A000FCCF8093C60081918823B9F78091C0001D
:1051B00085FFFCCF8AE08093C600EDE2F2E007C0F5
:1051C0009091C00095FFFCCF8093C60031968491EA
:1051D0008823B1F71E9903C0E7E4F2E009C0E1E5D6
:1051E000F2E006C09091C00095FFFCCF8093C6000E
:1051F00081918823B9F78091C00085FFFCCF8AE0B8
:105200008093C600E5E2F2E007C09091C00095FFF0
:10521000FCCF8093C600319684918823B1F7029920
:1052200003C0E7E4F2E009C0E1E5F2E006C09091D6
:10523000C00095FFFCCF8093C60081918823B9F709
:105240008091C00085FFFCCF8AE08093C600EDE12D
:10525000F2E007C09091C00095FFFCCF8093C6009C
:10526000319684918823B1F71D9903C0E7E4F2E0F9
:1052700009C0E1E5F2E006C09091C00095FFFCCFC7
:105280008093C60081918823B9F78091C00085FF83
:10529000FCCF8AE08093C600E5E1F2E007C0909180
:1052A000C00095FFFCCF8093C6003196849188237F
:1052B000B1F7019903C0E7E4F2E009C0E1E5F2E0EB
:1052C00006C09091C00095FFFCCF8093C6008191ED
:1052D0008823B9F78091C00085FFFCCF8AE08093D6
:1052E000C600EDE0F2E007C09091C00095FFFCCF52
:1052F0008093C600319684918823B1F71C9903C02E
:10530000E7E4F2E009C0E1E5F2E006C09091C000F8
:1053100095FFFCCF8093C60081918823B9F78091D7
:10532000C00085FFFCCF8AE08093C600E5E0F2E094
:1053300007C09091C00095FFFCCF8093C6003196C6
:1053400084918823B1F7379903C0E7E4F2E009C0FC
:10535000E1E5F2E006C09091C00095FFFCCF80939C
:10536000C60081918823B9F78091C00085FFFCCFEA
:10537000F2C366EAE62E63E0F62E00E010E0F701E5
:1053800081917F010E94B714882339F10E94A114F2
:1053900057E0C52E5AE0D52EC00ED11E0E94B3B2E2
:1053A000F60160837183828393830E94A11443E397
:1053B000C42E4AE0D42EC00ED11EF801E950F64F9B
:1053C00020813181428153810E9414B50E94B3B281
:1053D000F60160837183828393830C5F1F4F0031DA
:1053E000110569F6BBC306EA13E037EEE32E39E098
:1053F000F32EF80181918F010E94B714882339F0B0
:105400000E94A114F701608371838283938324E057
:1054100030E0E20EF31E33E00A3A130751F79EC361
:1054200083E50E94B714882351F00E94A114609371
:105430001B0A70931C0A80931D0A90931E0A84E530
:105440000E94B714882309F489C30E94A1146093B1
:105450001F0A7093200A8093210A9093220A7EC328
:1054600083E50E94B714882351F00E94A114609331
:10547000170A7093180A8093190A90931A0A84E500
:105480000E94B714882351F00E94A11460932F0A40
:105490007093300A8093310A9093320A82E40E941A
:1054A000B714882361F00E94A1140E94B3B26093E4
:1054B000E3097093E4098093E5099093E60988E590
:1054C0000E94B714882351F00E94A1146093230A0C
:1054D0007093240A8093250A9093260A8AE50E94F5
:1054E000B714882351F00E94A1146093270A709387
:1054F000280A8093290A90932A0A85E40E94B71407
:10550000882309F42BC30E94A11460932B0A709383
:105510002C0A80932D0A90932E0A20C306EA13E0EA
:1055200028EEE22E25E0F22EF80181918F010E94F3
:10553000B714882339F00E94A114F70160837183A6
:105540008283938324E030E0E20EF31E33E0093AD5
:10555000130751F703C383E50E94B714882309F4A6
:10556000FDC20E94A1140E94AEB27093200360930A
:105570001F03F4C283E50E94B714882309F4EEC226
:105580000E94A1140E94AEB2709322036093210383
:10559000E5C280E50E94B714882351F00E94A1144F
:1055A0006093490370934A0380934B0390934C0399
:1055B00089E40E94B714882381F00E94A1142DEB86
:1055C00037E346E05EE30E9414B560934D037093A9
:1055D0004E0380934F039093500384E40E94B714CA
:1055E000882381F00E94A1142DEB37E346E05EE3AF
:1055F0000E9446B260935103709352038093530309
:105600009093540383E40E94B714882351F00E94BE
:10561000A11460935503709356038093570390939E
:1056200058030E94A86CE1E7F2E006C09091C00028
:1056300095FFFCCF8093C60081918823B9F7E4E7FA
:10564000F2E006C09091C00095FFFCCF8093C600A9
:1056500081918823B9F74091490350914A036091A1
:105660004B0370914C0380ED94E022E030E00E9407
:105670002710E8E7F2E006C09091C00095FFFCCF4C
:105680008093C60081918823B9F760914D03709192
:105690004E0380914F03909150032DEB37E346E08A
:1056A0005EE30E9446B2AB01BC0180ED94E022E0D3
:1056B00030E00E942710ECE7F2E006C09091C000B5
:1056C00095FFFCCF8093C60081918823B9F7609144
:1056D00051037091520380915303909154032DEB29
:1056E00037E346E05EE30E9414B5AB01BC0180EDF8
:1056F00094E022E030E00E942710E0E8F2E006C0EB
:105700009091C00095FFFCCF8093C60081918823C3
:10571000B9F76091550370915603809157039091AA
:1057200058032DEB37E346E05EE30E9414B5AB016E
:10573000BC0180ED94E022E030E00E9427108091CF
:10574000C00085FFFCCF07C281E00E94056006C251
:1057500085E40E94B714882341F00E94A1140E949E
:10576000AEB25B0177FD0EC002C0AA24BB240F2E8F
:10577000F0E0EF2EF0E0FF2EF6E10F2FF3E41F2F05
:10578000F02D0AC00F2EF0E0EF2EF0E0FF2EFCE827
:105790000F2FF2E41F2FF02D83E50E94B71488230A
:1057A00021F00E94A1147B018C0183E40E94B714B4
:1057B000882339F00E94A1140E94AEB29B01AC0173
:1057C00002C025E030E0C801B701A5010E94D26FF8
:1057D000C5C10E94E367C2C10E94A40CBFC196EA82
:1057E000E92E93E0F92E00E010E0F70181917F01AE
:1057F0000E94B714882351F00E94A1140E94AEB2F7
:105800009B01AC01802FB9010E948F680F5F1F4F71
:105810000530110551F782E40E94B714882351F036
:105820000E94A1140E94AEB29B01AC0184E0B901B8
:105830000E948F6883E50E94B714882389F000E0F6
:1058400010E00E94A1140E94AEB29B01AC01802F17
:10585000B9010E948F680F5F1F4F0530110589F74E
:1058600080E50E94B714882329F00E94A1140E94A9
:10587000B3B2C62E83E50E94B714882329F00E9494
:10588000A1140E94B3B2D62E8C2D90E06D2D70E045
:105890000E947A6863C183E50E94B714882339F4B3
:1058A00086EAE82E83E0F82E00E010E00FC000E06A
:1058B00010E00E94A1140E94B3B2802F0E942A69B6
:1058C0000F5F1F4F05301105A1F7EACFF701819156
:1058D0007F010E94B714882339F00E94A1140E940E
:1058E000B3B2802F0E942A690F5F1F4F0530110548
:1058F00069F782E40E94B714882309F469C00E9402
:10590000A1140E94B3B284E00E942A6961C083E5B9
:105910000E94B714882309F45BC00E94A1140E945E
:10592000AEB26130710529F06230710509F050C0E6
:1059300026C006EAE02E03E0F02E00E010E0F701BA
:1059400081917F010E94B714882341F00E94A11425
:105950000E94AEB2802F4FEF0E94EC680F5F1F4F86
:105960000530110561F782E40E94B714882381F1A4
:105970000E94A1140E94AEB284E04FEF27C016EA45
:10598000E12E13E0F12E00E010E0F70181917F019C
:105990000E94B714882349F00E94A1140E94AEB25D
:1059A000462F802F6FEF0E94EC680F5F1F4F05306E
:1059B000110559F782E40E94B714882349F00E9428
:1059C000A1140E94AEB2462F84E06FEF0E94EC68F3
:1059D0000E94FC69C3C010920B060E94C48880918B
:1059E000110690911206A0911306B09114068093AF
:1059F0000D0690930E06A0930F06B09310060E941A
:105A00000015ACC084E50E94B714882309F45FC078
:105A10000E94A1140E94B3B260930C06EFE2F1E081
:105A2000662371F107C09091C00095FFFCCF809371
:105A3000C600319684918823B1F7E4E8F2E006C00D
:105A40009091C00095FFFCCF8093C6008191882380
:105A5000B9F780ED94E040E050E00E94090FE6E8DD
:105A6000F2E006C09091C00095FFFCCF8093C60085
:105A700081918823B9F78091C00085FFFCCF6BC06E
:105A80001092000607C09091C00095FFFCCF809354
:105A9000C600319684918823B1F7E7E9F2E006C0A9
:105AA0009091C00095FFFCCF8093C6008191882320
:105AB000B9F76091000680ED94E070E04AE050E0B4
:105AC0000E94460F8091C00085FFFCCF44C0EFE2EA
:105AD000F1E007C09091C00095FFFCCF8093C60015
