:100000000C94710C0C94A20C0C94A20C0C94A20CE9
:100010000C94A20C0C94A20C0C94A20C0C94A20CA8
:100020000C94A20C0C94A20C0C94A20C0C94A20C98
:100030000C94A20C0C94A20C0C94A20C0C94A20C88
:100040000C94A20C0C94B9600C94A20C0C94A20C0D
:100050000C94A20C0C94A20C0C94B1750C942AA9CB
:100060000C94A20C0C9411370C94A20C0C94A20CBE
:100070000C94A20C0C94A20C0C94A20C0C94A20C48
:100080000C94A20C0C94A20C0C94A20C0C94A20C38
:100090000C94A20C0C94A20C0C94A20C0C94A20C28
:1000A0000C94A20C0C94A20C0C94A20C0C94A20C18
:1000B0000C94A20C0C94A20C0C94A20C0C94A20C08
:1000C0000C94A20C0C94A20C0C94A20C0C94A20CF8
:1000D0000C94A20C0C94A20C0C94A20C0C94A20CE8
:1000E0000C94A20C084AD73B3BCE016E84BCBFFDEA
:1000F000C12F3D6C74319ABD56833DDA3D00C77FF8
:1001000011BED9E4BB4C3E916BAAAABE0000008090
:100110003F05A84CCDB2D44EB93836A9020C50B91F
:10012000918688083CA6AAAA2ABE000000803F4DFE
:10013000383420582059205A2045006563686F3AAA
:100140000043616E6E6F7420656E74657220737506
:10015000626469723A20004D3234004D32332025FA
:1001600073006175746F25692E67004572726F7236
:100170003A006572726F722077726974696E6720D7
:10018000746F2066696C65004E6F74205344207054
:1001900072696E74696E67002F0053442070726933
:1001A0006E74696E67206279746520002E00446564
:1001B0006C6574696F6E206661696C65642C20469D
:1001C000696C653A200046696C652064656C6574ED
:1001D00065643A002E006F70656E206661696C651B
:1001E000642C2046696C653A200057726974696E08
:1001F0006720746F2066696C653A20002E006F706E
:10020000656E206661696C65642C2046696C653A90
:1002100020002E006F70656E206661696C65642C2D
:100220002046696C653A200046696C652073656CF0
:100230006563746564002053697A653A20004669F5
:100240006C65206F70656E65643A20002E006F70DB
:10025000656E206661696C65642C2046696C653A40
:10026000200053442063617264206F6B006F7065DF
:100270006E526F6F74206661696C656400766F6C96
:10028000756D652E696E6974206661696C656400C0
:10029000534420696E6974206661696C0065636807
:1002A0006F3A004572726F723A0053544F50504586
:1002B000442E20005072696E7465722073746F70E2
:1002C0007065642064756520746F206572726F724A
:1002D000732E2046697820746865206572726F728B
:1002E00020616E6420757365204D39393920746F33
:1002F00020726573746172742E202854656D706568
:100300007261747572652069732072657365742EED
:10031000205365742069742061667465722072656B
:100320007374617274696E6729004B494C4C454483
:100330002E20005072696E7465722068616C74655D
:10034000642E206B696C6C28292063616C6C656479
:1003500021006F6B00526573656E643A20002200C5
:10036000556E6B6E6F776E20636F6D6D616E643A64
:100370002022007A5F6D61783A20007A5F6D696EA5
:100380003A2000795F6D61783A2000795F6D696E7F
:100390003A2000785F6D61783A2000785F6D696E71
:1003A0003A20005A3A00593A0020436F756E742083
:1003B000583A2000453A005A3A00593A00583A0053
:1003C0004649524D574152455F4E414D453A4D6168
:1003D000726C696E2056313B20537072696E746581
:1003E000722F6772626C206D617368757020666F22
:1003F000722067656E36204649524D574152455F1F
:1004000055524C3A687474703A2F2F7777772E6D67
:10041000656E64656C2D70617274732E636F6D20F0
:1004200050524F544F434F4C5F56455253494F4ED5
:100430003A312E30204D414348494E455F54595082
:10044000453A4D656E64656C204558545255444597
:10045000525F434F554E543A310A0042656420645E
:100460006F6E652E0020423A0020453A00543A0053
:100470004265642048656174696E672E0048656155
:1004800074696E6720646F6E652E0020573A0020F5
:10049000453A00543A0048656174696E672E2E2E05
:1004A000002042403A0020403A00202F0020423AEB
:1004B00000202F006F6B20543A002569206D696E73
:1004C0002C2025692073656300456E642066696C85
:1004D00065206C69737400426567696E2066696C9B
:1004E00065206C697374004E6F206D6F76652E0009
:1004F000526573756D696E67207072696E7400570E
:1005000061697420666F7220757365722E2E2E00DD
:10051000536C6565702E2E2E0000002A4300003EAD
:10052000430000AA420000A0400000A0400000805C
:100530003FFFFFFF0000000000000000000000007F
:1005400000000000000000000000000000002A433E
:1005500000003E430000AA42256920686F7572734F
:10056000202569206D696E7574657300446F6E6532
:10057000207072696E74696E672066696C650053DD
:10058000544F505045442E20005072696E7465726D
:100590002073746F707065642064756520746F20BB
:1005A0006572726F72732E204669782074686520B8
:1005B0006572726F7220616E6420757365204D39AB
:1005C000393920746F20726573746172742E20281B
:1005D00054656D70657261747572652069732072FF
:1005E000657365742E205365742069742061667488
:1005F00065722072657374617274696E6729006F29
:100600006B004E6F204C696E65204E756D62657291
:10061000207769746820636865636B73756D2C203F
:100620004C617374204C696E653A20004E6F204314
:100630006865636B73756D2077697468206C696E8B
:1006400065206E756D6265722C204C617374204C50
:10065000696E653A2000636865636B73756D206D24
:1006600069736D617463682C204C617374204C69EC
:100670006E653A20004C696E65204E756D6265723C
:10068000206973206E6F74204C617374204C696E06
:1006900065204E756D6265722B312C204C61737430
:1006A000204C696E653A20004D31313000446F6E48
:1006B0006520736176696E672066696C652E006FD0
:1006C0006B004D3239002020506C616E6E657242B5
:1006D000756666657242797465733A2000204672C9
:1006E0006565204D656D6F72793A20004D6172200D
:1006F0003131203230313300436F6D70696C656485
:100700003A2000286E6F6E652C2064656661756CFA
:100710007420636F6E6669672900207C20417574C0
:10072000686F723A20004D617220313120323031D1
:10073000332031323A34383A343500204C61737406
:1007400020557064617465643A2000312E302E307B
:10075000004D61726C696E200020536F6674776182
:100760007265205265736574002057617463686414
:100770006F67205265736574002042726F776E2038
:100780006F757420526573657400204578746572C6
:100790006E616C20526573657400506F7765725599
:1007A00070007374617274002200656E7175656902
:1007B0006E672022002200656E717565696E672084
:1007C00022006563686F3A0020746F6F206C6F6E53
:1007D0006720657874727573696F6E2070726576C4
:1007E000656E7465640020636F6C64206578747254
:1007F0007573696F6E2070726576656E74656400DE
:100800007C3C3E5E2B3D3F2F5B5D3B2C2A225C00F7
:1008100045313A200045303A20005A3A2000593AF2
:100820002000583A20004D53312C4D53322050694E
:100830006E730A0024F404D9201BC40C5C0E9804C7
:10084000C4095F0265077101F405F900FB04B300F8
:1008500048048700C103690058035500030345009D
:10086000BE023A008402310053022A002902250008
:1008700004022000E4011C00C8011900AF011700A8
:10088000980114008401130071011000610110002F
:1008900051010E0043010D0036010B002B010B002E
:1008A00020010B00150109000C01090003010800DB
:1008B000FB000800F3000800EB000700E40006005E
:1008C000DE000600D8000600D2000600CC000500BD
:1008D000C7000500C2000500BD000400B900040007
:1008E000B5000400B1000400AD000400A90004003C
:1008F000A5000300A20003009F0004009B0003006A
:10090000980003009500020093000300900003008C
:100910008D0002008B0003008800020086000200A8
:1009200084000300810002007F0002007D000200BD
:100930007B000200790002007700010076000200CF
:100940007400020072000100710002006F000200DA
:100950006D0001006C0002006A00010069000200E5
:1009600067000100660001006500010064000200EC
:100970006200010061000100600001005F000200F0
:100980005D0001005C0001005B0001005A000100F5
:1009900059000100580001005700010056000100F5
:1009A00055000100540001005300000053000100F5
:1009B0005200010051000100500001004F000100F1
:1009C0004E0000004E0001004D0001004C000100EF
:1009D0004B0000004B0001004A00010049000100EB
:1009E00048000000480001004700010046000000E8
:1009F00046000100450000004500010044000100E0
:100A000043000000430001004200000042000100DA
:100A10004100000041000100400001003F000000D3
:100A20003F0001003E0000003E0001003D000000CC
:100A30003D0001003C0000003C0000003C000100C3
:100A40003B0000003B0001003A0000003A000100BA
:100A500039000000390001003800000038000000B3
:100A600038000100370000003700010036000000A8
:100A7000360000003600010035000000350000009F
:100A80003500010034000000340000003400010093
:100A9000330000003300000033000100320000008A
:100AA000320000003200010031000000310000007F
:100AB0003100010030000000300000003000010073
:100AC0002F0000002F0000002F0000002F00010069
:100AD0002E0000002E0000002E0001002D0000005E
:100AE0002D0000002D0000002D0001002C00000052
:100AF0002C0000002C0000002C0001002B00000046
:100B00002B0000002B0000002B0001002A00000039
:100B10002A0000002A0000002A000100290000002D
:100B20002900000029000000290000002900010020
:100B30002800000028000000280000002800000015
:100B40002800010027000000270000002700000007
:100B500027000000270001002600000026000000FA
:100B600026000000260000002600010025000000ED
:100B700025000000250000002500000025000000E1
:100B800025000100240000002400000024000000D3
:100B900024000000240001002300000023000000C6
:100BA00023000000230000002300000023000000B9
:100BB00023000100220000002200000022000000AB
:100BC000220000002200000022000100210000009D
:100BD0002100000021000000210000002100000091
:100BE0002100000021000100200000002000000082
:100BF0002000000020000000200000002000000075
:100C000020000000200001001F0000001F00000065
:100C10001F0000001F0000001F0000001F00000058
:100C20001F0001001E0000001E0000001E0000004A
:100C30001E00000024F4D43050C38E20C2A24017FE
:100C4000828B7011127A910D816CD90AA861E1082A
:100C5000C7586607615143061E4B5D05C145A70491
:100C60001A411104093D9803713931034036DB0202
:100C700065339102D4305402802E1D02632CEE01A4
:100C8000752AC501B028A001102781018F256401B4
:100C90002B244B01E0223401AC211F018D200D01DA
:100CA000801FFC00841EED00971DDF00B81CD200E1
:100CB000E61BC600201BBC00641AB200B219A800D3
:100CC0000A19A0006A189900D117910040178B00EB
:100CD000B516840031167E00B31579003A157300FD
:100CE000C7146F0058146A00EE136600881363007F
:100CF00025135E00C7125B006C12570015125400DA
:100D0000C111510070114F0021114B00D610490044
:100D10008D1047004610440002104200C00F4000F2
:100D2000800F3E00420F3C00060F3B00CB0E380008
:100D3000930E37005C0E3500270E3400F30D3200A1
:100D4000C10D3100900D3000600D2E00320D2D00D0
:100D5000050D2C00D90C2B00AE0C2900850C2900A8
:100D60005C0C2700350C27000E0C2600E80B240035
:100D7000C40B2400A00B23007D0B23005A0B210081
:100D8000390B2100180B2000F80A1F00D90A1E0099
:100D9000BB0A1E009D0A1D00800A1D00630A1C007C
:100DA000470A1B002C0A1B00110A1A00F7091A0037
:100DB000DD091900C4091900AB09190092091700CF
:100DC0007B091800630917004C0916003609160044
:100DD000200916000A091500F5081500E00814009E
:100DE000CC081400B8081400A408140090081300DC
:100DF0007D0812006B081300580812004608120004
:100E00003408110023081100120811000108110014
:100E1000F0071000E0071000D0071000C007100016
:100E2000B0070F00A107100091070E0083070F0005
:100E300074070F0065070E0057070E0049070E00E4
:100E40003B070D002E070E0020070D0013070D00B5
:100E500006070D00F9060C00ED060D00E0060C007B
:100E6000D4060C00C8060C00BC060C00B0060C0032
:100E7000A4060B0099060C008D060B0082060B00E1
:100E800077060B006C060B0061060A0057060B0084
:100E90004C060A0042060A0038060A002E060A001E
:100EA00024060A001A060A001006090007060A00AE
:100EB000FD050900F4050900EB050900E20509003C
:100EC000D9050900D0050900C7050900BE050900BC
:100ED000B5050800AD050800A50509009C0508003A
:100EE000940508008C050800840508007C050800AE
:100EF000740508006C050700650508005D0507001E
:100F0000560508004E050700470507004005080084
:100F100038050700310507002A05070023050700EB
:100F20001C050600160507000F050700080506004A
:100F300002050700FB040600F5040700EE040600A6
:100F4000E8040600E2040700DB040600D5040600FE
:100F5000CF040600C9040600C3040600BD04060051
:100F6000B7040600B1040500AC040600A6040600A0
:100F7000A00405009B0406009504050090040600EB
:100F80008A04050085040500800406007A04050033
:100F900075040500700405006B0405006604050077
:100FA000610405005C0405005704050052040500B7
:100FB0004D04050048040500430405003E040400F8
:100FC0003A04050035040500300404002C04050033
:100FD00027040400230405001E0404001A0404006E
:100FE00016040500110404000D04040009040500A2
:100FF0000404040000040400FC030400F8030400DB
:10100000F4030400F0030400EC030400E80304000C
:10101000E4030400E0030400DC030400D80304003C
:10102000D4030400D0030400CC030400C80303006D
:10103000C50303006563686F3A00656E6473746F7F
:101040007073206869743A205A00205A3A00656E1D
:101050006473746F7073206869743A205900205962
:101060003A00656E6473746F7073206869743A2017
:10107000580020583A00656E6473746F707320686E
:1010800069743A20004572726F723A004572723A82
:10109000204D415854454D50204245440054656D03
:1010A000706572617475726520686561746564202D
:1010B000626564207377697463686564206F66662F
:1010C0002E204D415854454D502074726967676514
:1010D000726564202121004572723A204D494E54B8
:1010E000454D50003A2045787472756465722073DE
:1010F00077697463686564206F66662E204D494E7B
:1011000054454D502074726967676572656420218B
:10111000004572723A204D415854454D50003A20D6
:101120004578747275646572207377697463686555
:1011300064206F66662E204D415854454D502074F2
:101140007269676765726564202100202D20496EF1
:1011500076616C6964206578747275646572206E5E
:10116000756D62657220210070012C0190012701CC
:10117000B0012201C0011D01F0011801100213018C
:1011800030020E016002090190020401C002FF005A
:101190000003FA004003F5008003F000D003EB00E9
:1011A0002004E6007004E100E004DC004005D70004
:1011B000C005D2004006CD00D006C8008007C3009D
:1011C0003008BE00F008B900C009B400B00AAF0092
:1011D000B00BAA00D00CA500000EA000500F9B0081
:1011E000C01096005012910000148C00C0158700AA
:1011F000B0178200B0197D00D01B7800001E73006C
:1012000040206E0090226900F024640040275F00B7
:1012100090295A00E02B5500102E500020304B0032
:1012200010324600E033410090353C001037370063
:1012300070383200A0392D00B03A2800A03B2300BE
:10124000603C1E00103D1900903D1400103E0F0040
:10125000703E0A00C03E0500003F00005049442097
:101260004175746F74756E652066696E6973686523
:1012700064202120506C61636520746865204B7088
:101280002C204B6920616E64204B6420636F6E7369
:1012900074616E747320696E2074686520636F6E6C
:1012A00066696775726174696F6E2E680050494493
:1012B000204175746F74756E65206661696C656434
:1012C000212074696D656F75740020403A006F6B62
:1012D00020543A006F6B20423A0050494420417537
:1012E000746F74756E65206661696C656421205445
:1012F000656D706572617475726520746F206869C0
:10130000676800204B643A2000204B693A20002097
:101310004B703A200020436C61736963205049444C
:1013200020002054753A2000204B753A2000206D93
:1013300061783A2000206D696E3A200020643A20DE
:101340000020626961733A20002D2D3A2D2D002D69
:101350002D2D005344002059000120000120004E93
:101360006F20436172640043617264204D656E7545
:101370000053746F70205072696E740052657375FB
:101380006D65205072696E740050617573652050F0
:1013900072696E7400436F6E74726F6C0050726588
:1013A000706172650054756E650057617463680002
:1013B000052E2E004D61696E004D3234004D3233E2
:1013C000202573004D383420582059205A204500DC
:1013D000526573746F7265204661696C73616665EE
:1013E000004D6F74696F6E0054656D706572617445
:1013F000757265004D61696E004573746570732F79
:101400006D6D004573746570732F6D6D005A737444
:101410006570732F6D6D005A73746570732F6D6DE9
:10142000005973746570732F6D6D00597374657016
:10143000732F6D6D005873746570732F6D6D005848
:1014400073746570732F6D6D00412D7265747261D8
:10145000637400412D7265747261637400416D6143
:1014600078206500416D6178206500416D617820CC
:101470007A00416D6178207A00416D6178207900B1
:10148000416D6178207900416D6178207800416D6F
:1014900061782078005654726176206D696E00562E
:1014A00054726176206D696E00566D696E00566DDE
:1014B000696E00566D6178206500566D6178206513
:1014C00000566D6178207A00566D6178207A00565A
:1014D0006D6178207900566D6178207900566D61D4
:1014E00078207800566D61782078005678792D6ADA
:1014F00065726B005678792D6A65726B0041636383
:10150000656C00416363656C00436F6E74726F6C51
:1015100000507265686561742041425320436F6ECC
:1015200066005072656865617420504C4120436FBD
:101530006E66005049442D43005049442D430050ED
:1015400049442D44005049442D44005049442D49FC
:10155000005049442D49005049442D500050494401
:101560002D50002002204661637400200220466155
:101570006374002002204D6178002002204D6178C4
:10158000002002204D696E002002204D696E004F40
:101590006666004F6E20004F6666004F6E20004169
:1015A00075746F74656D700046616E20737065654B
:1015B000640046616E207370656564004265640076
:1015C000426564004E6F7A7A6C65004E6F7A7A6C71
:1015D0006500436F6E74726F6C0042656400426513
:1015E00064004E6F7A7A6C65004E6F7A7A6C650093
:1015F00046616E2073706565640046616E2073708D
:101600006565640054656D7065726174757265001E
:1016100042656400426564004E6F7A7A6C65004EE4
:101620006F7A7A6C650046616E2073706565640040
:1016300046616E2073706565640054656D706572F7
:101640006174757265004D6F76652041786973002D
:101650004D3130342053300A4D3134302053300076
:10166000436F6F6C646F776E00507265686561746C
:1016700020414253005072656865617420504C41AE
:1016800000473238004175746F20486F6D65004D1A
:1016900038340044697361626C65205374657070FE
:1016A000657273004D61696E004D6F766520302E56
:1016B000316D6D004D6F766520316D6D004D6F762B
:1016C000652031306D6D0050726570617265004546
:1016D00078747275646572004D6F7665205A004D9E
:1016E0006F76652059004D6F76652058004D6F76F6
:1016F000652041786973004578747275646572007D
:101700005A0059005800466C6F7700466C6F77009E
:1017100046616E2073706565640046616E2073706B
:101720006565640042656400426564004E6F7A7AC4
:101730006C65004E6F7A7A6C650053706565640065
:101740005370656564004D61696E00436172642089
:1017500072656D6F766564004361726420696E73B3
:1017600065727465640000002100240027002A00CF
:101770002D003000330001010000040107010A01BF
:1017800000002200250028002B002E00310034002C
:1017900002010000050108010B01000020002300E8
:1017A000260029002C002F00320000010000030158
:1017B00006010901050505050705080808080202D4
:1017C00002020A0A080804040404010101010101DB
:1017D00001010303030303030303040707070C0CBE
:1017E0000C0C0C0C0C0C0202020206060606060685
:1017F00006060B0B0B0B0B0B0B0B07070A0A0A0A4F
:101800000A0A0505050401021020200808102040DE
:1018100010204080020102010804020101020408B4
:101820001020408080402010080402018004020142
:10183000804020100804020108040201010204088B
:101840001020408001020408102040801008040885
:1018500080102040044080100000090A02080B0C90
:101860000D07060304010000000000000000000056
:101870000000000000000000000000000000000068
:101880000000000011100F00000000000000000028
:101890000000000000000000000000000000494EB1
:1018A00046494E4954594E414ECDCCCC3D0AD723E2
:1018B0003C17B7D13877CC2B329595E6241FB14F22
:1018C0000A000020410000C84200401C4620BCBE67
:1018D0004CCA1B0E5AAEC59D740007375A393CA836
:1018E0000C3711241FBECFEFD1E2DEBFCDBF00E029
:1018F0000CBF14E0A0E0B2E0ECE4F2E701E00BBFC3
:1019000002C007900D92AC34B107D9F710E1ACE4F6
:10191000B4E001C01D92AD33B107E1F718E1C0EEAC
:10192000D8E100E006C022970109FE010BBF0E942A
:1019300010B9CA3DD10780E00807A9F70E9433AB70
:101940000C9481B00C9400000F931F93CF93DF93FE
:10195000EC018B0141E00E94B55E882331F4CE0199
:10196000B80140E00E94B55E01C081E0DF91CF91F7
:101970001F910F910895FC012381222311F00E94F1
:101980004756089540E050E0BA010E94505508952E
:1019900026EE33E0FC013183208304960E94BB0CC9
:1019A0000895CF93DF93FC0112AA15AA11AA10AAD9
:1019B00086EE93E097A786A7DF01AD5ABF4F1C9232
:1019C000DF01AA5ABF4F1C92DF01AF5ABF4F1D92D1
:1019D0001C92DF01A15BBF4F8D939C93DF01AE583A
:1019E000BF4F1C92DF01AB58BF4F1C92DF01A059C3
:1019F000BF4F1D921C92DF01A259BF4F8D939C9344
:101A0000DF01AF56BF4F1C92DF01AC56BF4F1C9297
:101A1000DF01A157BF4F1D921C92DF01A357BF4F9B
:101A20008D939C93DF01A355BF4F29E12C93DF01D8
:101A3000A055BF4F1C92DF01A853BF4F1C92DF017E
:101A4000AD52BF4F1C92DF01AA52BF4F1C92DF0163
:101A5000AF52BF4F1D921C92DF01A153BF4F8D9318
:101A60009C93DF01A251BF4F1D921D921D921C92AB
:101A70001397DF01AA50BF4F1D921D921D921C9219
:101A80001397118212821082EF01CE50DF4F18821D
:101A900019821A821B82DF01A650BF4F81E08C930E
:101AA00015A614A60E9472A968577C4E8F4F9F4FAF
:101AB000688379838A839B83DF91CF910895A62FD2
:101AC000B72FE82FF92F20E03EE24C91403229F069
:101AD000283009F431934C9141932F5F11962B30AC
:101AE000A1F7108208952F923F924F925F926F92CA
:101AF0007F928F929F92AF92BF92CF92DF92EF929E
:101B0000FF920F931F93DF93CF93CDB7DEB7CF58DC
:101B1000D0400FB6F894DEBF0FBECDBF7C012B01C5
:101B20003A01CA57DF4F1882C658D04084E090E08F
:101B3000680E791E8E010A591F4FF7017096C5571E
:101B4000DF4FF983E883CB58D040C7010396C757CE
:101B5000DF4F99838883C958D0402BEF222E312C38
:101B60002E0C3F1CF701E350FF4FC957DF4FF9839D
:101B7000E883C758D0404E010894811C911C9EE018
:101B8000C92ED12CCC0EDD1E87E4A82EB12CAC0EB4
:101B9000BD1EC5010496C357DF4F99838883CD5876
:101BA000D040EBE3F1E09491C157DF4F9883CF58D9
:101BB000D0401EC1F801438550E0CA018871907081
:101BC0008031910509F022C1F1012081318121305C
:101BD000310509F41BC12230310509F417C1C401D4
:101BE000B8010E945F0D1E86F2018081882329F4CE
:101BF000C60160E072E00E94FBB0C601B2010E9423
:101C0000FBB0C601B4010E94FBB0C60160E072E007
:101C10000E94FBB01CA61FA61BA61AA686EE93E088
:101C200099A788A7CE018C96B301A40121E00E9458
:101C30008158882309F03CC0F1018081918100978F
:101C4000B9F5C157DF4F8881CF58D040EBE3F1E0C1
:101C500008C09091C00095FFFCCF8093C6003196DC
:101C600084918823B1F7E2E0F2E006C09091C000D1
:101C700095FFFCCF8093C60081918823B9F78091AE
:101C8000C00085FFFCCFFAE0F093C600F40106C067
:101C90009091C00095FFFCCF8093C600819188236E
:101CA000B9F78091C00085FFFCCF8AE08093C60021
:101CB000C357DF4FA881B981CD58D040FE01BC96F3
:101CC0008BE101900D928150E1F78AA59BA5F5016A
:101CD0009383828386EE93E091838083C701B6016C
:101CE000A5010E94730DC5010E94C80CCE01889603
:101CF0000E94C80C7DC0253E09F47AC02E3209F43A
:101D000077C02F3509F474C043FD72C021E08031E3
:101D1000910509F020E0F70123A7222349F4F801F7
:101D20008085873409F064C081858E3709F460C0EE
:101D3000C757DF4F88819981C958D040B8010E94A8
:101D40005F0DF10180819181009719F5F20106C0C4
:101D50009091C00095FFFCCF8093C60081918823AD
:101D6000B9F7C757DF4FE881F981C958D04006C09D
:101D70009091C00095FFFCCF8093C600819188238D
:101D8000B9F78091C00085FFFCCFFAE0F093C60060
:101D90002FC08130910561F4C957DF4FE881F98187
:101DA000C758D0408081918101969183808320C063
:101DB00082309105E9F4CA57DF4FF881C658D04008
:101DC0002F2F30E0C957DF4FE881F981C758D04045
:101DD0008081918128173907F1F0CA57DF4FF881C8
:101DE000C658D040FF5FCA57DF4FF883C658D0406F
:101DF000C301B801C557DF4F48815981CB58D04046
:101E00000E94855418160CF4D5CE05C0F801208127
:101E1000222309F070CFC157DF4F0FB6F894DEBF11
:101E20000FBECDBFCF91DF911F910F91FF90EF902B
:101E3000DF90CF90BF90AF909F908F907F906F90EA
:101E40005F904F903F902F900895EF92FF920F93E5
:101E50001F93DF93CF93CDB7DEB76F970FB6F8948C
:101E6000DEBF0FBECDBF8C01FC01E550FF4F1182DC
:101E7000108232E3E32EF12CE80EF91EC7010E9416
:101E8000C20CDE011596F7018BE101900D92815095
:101E9000E1F7F80180A991A99C838B8386EE93E0FA
:101EA0009A838983C80165E172E08E010F5F1F4F3D
:101EB000A8010E94730DC8010E94C80C6F960FB64E
:101EC000F894DEBF0FBECDBFCF91DF911F910F9170
:101ED000FF90EF900895EF92FF920F931F93CF938F
:101EE000DF938C01DC0112961C921297D5968C918F
:101EF000D597882321F0C801C2960E9447564CEA24
:101F0000E42EF12CE00EF11EC70160E045E30E94D3
:101F100048508823F9F4EBE3F1E007C09091C0004A
:101F200095FFFCCF8093C600319684918823B1F74A
:101F3000E0E9F2E007C09091C00095FFFCCF8093EC
:101F4000C600319684918823B1F78091C00085FF47
:101F5000FCCF6FC0E801CF54DF4FCE01B7010E9424
:101F6000A40C8823F9F4EBE6F1E007C09091C000DF
:101F700095FFFCCF8093C600319684918823B1F7FA
:101F8000EDE7F2E007C09091C00095FFFCCF809391
:101F9000C600319684918823B1F78091C00085FFF7
:101FA000FCCF47C0C801C296BE010E94E7528823F9
:101FB000F9F4EBE6F1E007C09091C00095FFFCCF8B
:101FC0008093C600319684918823B1F7EDE6F2E064
:101FD00007C09091C00095FFFCCF8093C60031965A
:101FE00084918823B1F78091C00085FFFCCF21C088
:101FF00081E0F8018283EBE3F1E007C09091C0003B
:1020000095FFFCCF8093C600319684918823B1F769
:10201000E2E6F2E007C09091C00095FFFCCF80930C
:10202000C600319684918823B1F78091C00085FF66
:10203000FCCF8AE08093C600D801AD5ABF4FF801AB
:10204000F2968BE101900D928150E1F7F801EF5A81
:10205000FF4FD801D0968D919C91D1979183808329
:10206000F801E35BFF4F025D1F4F11830083DF9197
:10207000CF911F910F91FF90EF900895FC01118275
:1020800012820895FC018281882311F081E081830E
:102090000895FC0181818111118208952F923F9250
:1020A0004F925F926F927F928F929F92AF92BF9268
:1020B000CF92DF92EF92FF920F931F93DF93CF9314
:1020C000CDB7DEB7AD970FB6F894DEBF0FBECDBF6C
:1020D0007C014B014DA7FC018281882309F4C7C113
:1020E00053ED452E512C4E0C5F1CC2010E944756E9
:1020F000F70111821A8A1D8A198A188A86EE93E0DE
:102100009F878E878701035B1F4FC7018E96F8015B
:1021100091838083F40180818F3209F089C0C401EA
:102120006FE270E00E9406B16C010894C11CD11CE2
:102130005E010894A11CB11C180175C0C6016FE2B4
:1021400070E00E9406B13C01009709F47AC0C816FD
:10215000D90608F076C08C010C191D09C501B6011D
:10216000A8010E9426B1F501E00FF11F1082850140
:10217000F50106C09091C00095FFFCCF8093C6008A
:1021800081918823B9F78091C00085FFFCCFFAE0E8
:10219000F093C600F101608171816115710519F03C
:1021A0006C5F7F4F02C060E070E0CE014296A501F7
:1021B00021E00E948158882359F5EEE4F2E007C03F
:1021C0009091C00095FFFCCF8093C600319684911A
:1021D0008823B1F706C09091C00095FFFCCF809393
:1021E000C600F80181918F018823A9F7ECE4F2E0A1
:1021F00007C09091C00095FFFCCF8093C600319638
:1022000084918823B1F78091C00085FFFCCF01C184
:102210008EE090E08C0F9D1FF1019183808363011C
:102220000894C11CD11CC114D10409F087CF06C089
:10223000C701815B9F4FF80191838083082DC92CD2
:1022400002C00C2DCD2CF701E35BFF4F8DA5882339
:1022500009F4A2C0608171816115710519F06C5F8C
:102260007F4F02C060E070E0C201402F5C2D21E092
:102270000E948158882309F463C0F701E251FF4F9F
:10228000D701AC51BF4F8D919D910D90BC91A02D68
:1022900080839183A283B383EEE3F2E007C0909141
:1022A000C00095FFFCCF8093C600319684918823AF
:1022B000B1F7802F9C2DFC0106C09091C00095FFC6
:1022C000FCCF8093C60081918823B9F7E6E3F2E062
:1022D00007C09091C00095FFFCCF8093C600319657
:1022E00084918823B1F7F701E251FF4F408151817A
:1022F0006281738185ED97E02AE030E00E942C38FE
:102300008091C00085FFFCCF8AE08093C600F70172
:10231000EA50FF4F1082118212821382E8E2F2E04B
:1023200007C09091C00095FFFCCF8093C600319606
:1023300084918823B1F78091C00085FFFCCF8CC0C9
:10234000E4E1F2E007C09091C00095FFFCCF8093DC
:10235000C600319684918823B1F7802F9C2DFC0113
:1023600006C09091C00095FFFCCF8093C60081917C
:102370008823B9F7E2E1F2E007C09091C00095FF31
:10238000FCCF8093C600319684918823B1F7809169
:10239000C00085FFFCCF3DC0608171816115710572
:1023A00019F06C5F7F4F02C060E070E0C201402F07
:1023B0005C2D26E50E948158882379F5EEEFF1E047
:1023C00007C09091C00095FFFCCF8093C600319666
:1023D00084918823B1F7802F9C2DFC0106C0909139
:1023E000C00095FFFCCF8093C60081918823B9F788
:1023F000ECEFF1E007C09091C00095FFFCCF809317
:10240000C600319684918823B1F78091C00085FF82
:10241000FCCF8AE08093C60026C081E0F70180836C
:10242000EAEEF1E007C09091C00095FFFCCF8093E9
:10243000C600319684918823B1F7F40106C09091CB
:10244000C00095FFFCCF8093C60081918823B9F727
:102450008091C00085FFFCCF8AE08093C600802F6A
:102460009C2D0E949E88CE010E960E94C80CAD96AF
:102470000FB6F894DEBF0FBECDBFCF91DF911F9195
:102480000F91FF90EF90DF90CF90BF90AF909F9013
:102490008F907F906F905F904F903F902F90089516
:1024A0002F923F924F925F926F927F928F929F9264
:1024B000AF92BF92CF92DF92EF92FF920F931F9352
:1024C000DF93CF93CDB7DEB7AC970FB6F894DEBFEE
:1024D0000FBECDBF6C013B01FC018281882309F452
:1024E00016C1C6018D529F4F0E944756F6011182B8
:1024F0001A8A1D8A198A188A86EE93E09F878E872A
:102500008601035B1F4FC6018E96F801918380837D
:10251000F30180818F3209F08AC0C3016FE270E05D
:102520000E9406B17C010894E11CF11C5E01089434
:10253000A11CB11C28016EE0262E312C2C0E3D1E54
:1025400071C0C7016FE270E00E9406B14C010097B4
:1025500009F476C0E816F90608F072C08C010E196D
:102560001F09C501B701A8010E9426B1F501E00FBE
:10257000F11F10828501F50106C09091C00095FF02
:10258000FCCF8093C60081918823B9F78091C00069
:1025900085FFFCCFFAE0F093C600F2016081718103
:1025A0006115710519F06C5F7F4F02C060E070E04B
:1025B000CE014296A50121E00E948158882359F559
:1025C000E6EDF1E007C09091C00095FFFCCF80934D
:1025D000C600319684918823B1F706C09091C0005F
:1025E00095FFFCCF8093C600F80181918F0188236D
:1025F000A9F7E4EDF1E007C09091C00095FFFCCF92
:102600008093C600319684918823B1F78091C000F1
:1026100085FFFCCF75C0F2013182208274010894DD
:10262000E11CF11CE114F10409F08BCF06C0C601D6
:10263000815B9F4FF80191838083062DE72C02C0B8
:102640000E2DEF2CF601E35BFF4F80819181009707
:1026500011F0049602C080E090E0602F7E2D0E9471
:102660004C59882311F1E6ECF1E007C09091C000CD
:1026700095FFFCCF8093C600319684918823B1F7F3
:10268000802F9E2DFC0106C09091C00095FFFCCFCD
:102690008093C60081918823B9F7F601EA50FF4F75
:1026A00010821182128213822EC0EEEAF1E007C07E
:1026B0009091C00095FFFCCF8093C6003196849125
:1026C0008823B1F7802F9E2DFC0106C09091C00099
:1026D00095FFFCCF8093C60081918823B9F7ECEA7F
:1026E000F1E007C09091C00095FFFCCF8093C60039
:1026F000319684918823B1F78091C00085FFFCCF8B
:102700008AE08093C600CE010E960E94C80CAC965B
:102710000FB6F894DEBF0FBECDBFCF91DF911F91F2
:102720000F91FF90EF90DF90CF90BF90AF909F9070
:102730008F907F906F905F904F903F902F90089573
:10274000CF93DF93EC018A818823C1F1EAE9F1E0BC
:1027500007C09091C00095FFFCCF8093C6003196D2
:1027600084918823B1F7FE01EA50FF4F40815181E7
:102770006281738185ED97E02AE030E00E942C3879
:10278000E8E9F1E007C09091C00095FFFCCF80938D
:10279000C600319684918823B1F7C251DF4F48813A
:1027A00059816A817B8185ED97E02AE030E00E94C3
:1027B0002C388091C00085FFFCCF11C0E8E8F1E023
:1027C00007C09091C00095FFFCCF8093C600319662
:1027D00084918823B1F78091C00085FFFCCF8AE007
:1027E0008093C600DF91CF910895CF92DF92EF9250
:1027F000FF920F931F93CF93DF936C018B01EB013B
:1028000009900020E9F72197C61BD70BFC01ED5278
:10281000FF4F1082CB016EE470E00E9406B17C0194
:10282000009721F42197C00FD11F0EC060E270E025
:102830000E9406B18C010F5F1F4FC7016AE270E072
:102840000E9406B1EC0121978DE089838AE08A839A
:102850001B82C60181539F4FB8010E94375BF6016E
:10286000ED52FF4F8081882309F1EBE6F1E007C0CC
:102870009091C00095FFFCCF8093C6003196849163
:102880008823B1F7E2E7F1E007C09091C00095FF1F
:10289000FCCF8093C600319684918823B1F7809154
:1028A000C00085FFFCCF8AE08093C600DF91CF9106
:1028B0001F910F91FF90EF90DF90CF9008952F928E
:1028C0003F925F926F927F928F929F92AF92BF9250
:1028D000CF92DF92EF92FF920F931F93DF93CF93EC
:1028E000CDB7DEB7CC55D0400FB6F894DEBF0FBEE3
:1028F000CDBF8C016623B1F4FC01E650FF4F80810F
:10290000882309F4D9C0F801EE50FF4FC080D18070
:10291000E280F3800E9472A9C616D706E806F9067F
:1029200008F4CAC0F801E650FF4F1082D801129691
:102930008C911297882341F4C8010E946B0FF80113
:102940008281882309F4B8C000D000D0EDB7FEB76B
:1029500031966E010894C11CD11CADB7BEB712965A
:10296000DC92CE92119782E691E093838283D80124
:102970009C968D919C919D97958384830E9435B1FF
:10298000EDB7FEB736960FB6F894FEBF0FBEEDBF9B
:10299000760156010AC0D7018C91992787FD909541
:1029A0000E948CB0F70181937F01F5010190002016
:1029B000E9F73197EA19FB098E2D8C198E175CF314
:1029C000A2E38A2E912C800E911EC4010E94C20C9B
:1029D0005524FDE3CF2ED12CCC0EDD1EE6E42E2EA9
:1029E000312C2C0E3D1E5E010894A11CB11C7FE110
:1029F000672E712C6C0E7D1E43C0D7018C9190E028
:102A00000E948CB0F70181937F01F60101900020B4
:102A1000E9F73197EC19FD098E2D8C198E176CF39F
:102A2000D1018C918E3761F1C601B50145E050E0CE
:102A30000E9418B1009721F500D000D0EDB7FEB785
:102A40003196ADB7BEB712967C926E9211978BE518
:102A500091E093838283B582A4820E9435B1ADB7A1
:102A6000BEB716960FB6F894BEBF0FBEADBFC3017A
:102A70000E94661A87E591E00E94D81A5524539463
:102A8000C401B60140E050E00E948554181614F4C9
:102A90007601BBCF552031F48FEF9FEFF80195A75A
:102AA00084A70AC0D8019C968D919C919D97019610
:102AB0009D969C938E939C97C45ADF4F0FB6F894C3
:102AC000DEBF0FBECDBFCF91DF911F910F91FF9061
:102AD000EF90DF90CF90BF90AF909F908F907F90BE
:102AE0006F905F903F902F9008950F931F93CF9317
:102AF000DF93EC018C010D521F4FC8010E94FC5561
:102B0000C8010E9447561882DF91CF911F910F9103
:102B10000895EF92FF920F931F93DF93CF93CDB75A
:102B2000DEB76F970FB6F894DEBF0FBECDBF8C0136
:102B3000BDE4EB2EF12CE80EF91E815B9F4FD7010F
:102B40008D939C93F801E550FF4F82E090E09183D4
:102B50008083F801E350FF4F60831182C8018D5AD2
:102B60009F4F0E94C20CF70140815181CE01059612
:102B7000DA0114962BE10D90FC010192CF01215056
:102B8000D1F7DA0112968D919C9113979C838B83D8
:102B900086EE93E09A838983C80165E172E08E0135
:102BA0000F5F1F4FA8010E94730DC8010E94C80C3F
:102BB0006F960FB6F894DEBF0FBECDBFCF91DF91F9
:102BC0001F910F91FF90EF900895EF92FF920F9356
:102BD0001F93DF93CF93CDB7DEB76F970FB6F894FF
:102BE000DEBF0FBECDBF7C018C01035B1F4F815B3D
:102BF0009F4FD8018D939C93F701E550FF4F81E0E3
:102C000090E091838083F701E350FF4F118210829F
:102C1000C7018D5A9F4F0E94C20CF801408151811B
:102C2000CE010596DA0114962BE10D90FC0101927C
:102C3000CF012150D1F7DA0112968D919C91139713
:102C40009C838B8386EE93E09A838983C70165E139
:102C500072E08E010F5F1F4FA8010E94730DC80123
:102C60000E94C80CF701E350FF4F808191816F965D
:102C70000FB6F894DEBF0FBECDBFCF91DF911F918D
:102C80000F91FF90EF900895CF92DF92EF92FF9215
:102C90000F931F93DF93CF93CDB7DEB76F970FB628
:102CA000F894DEBF0FBECDBF8C016B011D8218866C
:102CB0001C821B8286EE93E09A838983F801EA5A8C
:102CC000FF4F8081882321F49EE2E92EF12C03C07E
:102CD0008FE4E82EF12CE00EF11EB7016C5F7F4F00
:102CE000CE010596A60121E00E948158882379F53E
:102CF000EBE3F1E007C09091C00095FFFCCF80931B
:102D0000C600319684918823B1F7E1E4F1E007C071
:102D10009091C00095FFFCCF8093C60031968491BE
:102D20008823B1F78C2D9D2DFC0106C09091C00029
:102D300095FFFCCF8093C60081918823B9F78091DD
:102D4000C00085FFFCCF8AE08093C6003AC0D8015E
:102D5000AF56BF4FF801EE58FF4F8BE101900D9237
:102D60008150E1F7F801E157FF4FD801A059BF4F5B
:102D70008D919C9191838083D801AE58BF4FF7010C
:102D800034968BE101900D928150E1F7F801E05902
:102D9000FF4FD70112968D919C9113979183808359
:102DA000D801AD5ABF4FFE0135968BE101900D92CF
:102DB0008150E1F7F801EF5AFF4F8B819C8191839D
:102DC0008083CE0101960E94C80C6F960FB6F894CE
:102DD000DEBF0FBECDBFCF91DF911F910F91FF904E
:102DE000EF90DF90CF900895FC01EA5AFF4F2081C9
:102DF0002250223058F1DC01AD5ABF4FFC01EE5891
:102E0000FF4F2BE101900D922150E1F7FC01EF5AA9
:102E1000FF4FDC01A059BF4F2D913C91318320839E
:102E2000DC01AE58BF4FFC01EF56FF4F2BE1019084
:102E30000D922150E1F7FC01E059FF4F81579F4F60
:102E4000DC018D919C911197918380830895CF939C
:102E5000DF93EC010E94E3670E945768CE018D5218
:102E60009F4F0E94475619828FE291E00E94D81A24
:102E700080914608882301F11092460880917B05D5
:102E8000C82FD0E0CC0FDD1FC857D04F68817981A3
:102E9000882777FD8095982F0E94E1B220913C030E
:102EA00030913D0340913E0350913F030E9442B454
:102EB000181614F419821882DF91CF910895AF92F9
:102EC000BF92CF92DF92EF92FF920F931F93DF9307
:102ED000CF93CDB7DEB7E0970FB6F894DEBF0FBE45
:102EE000CDBFDE011196E6E9F3E080E101900D929D
:102EF0008150E1F7DE015196E6E8F3E080E10190D0
:102F00000D928150E1F7DE019196E6E7F3E080E172
:102F100001900D928150E1F7BE016F5F7F4F4AEE45
:102F200057E021E1A22EB12CAC0EBD1E0AED17E038
:102F300091E2E92EF12CEC0EFD1E8AEFC82E87E0FF
:102F4000D82E24E030E0FB0181919191A191B191C3
:102F5000BF01FA0181939193A193B193AF01F50160
:102F600081919191A191B1915F01F8018193919328
:102F7000A193B1938F01F70181919191A191B191A9
:102F80007F01F60181939193A193B1936F01215039
:102F90003040C9F680E090E8ABE3B5E480930E08DA
:102FA00090930F08A0931008B09311088093120813
:102FB00090931308A0931408B093150880E090E054
:102FC000DC0180930A0890930B08A0930C08B0933F
:102FD0000D0820E23EE440E050E02093D607309315
:102FE000D7074093D8075093D9078093220890932E
:102FF0002308A0932408B093250820E030E040EA9D
:1030000051E4209316083093170840931808509302
:1030100019082DEC3CEC4CEC5EE320931A0830933D
:103020001B0840931C0850931D0820E030E040EA44
:1030300050E420931E0830931F08409320085093BB
:10304000210880936B0590936C05A0936D05B09358
:103050006E058093670590936805A0936905B0930A
:103060006A058093630590936405A0936505B0930A
:1030700066058CEA90E09093DB0F8093DA0F86E48C
:1030800090E09093DD0F8093DC0F8FEF90E09093B2
:10309000DF0F8093DE0F22ED30E03093E10F2093BD
:1030A000E00F2EE630E03093E30F2093E20F909391
:1030B000E50F8093E40F8AE999E9A1EBB1E48093ED
:1030C000490390934A03A0934B03B0934C0385E8C4
:1030D00094EFA0E1BEE380934D0390934E03A09341
:1030E0004F03B093500380E190E7A9E5B4E48093E7
:1030F000510390935203A0935303B093540380E081
:1031000090E0A0E8BFE38093550390935603A0930B
:103110005703B0935803E0960FB6F894DEBF0FBE86
:10312000CDBFCF91DF911F910F91FF90EF90DF9076
:10313000CF90BF90AF900895FC01259135914591B6
:103140005491622F732F842F952F08952F923F92C1
:103150004F925F926F927F928F929F92AF92BF92A7
:10316000CF92DF92EF92FF920F931F93DF93CF9353
:1031700000D000D0CDB7DEB78C018330910508F0C8
:103180005CC19C01220F331F220F331F3E832D830E
:103190002D5A3A4F3C832B8380E090E0DC01F9010B
:1031A00080839183A283B38383E595E067E575E02F
:1031B0004BE555E02FE535E00E94344E8D819E8130
:1031C000875E9A4F0E949C180F5C1A4FF801D490AA
:1031D0002D813E812C553A4F3A83298320E030E0FF
:1031E00040EC5FE30E9414B57B018C016D2D7727C5
:1031F00067FD7095872F972F0E94E1B22B013C014C
:10320000C801B701A30192010E9414B5A981BA8136
:103210006D937D938D939C931397FFE02F2EF3E096
:103220003F2EED81FE812E0E3F1ED1016D917D91CD
:103230008D919C9160933303709334038093350395
:103240009093360320E030E040E752E40E9446B21B
:103250007B018C0184EA95E068EA75E04CEA55E070
:1032600020EB35E0EBE7CE2EE5E0DE2E0E94E442D7
:103270000E94E36780E090E0DC01EB81FC818083C9
:103280009183A283B38383E595E067E575E04BE521
:1032900055E02FE535E00E94344E8D819E818B5D97
:1032A0009A4F0E949C184B015C019058A301920117
:1032B0000E9414B5A981BA816D937D938D939C93DF
:1032C000139760913303709134038091350390918B
:1032D000360320E030E040E752E40E9446B27B0132
:1032E0008C0184EA95E068EA75E04CEA55E020EB51
:1032F00035E00E94E4420E94E367C501B401A501E4
:1033000094010E9466B1A30192010E9414B5E98163
:10331000FA816083718382839383D1016D917D9162
:103320008D919C9120E030E040E05FE30E9414B575
:10333000262F372F482F592F2093330330933403F0
:10334000409335035093360320E030E040E752E4E9
:103350000E9446B27B018C0184EA95E068EA75E040
:103360004CEA55E020EB35E00E94E4420E94E3671E
:103370008D819E818C5C9A4F0E949C18ED81FE810C
:10338000ED59FA4FE080F18002811381A801970185
:103390000E9466B1862ED72EC82E492E862F9D2DCF
:1033A000AC2DB42DEB81FC8180839183A283B38308
:1033B0008D819E81805C9A4F0E949C182FE6222E60
:1033C00025E0322E2D813E81220E331EA801970169
:1033D0000E9466B1D1016D937D938D939C93139759
:1033E0008D819E81845B9A4F0E949C182D803E8027
:1033F000E3E2F3E02E0E3F1EA80197010E9466B1A2
:10340000D1016D937D938D939C931397882D9D2D62
:10341000AC2DB42DE981FA8180839183A283B3839B
:1034200080E090E0DC018093330390933403A09319
:103430003503B09336030E94A96026960FB6F89420
:10344000DEBF0FBECDBFCF91DF911F910F91FF90D7
:10345000EF90DF90CF90BF90AF909F908F907F9034
:103460006F905F904F903F902F900895FC0107C0A0
:103470009091C00095FFFCCF8093C6003196849157
:103480008823B1F785ED97E022E030E00E945739BC
:103490000895DF93CF930F920F92CDB7DEB780914F
:1034A0003710909138109E012F5F3F4F009719F40D
:1034B0002D53304102C0281B390B3A83298389815F
:1034C0009A810F900F90CF91DF910895EF92FF9224
:1034D0000F931F93CF93DF93BC01E0904F07F090C1
:1034E000500784E0E816F1040CF05BC00091490736
:1034F00010914A0780E690E0089FE001099FD00DF7
:10350000189FD00D1124CB53DA4FCE010E9411B178
:10351000EDE9F2E007C09091C00095FFFCCF8093E9
:10352000C600319684918823B1F7E7EBF7E007C036
:103530009091C00095FFFCCF8093C6003196849196
:103540008823B1F706C09091C00095FFFCCF80930F
:10355000C60089918823B9F7E5EBF7E007C09091A1
:10356000C00095FFFCCF8093C600319684918823DC
:10357000B1F78091C00085FFFCCF8AE08093C60040
:10358000C801019664E070E00E94C0B890934A07B9
:10359000809349070894E11CF11CF0925007E092D7
:1035A0004F07DF91CF911F910F91FF90EF900895FA
:1035B000BC0180914F0790915007843091050CF029
:1035C0006AC04091490750914A0720E630E0429F87
:1035D000C001439F900D529F900D11248B539A4F21
:1035E0000E9494B0EDE9F2E007C09091C00095FF11
:1035F000FCCF8093C600319684918823B1F7EAEA24
:10360000F7E007C09091C00095FFFCCF8093C60003
:10361000319684918823B1F78091490790914A07A8
:1036200020E630E0829FF001839FF00D929FF00D25
:103630001124EB53FA4F06C03091C00035FFFCCF88
:103640002093C60021912223B9F7E8EAF7E007C0EA
:103650003091C00035FFFCCF2093C60031962491F5
:103660002223B1F72091C00025FFFCCF2AE0209350
:10367000C600019664E070E00E94C0B890934A07CB
:103680008093490780914F0790915007019690933E
:10369000500780934F07089580E560E00E94ADAA2F
:1036A000779A08959D9AA5980895AF92BF92CF9268
:1036B000DF92EF92FF920F931F93CF93DF930E94BD
:1036C0004C1B0E94521B85ED97E040E052EC61E0FC
:1036D00070E00E944A37E2EAF7E007C09091C0002C
:1036E00095FFFCCF8093C600319684918823B1F773
:1036F0008091C00085FFFCCF8AE08093C6008DE9F1
:1037000092E0FC0107C03091C00035FFFCCF209350
:10371000C600319624912223B1F724B720FF14C0AC
:10372000EAE9F7E007C04091C00045FFFCCF3093C5
:10373000C600319634913323B1F73091C00035FF84
:10374000FCCF3AE03093C60021FF14C0EAE8F7E06E
:1037500007C04091C00045FFFCCF3093C6003196B2
:1037600034913323B1F73091C00035FFFCCF3AE0FC
:103770003093C60022FF14C0E9E7F7E007C040918C
:10378000C00045FFFCCF3093C600319634913323FF
:10379000B1F73091C00035FFFCCF3AE03093C6005E
:1037A00023FF14C0E9E6F7E007C04091C00045FFE1
:1037B000FCCF3093C600319634913323B1F730916A
:1037C000C00035FFFCCF3AE03093C60025FF14C09F
:1037D000E9E5F7E007C03091C00035FFFCCF20934A
:1037E000C600319624912223B1F72091C00025FF15
:1037F000FCCF2AE02093C60014BEE1E5F7E007C045
:103800003091C00035FFFCCF2093C6003196249143
:103810002223B1F7EBE4F7E007C03091C00035FF99
:10382000FCCF2093C600319624912223B1F720913A
:10383000C00025FFFCCF2AE02093C600FC012491A4
:10384000EDE9F2E008C03091C00035FFFCCF2093D5
:10385000C600319624912223B1F7EBE3F7E007C0CD
:103860003091C00035FFFCCF2093C60031962491E3
:103870002223B1F7E6E2F7E007C03091C00035FF40
:10388000FCCF2093C600319624912223B1F7EAE1C0
:10389000F7E007C03091C00035FFFCCF2093C60091
:1038A000319624912223B1F7E3E0F7E007C030918D
:1038B000C00035FFFCCF2093C6003196249122230F
:1038C000B1F72091C00025FFFCCF2AE02093C6006D
:1038D000E8EFF6E007C03091C00035FFFCCF209341
:1038E000C600319624912223B1F7ECEEF6E007C032
:1038F0003091C00035FFFCCF2093C6003196249153
:103900002223B1F72091C00025FFFCCF2AE02093AD
:10391000C600FC018491EDE9F2E008C09091C0007E
:1039200095FFFCCF8093C600319684918823B1F730
:10393000EDEDF6E007C09091C00095FFFCCF8093BD
:10394000C600319684918823B1F70E94491ABC01C0
:1039500085ED97E04AE050E00E947638E6ECF6E02C
:1039600007C09091C00095FFFCCF8093C6003196B0
:1039700084918823B1F785ED97E060ED74E04AE02B
:1039800050E00E9476388091C00085FFFCCF8AE02D
:103990008093C6001092BB051092BC051092BD0525
:1039A0001092BE050E945F17CAEFD7E00AEE17E03B
:1039B000B6E2EB2EB8E0FB2E69917991899199914D
:1039C000F801A190B190C190D1908F010E94DFB217
:1039D000A60195010E9414B50E94B3B2F70161934C
:1039E0007193819391937F01F8E0CA30DF0721F74B
:1039F0000E94F66E0E943F410E9495690E94EC89E8
:103A0000DF91CF911F910F91FF90EF90DF90CF90BA
:103A1000BF90AF9008958091C3059091C405019621
:103A200060E070E00E94C6AD08958091C30590915A
:103A3000C405019660E070E04AE050E00E9454AF97
:103A400008956091B9057091BA0540E650E0649F11
:103A50009001659F300D749F300D1124682F7727DA
:103A600067FD7095C9018B539A4F0E9406B19C0166
:103A70009093C4058093C30581E02115310509F4B5
:103A800080E008950E9472A960939005709391055B
:103A90008093920590939305E091B905F091BA0552
:103AA000E554FA4F80818823A1F4E2E5F3E007C0F2
:103AB0009091C00095FFFCCF8093C6003196849111
:103AC0008823B1F78091C00085FFFCCF8AE0809306
:103AD000C600089585ED97E00E949E37E5E5F3E086
:103AE00007C09091C00095FFFCCF8093C60031962F
:103AF00084918823B1F740918805509189056091A0
:103B00008A0570918B054F5F5F4F6F4F7F4F85ED3B
:103B100097E02AE030E00E9441388091C00085FFA4
:103B2000FCCF8AE08093C6000E94421D08952F9228
:103B30003F924F925F926F927F928F929F92AF923D
:103B4000BF92CF92DF92EF92FF920F931F93DF937A
:103B5000CF93CDB7DEB7A0970FB6F894DEBF0FBEF8
:103B6000CDBF70E6A72EB12C64E0462E512C51E05B
:103B7000852E912CE9E8F5E064904AE0742EEFEF91
:103B8000F5E034902224239412C28D3071F08A33F0
:103B900021F490914607992341F0209147073091F5
:103BA00048072F3531050CF4E4C1E0914707F09147
:103BB0004807309709F4F4C28091490790914A0769
:103BC0008A9D80018B9D100D9A9D100D1124E00F90
:103BD000F11FEB53FA4F108220914607222309F080
:103BE000C3C11092460785549A4FFC01108235ECF0
:103BF000E32E35E0F32EE00EF11EC7016EE470E017
:103C00000E9406B1009709F4FDC09093C40580930B
:103C1000C30594012E193F09280F391F200F311FAA
:103C2000C9018B539A4F60E070E04AE050E00E9477
:103C300054AF9B01AC0160934B0770934C0780938A
:103C40004D0790934E07E0908805F090890500910C
:103C50008A0510918B05D801C7010196A11DB11DE0
:103C6000281739074A075B0709F439C32091490728
:103C700030914A072A9DC0012B9D900D3A9D900DD1
:103C800011248B539A4F68EA76E00E94CBB00097DC
:103C900009F025C3E3EAF2E007C09091C00095FF68
:103CA000FCCF8093C600319684918823B1F7E5E775
:103CB000F6E007C09091C00095FFFCCF8093C6004E
:103CC000319684918823B1F785ED97E0B801A7017B
:103CD0002AE030E00E9441388091C00085FFFCCF8F
:103CE0007AC003272F5FFA01E20FF11DEB53FA4F61
:103CF00030813A32B1F79093C4058093C3059A019D
:103D00002B533A4F6401C21AD30A9601280F391F68
:103D1000240F351FC9018B539A4F60E070E00E9459
:103D2000C6AD0E94AEB210E00617170709F459C0DD
:103D3000E3EAF2E007C09091C00095FFFCCF8093CA
:103D4000C600319684918823B1F7E6E5F6E007C016
:103D50009091C00095FFFCCF8093C600319684916E
:103D60008823B1F7409188055091890560918A05B3
:103D700070918B0585ED97E02AE030E00E94413894
:103D80008091C00085FFFCCF26C0E3EAF2E007C0C7
:103D90009091C00095FFFCCF8093C600319684912E
:103DA0008823B1F7ECE2F6E007C09091C00095FFE0
:103DB000FCCF8093C600319684918823B1F785EDBE
:103DC00097E0B801A7012AE030E00E9441388091D5
:103DD000C00085FFFCCF8AE08093C6000E946A1D68
:103DE00047C080914B0790914C07A0914D07B0912F
:103DF0004E078093880590938905A0938A05B09318
:103E00008B053BC0C7016AE270E00E9406B10097D3
:103E1000A1F1E3EAF2E007C09091C00095FFFCCF6A
:103E20008093C600319684918823B1F7E2E0F6E0F2
:103E300007C09091C00095FFFCCF8093C6003196DB
:103E400084918823B1F7409188055091890560914C
:103E50008A0570918B0585ED97E02AE030E00E949D
:103E600041388091C00085FFFCCF8AE08093C60076
:103E7000109248071092470750C2809149079091CD
:103E80004A078A9D70018B9DF00C9A9DF00C1124BD
:103E900087010B531A4FC80167E470E00E9406B116
:103EA000009709F44CC09093C4058093C305940116
:103EB000201B310B280F391F2E0D3F1DC9018B53BD
:103EC0009A4F60E070E00E94C6AD0E94AEB26430CE
:103ED0007105A8F5809186058823C9F480914C046A
:103EE000882369F5832DEFEFF5E008C09091C000BD
:103EF00095FFFCCF8093C600319684918823B1F75B
:103F00008091C00085FFFCCF7092C60018C0862D3E
:103F1000E9E8F5E008C09091C00095FFFCCF8093E0
:103F2000C600319684918823B1F78091C00085FF47
:103F3000FCCF7092C6008FE795E00E94AD8880911B
:103F4000490790914A070196B2010E94C0B8909328
:103F50004A078093490780914F0790915007019637
:103F60009093500780934F0710924807109247078D
:103F70001EC08B3311F42092460790914607992377
:103F8000B1F44091490750914A074A9DF0014B9D79
:103F9000F00D5A9DF00D1124E20FF31FEB53FA4F71
:103FA00080832F5F3F4F30934807209347078091CE
:103FB000D1079091D2072091D3073091D407821B6B
:103FC000930B8F779070009709F4A2C180914F07EF
:103FD00090915007843091050CF09AC185ED97E0DF
:103FE0000E948237809345078A3009F0CECDDDCD1F
:103FF0008091470790914807009709F421C18DC12E
:104000004D3091F04A3321F420914607222361F08C
:1040100020914707309148072F3531052CF45FEF89
:104020008F3F950709F0EDC020914205309143057F
:10403000409144055091450580913A0590913B058A
:10404000A0913C05B0913D05281739074A075B0749
:1040500008F49FC08F8DECE6F5E008C09091C00099
:1040600095FFFCCF8093C600319684918823B1F7E9
:104070008091C00085FFFCCF2092C6000E9472A9EB
:104080009B01AC0160938205709383058093840546
:104090009093850580917E0590917F05A091800584
:1040A000B091810569017A01C81AD90AEA0AFB0AA6
:1040B000C701B60128EE33E040E050E00E94D3B8DB
:1040C00069017A012DB73EB7285030400FB6F894F9
:1040D0003EBF0FBE2DBFADB6BEB60894A11CB11C2D
:1040E000EDB7FEB71283018328E535E0F501338390
:1040F0002283C701B60120E13EE040E050E00E948B
:10410000D3B8F50135832483C701B601A401930117
:104110000E94D3B8CA01B901A40193010E94D3B887
:10412000F501778366830E9435B188A12DB73EB72C
:10413000285F3F4F0FB6F8943EBF0FBE2DBFEDE98D
:10414000F2E008C09091C00095FFFCCF8093C600BC
:10415000319684918823B1F7F80106C09091C00090
:1041600095FFFCCF8093C60081918823B9F7809199
:10417000C00085FFFCCF2092C600C8010E949E8827
:104180008CE494E00E9427178CE494E061E00E94A4
:104190005F1420914707309148072115310519F424
:1041A00010924607BAC08091490790914A07849DB2
:1041B000F001859DF00D949DF00D1124E20FF31F89
:1041C000EB53FA4F1082FC01E554FA4F30822091F4
:1041D0004F07309150072F5F3F4F30935007209388
:1041E0004F07019664E070E00E94C0B890934A07C0
:1041F000809349071092460710924807109247078C
:1042000036C04B3311F4309246078091460788231D
:1042100071F58091490790914A07849DF001859D31
:10422000F00D949DF00D1124E20FF31FEB53FA4FA4
:1042300040832F5F3F4F309348072093470717C0B5
:1042400020E6422E512C33243394ECE6F5E03491F1
:104250003F8F9AE0292E8E010F5F1F4F8CE3682E4F
:10426000712C812C912CEDE9F2E0549158A320910E
:104270004205309143054091440550914505809198
:104280003A0590913B05A0913C05B0913D0528175A
:1042900039074A075B0708F040C080914F079091AB
:1042A000500784309105CCF5809127059091280521
:1042B000A0912905B0912A0580934205909343056A
:1042C000A0934405B09345058FE195E00E946C549E
:1042D000482F809345078A3009F092CEA5CE809171
:1042E000490790914A078A9D60018B9DD00C9A9D49
:1042F000D00C1124C6018B539A4F6AE270E00E94E1
:1043000006B1009709F441CD20E000E0A601EBCC16
:1043100080914D04882309F06BCEA0960FB6F894D7
:10432000DEBF0FBECDBFCF91DF911F910F91FF90E8
:10433000EF90DF90CF90BF90AF909F908F907F9045
:104340006F905F904F903F902F9008958F929F9223
:10435000AF92BF92CF92DF92EF92FF920F931F9393
:10436000CF93DF93F6EAEF2EF3E0FF2EC3E5D5E01F
:1043700004EA15E0EDE4CE2EE5E0DE2EF7018191B2
:104380007F010E94211D882329F10E940B1D4B01F2
:104390005C01F6018081882319F46091B40501C0A5
:1043A00061E070E0882777FD8095982F0E94E1B248
:1043B000288139814A815B810E9414B59B01AC013F
:1043C000C501B4010E9466B1F801608371838283E4
:1043D000938309C088819981AA81BB81F801808378
:1043E0009183A283B38324960C5F1F4F0894C11C52
:1043F000D11CFAEAEF16F3E0FF0609F0BFCF86E41E
:104400000E94211D8823D9F00E940B1D7B018C0185
:104410006093B5057093B6058093B7059093B80582
:1044200020E030E0A9010E9442B4181644F4E09262
:104430003303F09234030093350310933603DF9176
:10444000CF911F910F91FF90EF90DF90CF90BF9091
:10445000AF909F908F9008950E94A62189E40E94BA
:10446000211D882359F00E940B1D609398057093BD
:10447000990580939A0590939B050BC080E090E08E
:10448000DC018093980590939905A0939A05B093C9
:104490009B058AE40E94211D882359F00E940B1D70
:1044A00060939C0570939D0580939E0590939F0556
:1044B000089580E090E0DC0180939C0590939D0539
:1044C000A0939E05B0939F050895EF92FF920F93DE
:1044D0001F93CF93DF93EC01E0906F05F090700590
:1044E0000091710510917205688179818A819B81A3
:1044F000A80197010E943FB287FF04C0E882F982B9
:104500000A831B83E0907305F09074050091750594
:10451000109176056C817D818E819F81A801970124
:104520000E943FB287FF04C0EC82FD820E831F838E
:10453000E0907705F09078050091790510917A0563
:10454000688579858A859B85A80197010E943FB27D
:1045500087FF04C0E886F9860A871B87E09023035B
:10456000F09024030091250310912603688179813E
:104570008A819B81A80197010E9442B4181624F4F5
:10458000E882F9820A831B83E0902703F0902803D6
:104590000091290310912A036C817D818E819F8176
:1045A000A80197010E9442B4181624F4EC82FD82FF
:1045B0000E831F83E0902B03F0902C0300912D03BA
:1045C00010912E03688579858A859B85A8019701BE
:1045D0000E9442B4181624F4E886F9860A871B87DD
:1045E000DF91CF911F910F91FF90EF900895CF929F
:1045F000DF92EF92FF920F931F9384EA95E00E945F
:1046000065220E9472A96093900570939105809332
:104610009205909393056091530570915405809194
:104620005505909156052091A4053091A50540911E
:10463000A6055091A7050E943FB2882309F07AC0D1
:1046400060915705709158058091590590915A05D0
:104650002091A8053091A9054091AA055091AB057C
:104660000E943FB2882309F065C0609133037091C6
:104670003403809135039091360320E030E040E729
:1046800052E40E9446B27B018C0184EA95E068EA1C
:1046900075E04CEA55E020EB35E0ABE7CA2EA5E02B
:1046A000DA2E0E94E4428091A4059091A505A09184
:1046B000A605B091A7058093530590935405A09348
:1046C0005505B09356058091A8059091A905A09134
:1046D000AA05B091AB058093570590935805A09318
:1046E0005905B0935A058091AC059091AD05A09104
:1046F000AE05B091AF0580935B0590935C05A093E8
:104700005D05B0935E058091B0059091B105A091D3
:10471000B205B091B30580935F0590936005A093B7
:104720006105B09362051F910F91FF90EF90DF90AC
:10473000CF90089560911F0370912003882777FD23
:104740008095982F0E94E1B2209133033091340379
:1047500040913503509136030E9414B520E030E0BB
:1047600040E752E40E9446B220E030E048EC52E4D8
:1047700088CF9F92AF92BF92CF92DF92EF92FF923B
:104780000F931F93CF93DF93982E609198057091AC
:10479000990580919A0590919B0520919C053091F7
:1047A0009D0540919E0550919F050E944FB47B014D
:1047B0008C0100D000D0CDB7DEB7219660911F03E9
:1047C00070912003882777FD8095982F0E94E1B291
:1047D00020913303309134034091350350913603D7
:1047E0000E9414B520E030E040E752E40E9446B257
:1047F00020E030E048EC52E40E9446B25B016C01DC
:10480000E882F9820A831B839C8280917B058D83D9
:1048100083E595E064EA75E048E955E020E001E0D1
:10482000B2E0EB2E0E945B398091A4059091A50522
:10483000A091A605B091A7058093530590935405C8
:10484000A0935505B09356058091A8059091A905B0
:10485000A091AA05B091AB05809357059093580598
:10486000A0935905B0935A058091AC059091AD0580
:10487000A091AE05B091AF0580935B0590935C0568
:10488000A0935D05B0935E058091B0059091B10550
:10489000A091B205B091B30580935F059093600538
:1048A000A0936105B09362058DB79EB706960FB6CB
:1048B000F8949EBF0FBE8DBF0E9472A960939005B1
:1048C000709391058093920590939305DF91CF911A
:1048D0001F910F91FF90EF90DF90CF90BF90AF901E
:1048E0009F900895F8940E94AC6F179A169A159AA3
:1048F000149A84E060E00E94ADAAE3EAF2E007C007
:104900009091C00095FFFCCF8093C60031968491B2
:104910008823B1F7E3E3F3E007C09091C00095FF6F
:10492000FCCF8093C600319684918823B1F78091A3
:10493000C00085FFFCCF8AE08093C6008AE293E046
:104940000E94BC88FFCFEF92FF920F931F930E94AB
:1049500072A920919405309195054091960550914A
:104960009705E0909005F0909105009192051091C7
:1049700093056E197F09800B910B2617370748079F
:10498000590738F4211531054105510511F00E94F0
:10499000722480912F0390913003A0913103B09144
:1049A00032030097A105B10529F10E9472A9209157
:1049B0009005309191054091920550919305621BAD
:1049C000730B840B950B20912F0330913003409192
:1049D000310350913203261737074807590750F41F
:1049E0009091170D8091180D981721F4179A169A27
:1049F000159A149A679902C00E9472240E94BE42BE
:104A00001F910F91FF90EF9008950E94AC6F8091DD
:104A100086058823C1F581E080938605809188050D
:104A200090918905A0918A05B0918B0580938C05A2
:104A300090938D05A0938E05B0938F05E3EAF2E085
:104A400007C09091C00095FFFCCF8093C6003196BF
:104A500084918823B1F7E4EBF2E007C09091C000A5
:104A600095FFFCCF8093C600319684918823B1F7DF
:104A70008091C00085FFFCCF8AE08093C6008AEA5F
:104A800092E00E94AD880895809186050895CF93A5
:104A9000DF93EC0180917B058093870584E50E947C
:104AA000211D882309F455C00E940B1D0E94B3B23A
:104AB00060938705662309F44CC0EDE9F2E007C076
:104AC0009091C00095FFFCCF8093C60031968491F1
:104AD0008823B1F7C936D10551F0CD36D10521F083
:104AE000C836D10539F506C0E6E1F2E020C0EDE2B6
:104AF000F2E013C0E4E4F2E006C09091C00095FF3C
:104B0000FCCF8093C60081918823B9F713C09091A0
:104B1000C00095FFFCCF8093C60081918823B9F730
:104B200009C09091C00095FFFCCF8093C600819191
:104B30008823B9F785ED97E040E050E00E943938CE
:104B40008091C00085FFFCCF8AE08093C60081E0A1
:104B500001C080E0DF91CF9108952F923F924F9254
:104B60005F926F927F928F929F92AF92BF92CF92FD
:104B7000DF92EF92FF920F931F93DF93CF93CDB706
:104B8000DEB7A2970FB6F894DEBF0FBECDBF87E4A5
:104B90000E94211D882309F42CC20E940B1D0E9433
:104BA000AEB26430710509F441C06530710554F44A
:104BB0006230710541F1633071056CF577FF19C002
:104BC0000C9418366A35710509F4BEC16B35710550
:104BD00034F46C31710511F00C94183673C06B35D8
:104BE000710509F4B5C16C35710511F00C941836D6
:104BF000B4C180918605882331F40E94A6210E94C9
:104C0000F7220C943D3680918605882321F40E947A
:104C10002C2281E007C080918605882339F40E9408
:104C20002C2280E00E94B9230C943D3680E195E06F
:104C30000E94AD8880E50E94211D882349F00E94D2
:104C40000B1D0E94B3B2E62EF72E082F192F03C0BA
:104C5000EE24FF24870183E50E94211D882371F043
:104C60000E940B1D20E030E04AE754E40E9414B596
:104C70000E94B3B2E62EF72E082F192F0E94E36789
:104C80000E9472A95B016C01AE0CBF1CC01ED11E3C
:104C90000E9472A96093900570939105809392058C
:104CA0009093930506C00E94CA6C0E94A3240E94A0
:104CB00028890E9472A96A157B058C059D0598F3C9
:104CC0000C9418368091330390913403A0913503EE
:104CD000B09136038093BF059093C005A093C105A2
:104CE000B093C20580911F039091200390935205C9
:104CF0008093510584E690E09093200380931F03F6
:104D00000E9472A96093900570939105809392051B
:104D10009093930581E00E94B0608091530590913B
:104D20005405A0915505B09156058093A405909324
:104D3000A505A093A605B093A7058091570590916E
:104D40005805A0915905B0915A058093A8059093F4
:104D5000A905A093AA05B093AB0580915B0590913E
:104D60005C05A0915D05B0915E058093AC059093C4
:104D7000AD05A093AE05B093AF0580915F0590910E
:104D80006005A0916105B09162058093B005909394
:104D9000B105A093B205B093B30580E090E0DC01CB
:104DA0008093330390933403A0933503B093360379
:104DB00088E50E94211D882361F489E50E94211D58
:104DC000882339F48AE50E94211D882311F481E0AB
:104DD00001C080E080933703882329F488E50E948E
:104DE000211D882321F080E090E00E94A618809188
:104DF0003703882329F489E50E94211D882321F0A7
:104E000081E090E00E94A61880913703882329F45E
:104E10008AE50E94211D882321F082E090E00E9413
:104E2000A61888E50E94211D8823D9F00E94151D2F
:104E30006115710581059105A1F00E940B1D20915E
:104E400063053091640540916505509166050E94A7
:104E500066B1609353057093540580935505909304
:104E6000560589E50E94211D8823D9F00E94151D51
:104E70006115710581059105A1F00E940B1D20911E
:104E80006705309168054091690550916A050E9457
:104E900066B16093570570935805809359059093B8
:104EA0005A058AE50E94211D8823D9F00E94151D0C
:104EB0006115710581059105A1F00E940B1D2091DE
:104EC0006B0530916C0540916D0550916E050E9407
:104ED00066B160935B0570935C0580935D0590936C
:104EE0005E0583E595E067E575E04BE555E02FE568
:104EF00035E00E94344E80E00E94B0608091BF0592
:104F00009091C005A091C105B091C2058093330373
:104F100090933403A0933503B093360380915105E9
:104F2000909152059093200380931F030E9472A9D1
:104F300060939005709391058093920590939305EB
:104F40000E94A9600C9418361092B4050C9418367F
:104F500081E08093B4050C94183685E40E94211DED
:104F6000882311F40E94E367F6EACF2EF3E0DF2EE8
:104F7000E3E6AE2EE5E0BE2E03E515E0EE24F601F5
:104F800081916F010E94211D882339F1FE2DF3309C
:104F900061F40E940B1DF801608371838283938307
:104FA0008FE595E00E94E24E18C00E940B1DF501AE
:104FB00020813181428153810E9466B1F801608372
:104FC00071838283938383E595E067E575E04BE524
:104FD00055E02FE535E00E94344EE39424E030E0C4
:104FE000A20EB31E0C5F1F4F3E2D343041F60C94C1
:104FF00018368DE40E94211D882311F40C946C3521
:105000000E940B1D0E94AEB26B36710509F42FC7CA
:105010006C3671050CF084C06C31710509F42FC237
:105020006D317105C4F56531710509F4C9C1663189
:105030007105BCF46131710509F48DC162317105EE
:1050400034F46230710510F00C94183621C16231CD
:10505000710509F41EC76431710511F00C941836FE
:1050600084C16831710509F4CCC16931710554F40A
:105070006631710509F4AAC16731710511F00C940C
:105080001836AAC16A31710509F4D1C16B317105B5
:105090000CF0EFC1C6C16335710509F4F6C664357D
:1050A0007105FCF46A32710509F4FDC26B327105B9
:1050B00054F46E31710509F41AC26F31710511F0A3
:1050C0000C94183655C26135710509F4D8C662359D
:1050D00071050CF0D7C66035710511F00C941836C7
:1050E000CBC66C35710509F433C76D35710554F4C1
:1050F0006435710509F4CDC66535710511F00C9460
:10510000183610C76936710509F43CC36A36710553
:105110000CF07FC66836710511F00C94183602C386
:105120006E3C710511F40C94F8326F3C71050CF073
:105130004BC06937710511F40C9433316A3771052E
:1051400004F56337710509F48EC76437710554F4AB
:105150006D36710509F4D6C36237710511F00C94F0
:105160001836A3C76737710509F48EC06837710513
:1051700014F00C9431316537710511F00C94183628
:1051800080C7693C710511F40C9423326A3C7105A7
:1051900054F46C38710509F4E4C26E3B710511F0EA
:1051A0000C94183686C56C3C710511F40C947A3257
:1051B0006D3C710514F00C949A326B3C710511F042
:1051C0000C9418360C945D3281E06F35780711F439
:1051D0000C94F13491E06036790754F5E1E06D32DA
:1051E0007E0711F40C943333F1E06E327F0764F4E0
:1051F0006C3D710511F40C9415336D3D710511F082
:105200000C9418360C94243321E06F32720711F499
:105210000C94123431E06F32730714F40C940E3492
:1052200081E06E35780711F00C9418360C94B53483
:1052300091E0663F790711F40C945634E1E0673F42
:105240007E0774F4F1E060397F0711F40C94533455
:1052500021E0653F720711F00C9418360C94563417
:1052600033E06C38730711F40C949A3483E0673E92
:10527000780711F40C94553593E06B38790711F0E9
:105280000C9418360C945934EAE6F2E00C943D3153
:105290008FEF94E00E94AD8880E50E94211D882355
:1052A00049F00E940B1D0E94B3B2E62EF72E082F84
:1052B000192F03C0EE24FF24870183E50E94211DDE
:1052C000882371F00E940B1D20E030E04AE754E48F
:1052D0000E9414B50E94B3B2E62EF72E082F192FA4
:1052E0000E94E3670E9472A96093900570939105F4
:1052F0008093920590939305E114F1040105110543
:1053000001F10E9472A95B016C01AE0CBF1CC01EB2
:10531000D11E0E9472A96A157B058C059D05A8F413
:105320008091FC0F82FD11C00E94CA6C0E94A324D0
:105330000E942889EECF0E94CA6C0E94A3240E947A
:1053400028898091FC0F82FFF6CF80EF94E00E94C5
:10535000AD880C94183687EE94E00E94AD881798BB
:105360001698159814980C941836E7EDF4E007C0D9
:105370009091C00095FFFCCF8093C6003196849138
:105380008823B1F78091C00085FFFCCF8AE080932D
:10539000C6008CE494E00E94250FE9ECF4E007C01D
:1053A0009091C00095FFFCCF8093C6003196849108
:1053B0008823B1F78091C00085FFFCCF0C9415368F
:1053C0008CE494E00E946B0F0C9418368CE494E00B
:1053D0000E943E100C9418360091C3051091C4052C
:1053E0000C5F1F4FC8016AE270E00E9406B100978F
:1053F00019F00197FC0110828CE494E0B80141E0BF
:1054000072C08CE494E00E9442100E9472A96093E2
:105410007E0570937F0580938005909381050C94A1
:1054200018368CE494E00E9449100C941836809150
:105430004E04882311F40C94183683E50E94211D34
:10544000882311F40C9418360E94151DAB01382FD7
:10545000292F609342055093430580934405909310
:1054600045058FE195E0632F722F0E9450550C94F3
:1054700018368CE494E00E94A0130C9418368091A6
:10548000C3059091C40504966AE270E00E9406B1DB
:105490008C010097F9F04091B9055091BA0520E6CA
:1054A00030E0429FC001439F900D529F900D112408
:1054B0008B539A4F6EE470E00E9406B160E270E098
:1054C0000E9406B101969093C4058093C305F8012C
:1054D000319710826091C3057091C4056C5F7F4F56
:1054E0008CE494E040E00E944E100C9418368091B9
:1054F0004E04882311F40C9418368CE494E00E9436
:1055000075158091C3059091C40504966AE270E018
:105510000E9406B18C010097F9F04091B9055091B5
:10552000BA0520E630E0429FC001439F900D529F94
:10553000900D11248B539A4F6EE470E00E9406B1D7
:1055400060E270E00E9406B101969093C4058093DA
:10555000C305F801319710826091C3057091C405AD
:105560006C5F7F4F8CE494E00E9450120C941836CC
:105570000E9472A9609382057093830580938405CD
:105580009093850520917E0530917F05409180059F
:1055900050918105621B730B840B950B28EE33E051
:1055A00040E050E00E94D3B88DB79EB708970FB681
:1055B000F8949EBF0FBE8DBF0DB71EB70F5F1F4F74
:1055C000CE010196EDB7FEB7928381838AEB94E01A
:1055D000F80193838283CA01B9012CE330E040E0F3
:1055E00050E00E94D3B8F801358324837783668323
:1055F0000E9435B1EDE9F2E084912DB73EB7285F06
:105600003F4F0FB6F8943EBF0FBE2DBF08C090911C
:10561000C00095FFFCCF8093C6003196849188230B
:10562000B1F7FE01319606C09091C00095FFFCCF06
:105630008093C60081918823B9F78091C00085FFCF
:10564000FCCF8AE08093C600CE0101960E949E881E
:1056500080914608882311F40C941836109246085D
:1056600000917B0510E0000F111F0857104FF80143
:1056700060817181882777FD8095982F0E94E1B223
:1056800020913C0330913D0340913E0350913F03F4
:105690000E9442B4181614F00C941836F8011182C6
:1056A00010820C94183683E50E94211D882311F482
:1056B0000C9418360E940B1D0E94AEB28B0180E53F
:1056C0000E94211D882361F017FD0AC00F3F1105BC
:1056D00009F034F40E940B1D0E94AEB27B0103C09E
:1056E0006DE0E62EF12CEAEAF3E0819191918E15BE
:1056F0009F0511F40C94183624E0EA31F207A9F75B
:10570000F7FE02C00C9418368E2D61E00E94ADAAFF
:105710008E2D602F0E94D1AA8E2DB8010E944FA815
:105720000C94183688E690E00E944725882311F0F3
:105730000C94183683E50E94211D882371F00E9485
:105740000B1D0091870510E0000F111F0857104F27
:105750000E94AEB2F801718360830E94AB6F0C941B
:10576000183683E50E94211D882311F40C94183605
:105770000E940B1D0E94AEB270938B0F60938A0F34
:105780000C94183689E690E00E944725882311F092
:105790000C941836E4EBF4E007C09091C00095FF3C
:1057A000FCCF8093C600319684918823B1F7E091B5
:1057B0008705F0E0EE0FFF1FEE0FFF1FE257F04FDF
:1057C000408151816281738185ED97E021E030E075
:1057D0000E945739E1EBF4E007C09091C00095FFBB
:1057E000FCCF8093C600319684918823B1F7E09175
:1057F0008705F0E0EE0FFF1FE857F04F60817181E1
:10580000882777FD8095982F0E94E1B2AB01BC01FB
:1058100085ED97E021E030E00E945739EDEAF4E0B1
:1058200007C09091C00095FFFCCF8093C6003196D1
:1058300084918823B1F74091940F5091950F609116
:10584000960F7091970F85ED97E021E030E00E9470
:105850005739EAEAF4E007C09091C00095FFFCCF09
:105860008093C600319684918823B1F760918A0FA6
:1058700070918B0F882777FD8095982F0E94E1B259
:10588000AB01BC0185ED97E021E030E00E94573983
:10589000E6EAF4E007C09091C00095FFFCCF80934A
:1058A000C600319684918823B1F78091870590E0F6
:1058B0000E94BF6CBC0185ED97E04AE050E00E9479
:1058C0007638E1EAF4E007C09091C00095FFFCCF84
:1058D0008093C600319684918823B1F78FEF9FEFB4
:1058E0000E94BF6CBC0185ED97E04AE050E00E9449
:1058F00076388091C00085FFFCCF8AE08093C60097
:105900000C943D368DE690E00E944725882311F0E7
:105910000C94183686E994E00E94AD8810924608EF
:1059200083E50E94211D882371F00E940B1D0091C8
:10593000870510E0000F111F0857104F0E94AEB2EC
:10594000F8017183608383E50E94211D882351F053
:105950000E940B1D60933C0370933D0380933E03B4
:1059600090933F0382E40E94211D882351F00E94FE
:105970000B1D609338037093390380933A0390931F
:105980003B0386E40E94211D882369F00E940B1DC1
:1059900060934003709341038093420390934303C9
:1059A00081E0809346080E94AB6F0E9472A91B01A0
:1059B0002C010091870510E0F801EE0FFF1FE8575A
:1059C000F04F60817181882777FD8095982F0E9424
:1059D000E1B2F801EE0FFF1FEE0FFF1FE257F04F8D
:1059E000DD24D39420813181428153810E9442B4CD
:1059F00018160CF0DD24EE24EA94FE2C8701E3E96E
:105A0000F4E024912F8FEFE8F4E0349139A3EBE830
:105A1000F4E084918AA3E8EE6E2EE3E07E2E812CE2
:105A2000912C7AE0C72E35C18F8DE3E9F4E008C0F0
:105A30009091C00095FFFCCF8093C6003196849171
:105A40008823B1F7E0918705F0E0EE0FFF1FEE0F1E
:105A5000FF1FE257F04F408151816281738185EDD4
:105A600097E021E030E00E94573989A1EFE8F4E0A7
:105A700008C09091C00095FFFCCF8093C60031967E
:105A800084918823B1F76091870585ED97E070E0F8
:105A90004AE050E00E9476388AA1EBE8F4E008C0C2
:105AA0009091C00095FFFCCF8093C6003196849101
:105AB0008823B1F717FF03C0E3E8F2E025C00E9496
:105AC00072A99B01AC01C801B701605F784D8F4F8F
:105AD0009F4F621B730B840B950BA40193010E94D3
